:020000040800F2
:10000000F0FF0120B5EB0508E96A050889D0010871
:100010002DEC05082DEC05082DEC0508000000006E
:10002000000000000000000000000000ED6A05086C
:10003000F16A050800000000F56A050809C6010814
:100040002DEC05082DEC05082DEC05082DEC050818
:100050002DEC05082DEC050819C3000821C3000884
:1000600029C3000831C3000839C3000859C000087B
:100070006DC0000881C0000895C00008A9C0000834
:10008000BDC00008D1C000082DEC0508000000002C
:1000900000000000000000000000000041C3000854
:1000A00069F0000801F0000879F00008F1EF00089D
:1000B00029F0000839F0000849F0000831BB0008B9
:1000C00029D1000839BB00082DD100082DEC050806
:1000D0002DEC05082DC5010839C5010800000000F8
:1000E00049C300082DEC05087571050800000000E3
:1000F000000000000000000000000000E5C0000853
:1001000000000000C1DE000859F000082DEC0508D1
:1001100000000000000000000000000000000000DF
:10012000F9C000080DC1000821C1000835C1000850
:1001300049C10008000000000000000000000000AD
:10014000000000000000000000000000F96A05083F
:100150005DC1000871C1000885C1000845C50108DE
:1001600041BB000831D10008000000000000000081
:10017000000000000000000000000000000000007F
:10018000000000002DEC0508000000000000000049
:080190002DEC05082DEC05081B
:0801980048E70500010000002A
:1001A000FA01010004000000B8630020144300209D
:1001B00000000000F109010810430020FF210100A8
:1001C00005000000303E00201C430020000000001D
:1001D000D10A010818430020053001000800000082
:1001E000283E002028430020000000001C020708D1
:1001F000244300201302010004000000243E0020DC
:10020000344300200000000024020708304300208F
:1002100014020100050000007C3300204043002050
:1002200000000000280207083C43002006200100CF
:1002300028000000A83300204C43002000000000EC
:10024000090A010848430020160215003F0000007B
:100250004C3000207843002000000000050B01080E
:100260007443002015001000700000003CA1002025
:10027000B0A100200000000000000000ACA10020A0
:100280002A00080060000000DCA0002024A200205A
:10029000000000005932030820A200202C000400B6
:1002A00010000000CCA0002088A200200000000068
:1002B0002525030884A2002025201E002C01000013
:1002C000A09F00209CA20020000000000000000071
:1002D00098A200202B00120024000000589F00204C
:1002E000CCA300200000000035250308C8A300208F
:1002F000031101000A000000A4950020F4A30020CF
:10030000000000006D8C0408F0A3002029201400D8
:10031000780000003093002004A4002000000000BA
:100320000000000000A4002028300100160000009A
:10033000C092002080A400200000000051CE0308DD
:100340007CA400200B3001001A000000A4920020C1
:100350009CA40020000000003002070898A40020A0
:100360000D1001004C00000050920020BCA40020A1
:100370000000000083E10108B8A400200C60040024
:10038000780000009C8B00200CA5002000000000DD
:10039000257F020808A50020012001000C000000B4
:1003A000148C002088A50020000000004A020708E5
:1003B00084A500202700010004000000888C002094
:1003C00098A50020000000005602070894A5002010
:1003D0002320010010000000788C0020A0A5002040
:1003E0000000000069B403089CA500200E70040002
:1003F0007002000018890020B4A500200000000051
:1004000039320308B0A50020220201001C010000BF
:10041000B095002028A8002000000000952C0108BD
:1004200024A800201F020B001600000060A9002075
:1004300048A9002000000000E10A010844A90020AA
:100440001B020100100000008CA900207CA90020E4
:10045000000000009D0A010878A90020280204007D
:1004600004000000A4A90020A0A9002000000000B2
:10047000910A01089CA90020270204000400000042
:10048000B0A90020ACA9002000000000850A0108E6
:10049000A8A900201C0202001C000000D892002025
:1004A000B8A900200000000001110108B4A9002033
:1004B0001A0201003C00000014AA0020D8A9002064
:1004C0000000000085110108D4A900202E020100BF
:1004D00004000000FC98002054AA00200000000046
:1004E0009987010850AA002004000800800000003D
:1004F000049900205CAA0020000000000000000019
:1005000058AA00201902010010000000BC9300202E
:10051000E0AA002000000000C10A0108DCAA0020B7
:10052000081203000F00000094990020F4AA002094
:100530000000000085090108F0AA00200A900100CF
:10054000240000008C8C002008AB0020000000007C
:100550007DB4030804AB0020031201003D0000003D
:10056000509A002030AB0020000000005A0207081B
:100570002CAB0020010201000A000000449D002075
:1005800074AB002000000000E109010870AB0020FE
:100590000C02010004000000A499002084AB00209C
:1005A00000000000F909010880AB0020FD170100E0
:1005B000A0000000549D00208CAB00200000000033
:1005C000C728040888AB00201310010004000000B5
:1005D0009C92002030AC0020000000009802070828
:1005E0002CAC00200202010003000000409D00200E
:1005F00038AC0020000000000000000034AC0020F7
:10060000F5C10100740000003095002040AC0020CE
:1006100000000000853604083CAC0020F6210100F3
:100620000C000000D4930020B8AC002000000000B3
:100630009C020708B4AC0020121201000400000064
:1006400090BE0020C8AC002000000000610A010834
:10065000C4AC0020110201000800000094BE00207C
:10066000D0AC0020000000006D0A0108CCAC0020D6
:1006700034000100100000009CBE0020DCAC002013
:1006800000000000E91F0308D8AC0020F831010089
:100690000600000040920020F0AC002000000000A6
:1006A000A8020708ECAC0020021001000C000000BA
:1006B000F4990020FCAC002000000000B002070804
:1006C000F8AC0020FE01010014000000A8930020F7
:1006D0000CAD0020000000006D09010808AD0020ED
:1006E0000612030012000000E099002024AD002053
:1006F000000000008910010820AD0020F701010072
:1007000006000000CC9300203CAD0020000000005B
:10071000BC02070838AD0020FC0101000900000000
:10072000ACBE002048AD002000000000B10A010866
:1007300044AD0020FB01010001000000B8BE002014
:1007400058AD002000000000B90A010854AD002097
:100750001A0001000E0000008499002060AD002006
:1007600000000000C20207085CAD00201410010068
:10077000050000004892002074AD00200000000039
:100780007D1F030870AD0020FD0101002100000065
:100790007698002080AD0020000000006F870108DF
:1007A0007CAD00201D0202000600000070980020B1
:1007B000A8AD00200000000000000000A4AD002053
:1007C0001840010038000000F4920020B4AD002071
:1007D00000000000F1110108B0AD0020F901010096
:1007E00004000000BCBE0020F0AD002000000000AE
:1007F00029870108ECAD0020123001001000000034
:10080000888B0020F8AD002000000000D00207080F
:10081000F4AD00200E02010002000000108900204B
:100820008CBE002000000000E002070888BE002007
:100830002F200100220000002CE0002000DF00201B
:1008400000000000E202070828E00020010101008A
:100850000400000088ED0020CCED00200000000026
:1008600000000000C8ED00200001010004000000AD
:1008700084ED0020D4ED00200000000004030708F0
:10088000D0ED0020020101000300000080ED0020F7
:10089000DCED0020000000007D7B0208D8ED002088
:1008A000263001000800000028E60020E4ED0020CA
:1008B00000000000092A0408E0ED00202052010099
:1008C0000800000020E60020F0ED002000000000FD
:1008D00008030708ECED00202A12010008000000C0
:1008E00018E60020FCED00200000000010030708BF
:1008F000F8ED00202B0201000C00000000E60020B3
:1009000008EE0020000000001803070804EE002095
:100910001F500100240000009CE4002018EE00207D
:10092000000000002403070814EE002038400100F6
:100930000600000034E1002040EE0020000000002E
:10094000480307083CEE00201620010006000000C6
:10095000F8E500204CEE0020000000004E030708E0
:1009600048EE00201010010002000000F4E5002015
:1009700058EE0020000000005403070854EE002049
:10098000190001000500000010E6002060EE0020C4
:1009900000000000560307085CEE00200300010081
:1009A00001000000C0030120CC0501200000000070
:1009B00000000000C805012005020100040000003D
:1009C0006CF00020D4050120000000005C03070843
:1009D000D00501202C0201000400000038F00020A6
:1009E000FC0501200000000060030708F805012055
:1009F0002D02010001000000C0EF002004060120CC
:100A00000000000000000000000601202902010093
:100A100040000000DCEE00200C0601200000000079
:100A200064030708080601202332010014000000B7
:100A30001C0A01208819012000000000A4030708F7
:100A400084190120001201000A000000802A012000
:100A500014320120000000000000000010320120CC
:100A60001E0201000600000004490120FC4D012087
:100A700000000000B8030708F84D01200D12010026
:100A800014000000984D0120084E012000000000D5
:100A9000C0030708044E01200B2201003D000000A6
:100AA000B0380120204E012000000000D4030708C8
:100AB0001C4E012010020100010000008C7D01206D
:100AC000887D01200000000012040708847D0120B9
:100AD0000902010001000000507D0120947D0120E9
:0C0AE0000000000014040708907D0120B5
:100AEC0012010002000000408304205700020102A2
:100AFC0003010000040309041A03000000000000B5
:100B0C0000000000000000000000000000000000D9
:100B1C0000000100D80000000000000005000000EB
:100B2C000600000002000000000000004806002043
:100B3C003843002002000000010000006D8D000809
:100B4C00440600200000000001000000010000002D
:100B5C004D8D0008DC0100200000000000000000AA
:100B6C000000000000000000000000000000000079
:100B7C000000000001000000000000000000000068
:100B8C000000000000000000010000000000000058
:100B9C000000000000000000000000000100000048
:100BAC000000000003000000000000000500000031
:100BBC0005000000FFFFFFFF000000000000000028
:100BCC0001000000000000000000000004300020C4
:100BDC000000000001000000000000000000000008
:100BEC0000000000000000000000000000000000F9
:100BFC0000000000000000000000000000000000E9
:100C0C000100000000000000FF0000000060024036
:100C1C001060024000000000000000000000000016
:100C2C00000B0000000000000000000000000000AD
:100C3C00006002402860024001000000000000003B
:100C4C0000000000060C0000000000000000000086
:100C5C000000000000600240406002400200000002
:100C6C000000000000000000100D0000000000005B
:100C7C0000000000000000000060024058600240CC
:100C8C00030000000000000000000000160E000031
:100C9C0000000000000000000000000000600240A6
:100CAC007060024004000000000000000000000022
:100CBC00200F0000000000000000000000000000F9
:100CCC000060024088600240050000000000000047
:100CDC0000000000261000000000000000000000D2
:100CEC000000000000600240A0600240060000000E
:100CFC0000000000000000003011000000000000A7
:100D0C00000000000000000000600240B8600240DB
:100D1C00070000000000000000000000362F00005B
:100D2C000000000000000000000000000064024011
:100D3C0010640240000000000000000000000000F1
:100D4C00003800000000000000000000000000005F
:100D5C000064024028640240010000000000000012
:100D6C000000000006390000000000000000000038
:100D7C0000000000006402404064024002000000D9
:100D8C000000000000000000103A0000000000000D
:100D9C0000000000000000000064024058640240A3
:100DAC00030000000000000000000000163B0000E3
:100DBC000000000000000000000000000064024081
:100DCC0070640240040000000000000000000000FD
:100DDC00203C0000000000000000000000000000AB
:100DEC00006402408864024005000000000000001E
:100DFC00000000002644000000000000000000007D
:100E0C000000000000640240A064024006000000E4
:100E1C000000000000000000304500000000000051
:100E2C00000000000000000000640240B8640240B2
:100E3C000700000000000000000000003646000023
:100E4C000000000000000000000000000000040191
:100E5C00000002000100000210000000070000006A
:100E6C00FFFFFFFF55010108559000086DDA0008DF
:100E7C0099900008DD010108210201089D900008ED
:100E8C0020060020EDAA00082D8F0008518F0008C5
:100E9C00758F0008798F0008DD8F000851900008CD
:100EAC00FC050020D98E0008058F00081D8F000856
:100EBC00218F000825A60008258F0008298F00081F
:100ECC00CC130608510705086DF104087560050878
:100EDC000000000000000000F1610508296205080F
:100EEC00000000000000000000000000ADF104084C
:100EFC00198C0008258C0008559F00082D9F0008B0
:100F0C00318C0008719F00088D9F00081F000000A5
:100F1C001C0000001F0000001E0000001F0000004D
:100F2C001E0000001F0000001F0000001E0000003B
:100F3C001F0000001E0000001F0000000068214C74
:100F4C002A000000008002021F00000053544D20B4
:100F5C002020202050726F647574202020202020C7
:100F6C0020202020302E3031008002021F00000093
:100F7C0053544D202020202050726F647574202013
:100F8C002020202020202020302E30310600000090
:100F9C0005000000C5710508C9710508CD7105086B
:100FAC00D9710508DD710508D1710508D5710508E1
:100FBC00FFFFFFFF010000003DB5000855C8000809
:100FCC00ADAD000865020108C1AC000845AE0008D3
:100FDC00A1900008099100081D9100080101FF0073
:100FEC00482806087C280608B0280608FFFFFFFFE3
:100FFC00080000009DC60108FFFF0000FFFFFFFF77
:10100C00000101010000000070DF0608000008026A
:10101C00050303000000000078DF06080100080249
:10102C00050403000000000080DF06080000080231
:10103C00050303000000000088DF06080100080219
:10104C000504030000000000B0EA06080200FE01DF
:10105C000110030000000000508006080300140279
:10106C00000300000000000090DF060804001F02CF
:10107C0002000B000000000098DF060805001F02AC
:10108C0002010B00000000007D00000002000000C7
:10109C000CE006086CE3060800000000E17A020888
:1010AC00A0860100040000000CE006088CE606088F
:1010BC0000000000C5BD0108E803000004000000AA
:1010CC0018810608000000000000000031860208AC
:1010DC007D000000FF0000001485060800000000E1
:1010EC000000000065A902087D000000FF00000060
:1010FC0080F106080000000000000000CD6303082A
:10110C007D000000FF000000E8E30608000000007E
:10111C000000000019A10108E80300000300000012
:10112C00F886060800000000000000005951030872
:10113C0010270000030000008CDF060800000000F0
:10114C006D270308191D02085F76000005000000DA
:10115C00D08B06080000000000000000ADDF010885
:10116C00102700000200000094E6060800000000B2
:10117C000000000059890108E80300000500000088
:10118C00A0E6060800000000000000009D80020898
:10119C00204E000003000000B0E60608000000002E
:1011AC0000000000F99E0208204E00000300000021
:1011BC00C0E606080000000000000000859D010844
:1011CC00400D030003000000E8E0060800000000EA
:1011DC0000000000251B0208102700000200000080
:1011EC00D0E606080000000000000000BDE6010883
:1011FC00A086010002000000BC850608000000006B
:10120C000000000009E40108A861000002000000D1
:10121C006C8306080000000000000000C9E1010812
:10122C001027000002000000DC8B06080000000004
:10123C000000000031E90108A00F000002000000CE
:10124C00248C060800000000F52804083562040808
:10125C0085450100020000002C83060800000000F8
:10126C0000000000698A040810270000020000003A
:10127C0080E306080000000000000000A11604082E
:10128C0050C3000002000000D8E606080000000071
:10129C0000000000F1A10408400D03000100000053
:1012AC00E0E606080000000000000000D959040820
:1012BC0050C3000003000000ECE60608000000002C
:1012CC0000000000199C020840420F0001000000C1
:1012DC00F8E606080000000000000000F1EF01082D
:1012EC0050C300000100000004E7060800000000E5
:1012FC0000000000F5760408102700000200000032
:10130C000000803F00000000000000000000000012
:10131C000000803F00000000000000000000000002
:10132C000000803F000000000000000000000000F2
:10133C00FFFFFFFF5DF1010800000000000000004E
:10134C000000000071F10108000000000000000026
:10135C0000000000FFFFFFFF010100000000000083
:10136C00E80501200800000000000000D80501205D
:10137C00080000007EFF7EFFE2FFE2FFFFFFFFFFA1
:10138C00FC0601205007012001F11F3F68190120C4
:10139C0076190120D6010000FF1FFF1FF11A020869
:1013AC000000000000000000000000000000FA43F4
:1013BC000000FA430000803F000000000000000025
:1013CC000000000000000000000000000000000011
:1013DC0000000000000000000000000004000000FD
:1013EC000000803F60FECD0000FF00000000000008
:1013FC000000000025BE03080000000000000000F3
:10140C004859060801FF0000000000000000000021
:10141C0000000000B85D060800000000000000009D
:10142C0000000000705E06080000000000000000D4
:10143C00000000001C5E0608ADE10308000000007F
:10144C0000000000906F0608000000000000000083
:10145C0071DC03083C1E01200101000001000000AA
:10146C00FA00000001000000010000002D202D2DCD
:10147C00202D2D2D2D202D2D2D00000000000000E5
:10148C0000000000000000000000000041E603081E
:10149C0000000000000000001C5D06083DA10408CF
:1014AC000000000000000000905C0608A722040861
:1014BC000000000000000000485C0608D81A01205B
:1014CC0088136F1701000000DA1A012088136F17B8
:1014DC0000000000DC1A012088136F1701000000C7
:1014EC00DE1A012088136F1700000000D5BD030819
:1014FC000000000000000000B0590608741E012016
:10150C0001000000045A0608E11A01200100000045
:10151C00105A0608881B012002000000185A060801
:10152C00FDBD03080000000000000000245A06085E
:10153C00000000000000000000000000785A0608BF
:10154C00000000000000000000000000E85A06083F
:10155C00D61A012002000000305B0608781E01201C
:10156C00E0150C1700000000C0120000222301201F
:10157C0000000000000000002023012000000000FB
:10158C00000000001E2301200000000000000000ED
:10159C001C23012000000000000000001A23012081
:1015AC0000000000000000001823012000000000D3
:1015BC0000000000200C00200000000000000000D3
:1015CC00E01A012003000000205B06080000000068
:1015DC0000000000000000003C5B060826230120F0
:1015EC00E0150C1700000000282301200200000069
:1015FC00305B06082D202D2D202D2D2D2D202D2D51
:10160C002D2D000000000000000000000000000074
:10161C0000000000000000000000000000000000BE
:10162C00745B06082A2301209CFF2C01000000009B
:10163C00761E0120E0150C1700000000751E01201D
:10164C0002000000305B06082D202D2D202D2D2DA5
:10165C002D202D2D2D2D000000000000000000007D
:10166C00000000000000000000000000000000006E
:10167C0000000000AC5B0608721A012000C80100D3
:10168C00711A012000500100701A0120005A01004B
:10169C006E1A0120020000001C1D060884EE0608CC
:1016AC008CEE0608E61C01200100C40900000000B5
:1016BC00E41C01200100C40900000000E21C012010
:1016CC000100C40900000000E01C01200100C40955
:1016DC0000000000DC1C01200100C4090000000017
:1016EC00DE1C01200100C40900000000DA1C0120EE
:1016FC000100C40900000000D81C01200100C4092D
:10170C0000000000B71A012000C80100B61A012021
:10171C0000C80100B41A01200000FFFF0A000000FD
:10172C00B21A01200100C80001000000B01A01200B
:10173C003200307532000000AE1A0120E2FF1400B6
:10174C0005000000AC1A01207EFF1400050000000B
:10175C00AA1A012005002C0105000000A81A01207E
:10176C00055A0500BD1A012000FF0100BB1A01201B
:10177C0002000000540D0020B91A012003000000E3
:10178C00B85E0608BC1A012000FF0100BA1A01203D
:10179C0002000000540D0020B81A012003000000C4
:1017AC00B85E0608981B0120FF7F0100941B0120E6
:1017BC0000000000FFFFFFFF01000000901B012054
:1017CC0000000000FFFFFFFF010000008C1B012048
:1017DC0000000000FFFFFFFF01000000381A01208D
:1017EC00EE02CA0801000000361A012000C80100F0
:1017FC0064000000351A012002C8010064000000DA
:10180C00341A012001000000C85E0608D41A012019
:10181C000000803E05000000D21A012080C1803EED
:10182C0005000000D01A01200083007D0500000097
:10183C00CE1A012080C1803E05000000CC1A012088
:10184C0000FF0100CA1A01206400F401010000002D
:10185C00C81A01206400F40101000000C61A01201E
:10186C006400F40101000000C41A0120040000000F
:10187C0044210608C31A0120020000003821060882
:10188C00000000000000000000000000D05E060810
:10189C00331A0120540000009C1E0608311A012046
:1018AC0003000000085F0608321A01200400000043
:1018BC0058210608A11A012003000000185F060831
:1018CC00A01A012003000000185F0608941A0120DA
:1018DC00000A0100921A01200000E8030100000038
:1018EC00901A01200000E803010000008E1A01206C
:1018FC00000A01008C1A01200000E803010000001E
:10190C008A1A01200000E80301000000821A01205D
:10191C00C800E80301000000881A01201400FA0036
:10192C0001000000861A01200100E80301000000FC
:10193C00841A012000050100801A01200200000019
:10194C00D81D06087E1A01200000F40101000000D9
:10195C007C1A01200000F401010000007A1A012019
:10196C000000F40101000000781A01200000F401CD
:10197C0001000000761A01200000E80301000000BD
:10198C00741A01200000E803010000005D1A012018
:10199C00196401005C1A012002000000CC1D06082D
:1019AC00511A012000640100501A0120006401004A
:1019BC00581A0120006401000A000000571A012087
:1019CC00006401000A000000561A012000640100A6
:1019DC000A0000005B1A012000FF01000A00000051
:1019EC005A1A012000FF01000A000000591A0120B8
:1019FC0000FF01000A000000551A012001FF010040
:101A0C000A000000541A012001FF01000A00000026
:101A1C00531A012001FF01000A0000009E1A012048
:101A2C000000F401010000009C1A01200000E803F2
:101A3C00010000009A1A01200000E80301000000D8
:101A4C00981A01200000E80301000000961A0120FA
:101A5C000000E803010000003A1E0120E803D00753
:101A6C000A000000381E0120006401000A0000007A
:101A7C00371E0120009601002E1E012000C8010017
:101A8C002D1E0120006401002C1E012000640100A9
:101A9C002B1E0120006401002A1E0120006401009D
:101AAC00291E0120FF080100281E012001640100ED
:101ABC005DB80308A1B8030800000000285F060801
:101ACC00311E012001320100301E012001000000F6
:101ADC00A01D06082F1E012004000000A81D0608EA
:101AEC00271E012000960100261E01200064010023
:101AFC00251E012000FA010064000000241E0120B4
:101B0C000AFA0100231E01200AC80100221E01202E
:101B1C0000640100211E012000640100201E012030
:101B2C000A5A01001F1E012000C801001E1E0120C0
:101B3C0000C80100341E012000320100361E0120B5
:101B4C0000140100351E0120005F0100331E01202E
:101B5C0004000000E01C0608321E01200064010095
:101B6C000A0000004B1A01200AC805000A000000F8
:101B7C004A1A012001000000BC2106084D1A012060
:101B8C000AC805000A0000004C1A012001000000E0
:101B9C00BC210608421A012000C805000A000000FA
:101BAC00491A012000C805000A000000431A012050
:101BBC0000C805000A000000441A012000C80500F6
:101BCC000A000000471A012000C805000A000000A6
:101BDC00481A012000C805000A000000461A01201E
:101BEC0000C805000A000000451A012000C80500C5
:101BFC000A000000411A0120020000009C1C06088B
:101C0C001C1E01200000D00701000000171E01203F
:101C1C0000C80100161E012000C80100151E01207D
:101C2C0000C801001A1E01200000D00701000000AE
:101C3C00141E012000C80100131E012000C8010061
:101C4C00121E012000C80100181E01200000D00740
:101C5C0001000000111E012000C80100101E01200F
:101C6C0000C801000F1E012000C80100E8F806089A
:101C7C00000000000000FC220120F4F80608070810
:101C8C00000000001C130020FCF8060807080000E8
:101C9C0000001413002004F90608070800000000D7
:101CAC000C1300200CF906080808000000000013B3
:101CBC00002014F90608070800000000F8120020A4
:101CCC001CF90608070800000000F012002024F997
:101CDC000608070800000000E81200202CF906088E
:101CEC00080800000000DC12002034F90608071078
:101CFC0000000000D41200203CF906080710000078
:101D0C000000CC12002044F9060807100000000067
:101D1C00C41200204CF90608081000000000B8128C
:101D2C000020ACEC060801000000000000000000E0
:101D3C000000000010000000000000000000000087
:101D4C00B1BA0308C1BA030863CE0308985F06084A
:101D5C00A71A0120005A0100A61A012000C8010090
:101D6C00A41A0120E803D0070100000000000000C5
:101D7C000000000071EA030834600608C21A012052
:101D8C00030000008C1C0608C11A0120000301008E
:101D9C00C01A0120000301003DBB030891BB0308DE
:101DAC000000000088600608E5BB030825BC03089A
:101DBC000000000030610608F1CC0308FDE20308C6
:101DCC0000000000B0610608BE1A012001030100EA
:101DDC00D9BE030801BF030800000000D064060848
:101DEC00C5B60308EDB603080000000050650608F0
:101DFC00A5BC030805BD030800000000B465060877
:101E0C0011DE030889B60308000000006C660608A2
:101E1C009DBA0308000000000000000008670608D7
:101E2C005DB90308C9B90308000000006C67060817
:101E3C00E5B8030821B9030800000000246806086F
:101E4C008D24040829B8030800000000B0680608B7
:101E5C000D1E012003000000EC2201202DBA030806
:101E6C0069BA03080000000090690608D52404082C
:101E7C00A9E0030800000000006A0608A1B70308E7
:101E8C0085DF030800000000C06B0608312404083D
:101E9C0045DF030800000000241300200E1E012063
:101EAC0003000000A8220120DDBA03080DBB0308C3
:101EBC0000000000CC6C060845DC030800000000A4
:101ECC0000000000306D06086DBC030819E3030820
:101EDC0000000000CC6D06080000000000000000AF
:101EEC0000000000686E0608A523040811DF030833
:101EFC0000000000D86E0608E00101FF010101009E
:101F0C00E831012000000000E03101200000000059
:101F1C0001AA5507010000140101010101AA550590
:101F2C0001000008A4000000000000000000AA55F9
:101F3C000902000000AA5503009F000001000000E8
:101F4C00AA550B010000AA5505010000FFFF000077
:101F5C00F401000000000000000000000000000080
:101F6C0001000000719F0408000000000000000048
:101F7C000000000001000000000000000000000054
:101F8C00010203040102030406070809FF00000014
:101F9C0009024300020100C03209040000010202E0
:101FAC000100052400100105240100010424020293
:101FBC000524060001070582030800FF090401003F
:101FCC00020A00000007050102400000070581021B
:101FDC004000000009026400030100C03209040043
:101FEC000001030000000921110100012236000745
:101FFC0005830309000A080B01020202010009040F
:10200C000100010202010005240010010524010059
:10201C0002042402020524060102070582030800BB
:10202C00FF09040200020A0000000705010240003B
:10203C00000705810240000009022000010104C0D4
:10204C003209040000020806500507058102400011
:10205C000007050102400000010B01001201000203
:10206C00EF0201408304563200020102030100001A
:10207C0012010002020200408304405700020102D8
:10208C00030100000403090405010905A101A100D5
:10209C00050109300931093209330935093409368A
:1020AC0009371581257F75089508810205091901E5
:1020BC00290815002501950875018102C0C0000092
:1020CC0009022200010100E03209040000010301B1
:1020DC0002000921110100012236000705830309C2
:1020EC00000A010050C300000101000000010000C3
:1020FC00204E000000000000000000000101010063
:10210C00000690600600000088130000030408001D
:10211C000103907006000000102700000304080063
:10212C000202908006000000204E000005040A0008
:10213C000301909006000000409C000006020A007B
:10214C000009185006000000D007000002040C0023
:10215C000107186007000000A00F000003040E0028
:10216C0002051870070000000A1A000004040C0095
:10217C000302188007000000204E000005020C002E
:10218C00000690FF1C11B80BC409580288130103F8
:10219C008BFF4222AC0DC40958028813020288FF3F
:1021AC008444A00FC40958028813030185FF84449A
:1021BC007017A00F00008813000997FF8106C4094F
:1021CC00C40903008813010794FFE40CB80BC4097D
:1021DC0006008813020590FFEF16AC0DC4090A0027
:1021EC00881303028DFF2E2AA00FC4090000881348
:1021FC00B81A0020F04D012004000000010000007E
:10220C00FD45050800000000000000000000000073
:10221C000000000000000000B41A002000000000C4
:10222C0004000000010000007546050800000000D5
:10223C000000000000000000000000000000000092
:10224C0086000000F81800200000000004000000C8
:10225C0001000000314605080000000000000000ED
:10226C00000000000000000000000000BC1A00206C
:10227C00F44D012004000000010000009145050808
:10228C000000000000000000000000000000000042
:10229C0000000000970000004C1900200000000016
:1022AC000300000001000000ED45050800000000DF
:1022BC000000000000000000000000000000000012
:1022CC001B00000078190020000000000300000033
:1022DC0000000000000000000000000000000000F2
:1022EC000800000001000000214605080000000065
:1022FC0000000000000000000000000000000000D2
:10230C00B01A0020EC4D0120040000000100000078
:10231C00C15905080000000000000000000000008A
:10232C000000000000000000AC1A002000000000BB
:10233C0004000000010000007546050800000000C4
:10234C000000000000000000000000000000000081
:10235C00A81A00200000000002000000000000008D
:10236C000000000000000000000000000800000059
:10237C000100000065460508000000000000000098
:10238C00000000000000000000000000A41A002063
:10239C000000000004000000010000007546050864
:1023AC000000000000000000000000000000000021
:1023BC0000000000010000002C7A06082500000037
:1023CC00F101050891020508CDFC040895F00408FC
:1023DC000906050879F0040861F00408A5F0040862
:1023EC00B5F0040800000000000000008300FFFFAF
:1023FC001A0000008200FFFF1D0000008200FFFF9A
:10240C00170000001500000000000000390701084B
:10241C00BD060108EDDA0008B105010871030108D9
:10242C0025910008399100084D9100080507050811
:10243C0019F10408E90505080000000049F1040839
:10244C00390705081DFC0408F5FB04080000000012
:10245C00000000003DF104087DF90408A1F904080E
:10246C00955F0508795F0508B15F0508CD5F050824
:10247C00E95F050859060508F5F00408DD030508B1
:10248C0000000000C5F0040845FA0408E5FA040849
:10249C00CDFB04080000000000000000E9F0040877
:1024AC0000000000000000000102030406070809F8
:1024BC00C70000000500000006000000781B00208B
:1024CC000000000000000000000000000000000000
:1024DC0000000000000000000000000000000000F0
:1024EC0000000000000000000000000000000000E0
:1024FC0000000000000000000000000000000000D0
:10250C0000000000000000000000000000000000BF
:10251C0000000000000000000000000000000000AF
:10800000074BD0F8E4105B68D0F8F0205B1A9A4276
:10801000B8BFC0F8F030012380F81C310020704751
:10802000001000E0B74B00EB800270B503EBC20418
:1080300053F832205268B2F814C01CF0010F4FEA16
:1080400080016AD15FFA8CFE1EF0020F3DD0BFF3B3
:108050005F8F257F012D5FFA85FC00F0CC80148BAB
:10806000BFF35F8F0C1803EBC404257F022D00F0D3
:10807000E3800C1803EBC404257F032D06D1A47FF5
:1080800024B193F87940002C40F0E5809488A4B2A4
:1080900044F48064948093F978C001EB000E03EB04
:1080A000CE0E9EF81CE00EF1010EE6450CD1002428
:1080B00083F8794093F87A40002C40F0B680084469
:1080C00003EBC00300225A7670BD1EF0040F5BD193
:1080D0001EF0400E00F0C880158A93F978C0666AD9
:1080E000EDB206F80C505FFA8CFE267F0EF101040B
:1080F00064B2E51CAE4283F87840A44600F02A81C1
:108100000D1803EBC5052D7FAC42C6D10EF1020C54
:108110004FFA8CFC83F878C0BFE7B2F800C02CF4AB
:10812000006C4FEA0C4C4FEA1C4CA2F800C0B2F8AD
:1081300000C01FFA8CFC4CF4806CA2F800C0A57F34
:108140004FF0000C83F878C0002D46D093F879509A
:10815000002D3FD0012483F879400C1803EBC404B0
:10816000247F022C04D11488A4B244F40064148047
:108170000C1803EBC404A47E44F0010414820844E8
:1081800003EBC0031B7F70BDA57F4FF0010C83F88C
:108190007AC0002D6FD093F87950002D70D10C1853
:1081A00003EBC404647F002C00F0AE80148893F8C5
:1081B00078C0A4B244F400740CF1010C14804FFA9E
:1081C0008CF483F87840B2F800C01CF4807FFAD1B8
:1081D000A44662E7E47EFF2CBCD00C1803EBC40479
:1081E000A57E05F0FE051582E27EFF2AC7D0FF229C
:1081F00083F87820C3E7A47F002C3FF430AF93F8D6
:108200007940002C3FF42BAF148824F480642404BC
:10821000240C1480BFF35F8F148B148883F87AC00A
:10822000A4B244F40074148030E7948824F44074B9
:108230002404240C948042E7A47F002C3FF419AF5F
:1082400093F87940002C3FF414AF148824F4806430
:108250002404240C1480948824F480642404240CC2
:10826000948093F978C018E71FFA8CF52D0631D465
:1082700093F978C011E793F87940002C8FD095E7F7
:10828000257F022D15884AD925F480652D042D0CF3
:108290001580158A666A93F978C0EDB206F80C501D
:1082A000666A1488A4B244F4007414805FFA8CFCEB
:1082B000158A0CF1010464B2EDB2355595880CF1C4
:1082C000020CADB24FFA8CF445F4806583F8784027
:1082D000958078E793F978506E1C42D0266A765DD7
:1082E0001682247F05F1010C4FFA8CFC644583F85B
:1082F00078C07FF4D2AE948824F480642404240CE3
:108300009480CAE6D81B00201488A4B244F4807478
:108310001480012483F8794093F9784053E7ADB293
:1083200045F400751580158A666A93F978C0EDB238
:1083300006F80C505FFA8CFC666A158A0CF1010491
:1083400064B2EDB20CF1030C35554FFA8CF483F89E
:10835000784038E7958825F480652D042D0C9580AC
:10836000CEE6E57E1582A57F83F878E01DB9247FEF
:10837000002C7FF404AF948824F480642404240C3B
:108380009480FCE61B4B01681B4A03F5727C03E0FA
:1083900063452CD053F82C2F9142F9D170B593F846
:1083A00004E0427996450AD0634505D053F82C2F56
:1083B0009142F4D06345F9D14FF0FF3070BD9E4635
:1083C0008468DEF80C50A5424FF0000208D001325C
:1083D000032A0EF10C0EE7D0DEF80C50A542F6D1C0
:1083E000DEF81050C668B542F1D150B270BD4FF002
:1083F000FF307047980206080000014030B5EAB12E
:108400008E464FEA014C034600F1C005002419686E
:108410009A6841EA0C0142EA0E029A60C3E900142C
:108420000C33AB42F3D1D0F8C030C0F8C44043EABB
:108430000E03C0F8C030C0F8C84030BD4FEA014E4E
:108440008C46E0E783691969B3F80CC00A6830B458
:108450009C6822F0010224680A60A28992B222EA92
:108460000C02A281027D04681F2A06D96568203AA1
:1084700008209040284246D0FEE72568082090401A
:108480002842F9D1202000FA02F2A260274A92F88D
:108490007B20002A35D01A7E012A39D0D3F8F42067
:1084A0000132C3F8F420EFF31181502282F31288D5
:1084B00058685C6C026822EA04029C6C2243C9B2D0
:1084C000026081F31188D3E90C401A6999681D6C28
:1084D000096814605061D3E90E4054609060002434
:1084E000B3F8A800D5604C62C8621068012420432C
:1084F00010601C7683F8F1408A899B8913439BB2F4
:108500008B8130BC7047202000FA02F2E260BDE7A8
:10851000002283F8F120D3F8F8000A68013022F035
:108520000102C3F8F8000A60EBE700BFD81B002087
:1085300010B40C4CE36F002B11DD002004F1800C13
:108540000146DCF8A03003F1C00259600C339342BD
:10855000FBD1E36F013083420CF5807CF1DC5DF8E8
:10856000044B7047D81B0020704700BF024B03EB41
:10857000401090F89D047047D81B00204368B0F865
:10858000502010B41A83EFF31182502383F3128822
:108590004168446C0B6823EA0403C46C2343D2B2E1
:1085A0000B6082F31188D0E9074182680369126881
:1085B0001C605961D0E909415C60C46A9960B0F8F7
:1085C0006010DC600023D1625DF8044B03767047D5
:1085D0000C2911D8DFE801F0231010101910101029
:1085E000111010100700838B23F400631B041B0C75
:1085F00043EA022292B282837047838B23F00803FE
:108600001B041B0C1A4382837047038B23F4006303
:108610001B041B0C43EA022292B202837047038BB5
:1086200023F008031B041B0C1A430283704700BF8E
:10863000704700BF0B4890F8B41589B101EB4101B8
:10864000002310B4490000F2BC501C4650F823200F
:10865000063302B114608B42F8D15DF8044B7047C9
:10866000704700BFD81B00200B4890F8B41589B1A3
:1086700001EB4101002310B4490000F2BC501C463C
:1086800050F82320063302B114609942F8D15DF806
:10869000044B7047704700BFD81B00200120704773
:1086A000034B00EB400003EBC00090F8CD05704792
:1086B000D81B002007EE900AB8EE670A704700BF8B
:1086C000BCEEC00A10EE103A98B27047C84BD3F80F
:1086D0007C16D3F8802670B58C0F83F8B046C1F3B2
:1086E000836483F8B146C1F3016483F8B246100E87
:1086F000C1F3074483F8B3460001C1F30724C9B2AC
:1087000083F8B44683F8B516A3F8B606B3F8B616E0
:10871000C2F3035089B20143C2F30344A3F8B6166F
:10872000C2F3C03083F8B846C2F34031C2F380349C
:1087300083F8B90683F8BA4683F8BB16C2F3003152
:1087400083F8BC1693F8081700200129C2F3072C00
:1087500083F8BD0640F2F380022900F0C580D3F80B
:1087600084162A204FEA4C0C0CF07E0C83F8C94684
:1087700083F8CAC693F8CA46C1F3C0121443D3F8AB
:10878000882683F8CA4601F07F01D40F83F8CB1600
:1087900083F8CC46910DC2F3417483F8CD4601F0C5
:1087A0000C01C2F3826483F8CE4683F8CF1693F8A7
:1087B000CF16C2F381542143C2F3405583F8CF163C
:1087C00083F8D056002583F8D156C2F3004583F8CC
:1087D000D256C2F3C03583F8D356C2F3803583F83E
:1087E000D456C2F3403583F8D556D3F88C46C2F33D
:1087F000003583F8D656C2F3812583F8D756C4F3E3
:108800000741C2F30125C2F3460283F8D8564FF060
:10881000010C83F8D9260902220E83F8DAC683F800
:10882000DC26A3F8DE16B3F8DE16C4F3072289B2FD
:1088300011432406A3F8DE16D3F89016C3F8E046D9
:10884000D3F8E0260C0E42EA0442C3F8E026D3F83F
:10885000E0460A0A02F47F422243C3F8E026D3F836
:10886000E056D3F89426C1F307242C43C9B2C3F8C9
:10887000E04683F8E416110E83F8E516110C09069C
:10888000C3F8E816D3F8E846110201F47F0121434A
:10889000C3F8E816D3F8E816120292B20A43C3F8F6
:1088A000E826D3F8E816D3F8982641EA1261C3F80F
:1088B000E81693F8EC16C2F30354214383F8EC1640
:1088C000110A01F47061A3F8EE16B3F8EE16C2F3C4
:1088D000072489B22143C2F34602A3F8EE1683F8B7
:1088E000F02683F8F1C670BD120402F47C12C3F8BE
:1088F000C026D3F88416D3F8C0260C0E42EA042210
:10890000C3F8C026D3F8C046C1F307422243C3F8D8
:10891000C026D3F8C026013240F10004A40244EA84
:1089200092549202C3F8F8264FF40072C3F8FC4642
:10893000C1F3072CC3F80027C1F3803412E74FEAD4
:108940008C2C0CF44061C3F8C016D3F8C01692000A
:1089500002F47F720A43C3F8C026D3F8C046D3F8A6
:10896000841644EA9174C3F8C046C1F3C265C1F3EA
:10897000026483F8C456CA0B83F8C546C1F3425457
:1089800083F8C64602F00602C1F3824483F8C74664
:1089900083F8C82693F8C826C1F3C034224383F86D
:1089A000C826D3F8C04693F8C82693F8B8E6961CB4
:1089B000012202FA0EF5B240D617A2FB052E05FBE6
:1089C00006EE04FB0EEE0134A2FB0424A644520A78
:1089D00042EACE52C3F8F8264FEA5E22C1F3072CD2
:1089E000C3F80057C3F8FC26C1F38034BAE600BFD1
:1089F000D81B002010B50C2937D8DFE801F09736D6
:108A0000363666363636373636360700038C5488A7
:108A1000B2F80CE023F480531B041B0C0384038C7A
:108A2000B0F804C0818B21F4E6414EEA040E09043B
:108A3000148823F40053090C41EA04211B04754CEB
:108A40001B0C43EA0E33A0421FFA8CFC9BB289B286
:108A500000F0AE8004F58064A04200F0A980926826
:108A6000A0F804C081830264038410BD038CB2F8B3
:108A70000CC0548823F480731B041B0C0384038CE8
:108A8000B0F804E0818B23F400731B044CEA040C5F
:108A900021F073011B0C43EA0C230904B2F800C057
:108AA000090C41EA0C0C5B4988421FFA8EFE9BB20E
:108AB00068D001F58061884264D09268A0F804E033
:108AC000A0F81CC0C263038410BD038CB2F80CC0B4
:108AD000548823F010031B041B0C0384038CB0F890
:108AE00004E0018B23F020031B044CEA040C21F466
:108AF000E6411B0C43EA0C130904B2F800C0090C50
:108B000041EA0C211FFA81FC424988421FFA8EFE7D
:108B10009BB269D001F58061884265D09268A0F867
:108B200004E0A0F818C08263038410BD038C54884D
:108B3000B2F80CE023F001031B041B0C0384038C2C
:108B4000B0F804C0018B21F073014EEA040E090451
:108B5000148823F00203090C1B0421432D4C1B0C29
:108B600043EA0E03A0421FFA8CFC9BB228D004F506
:108B70008064A04224D09268A0F804C001834263BC
:108B8000038410BDD189548A23F4006343EA012190
:108B9000138A2EF4405E23434EEA031E94884FF658
:108BA000FF330B4043EA04231FFA8EFE9BB284E797
:108BB000148A2CF4804C4CEA841C1FFA8CFC4EE77F
:108BC000D489B2F810E023F008032343548A2CF42C
:108BD000407C4EEA040E948823F004034CEA0E0C09
:108BE0001FFA8CFC2343C6E7D189548A23F0800303
:108BF00043EA0111138A2EF4406E23434EEA830E9A
:108C000094884FF6BF730B4043EA04131FFA8EFE9D
:108C10009BB283E700000140122301480B8070479C
:108C200098010020042301480B807047AC0100200C
:108C30002048D0F8E837D0F8EC2730B59B184FF033
:108C40001A040C8001D11C4830BD1B4AD0F8EA1729
:108C50004FF0000E10467546B3F1204F4FEA137CDB
:108C60000CF130040EF1020E2ABF0CF1370C8470A7
:108C700080F802C0BEF1100FC5704FEA031300F177
:108C80000200E9D100200446B1F1204F4FEA1173F0
:108C900003F1300C00F102002ABF373382F812C012
:108CA00093740828D4744FEA011102F10202EBD147
:108CB000014830BD00F0FF1FB001002082B01F4B03
:108CC000002201920193019B1D4A04330193019BF1
:108CD0001968936803F00C03042B07D0082B0AD003
:108CE000184B194AC3F80C2702B07047154BC3F84C
:108CF0000C1702B070475368506813F4800F00F0EF
:108D00003F00536813D1C3F388130F49B1FBF0F14F
:108D100001FB03F30A4A0B495268C2F301420132D4
:108D20005200B3FBF2F3C1F80C3702B07047C3F343
:108D30008813B1FBF0F101FB03F3EBE7502800408F
:108D400000380240D81B00200024F40001234377A0
:108D500000207047D0E90B2108B583690B4483617B
:108D60000AB108469047002008BD00BF436A1B684F
:108D70001B6A5B685B78024613F0010008BF5077FE
:108D8000704700BFC2628161704700BF704700BF7B
:108D9000043070470430704710B4094CD4F8100701
:108DA0004FF0340C0CFB00F004EB000C04F21474D4
:108DB0002044DCF81447A469A4465DF8044B6047DE
:108DC000D81B0020064BD3F81027342101FB02F2F8
:108DD00003F2147013441044D3F81437DB691847B6
:108DE000D81B0020043070470D4B93F88027D3F830
:108DF0007C170244D2B283F8802793F88027084476
:108E00001206C3F87C0705D593F8802782F080020C
:108E100083F88027034B012283F83220704700BF7C
:108E2000D81B0020980100202DE9F047144FD7F8F7
:108E30008457ED0A1ED00026B04607F2BC79D7F859
:108E400088371048D3F828A0C7F8B487AC19641045
:108E500010234A46E102D0470F280BDD0A4B03F1ED
:108E6000100C53F8041B013107D16345F9D1254695
:108E7000B542E4DCE802BDE8F087661CF8E700BF15
:108E8000D81B0020602300209423002010B5114C33
:108E9000D4F8CC27D4F8D037D31A322B12D8D4F840
:108EA000D437934200D310BDD4F8D83733B1196802
:108EB0009B884869034214BF4B830B833232C4F84A
:108EC000D42710BD0021084612F05CFF0023C4F82F
:108ED000D43710BDD81B0020094A92F8E437D2F8E5
:108EE000D82703F001031AB123B9136892881A83B3
:108EF00000207047136892885A830020704700BF93
:108F0000D81B00204FF40070034B1060D3F8F037EB
:108F10000B600020704700BFD81B00200020704766
:108F200001207047012070470020704738B5074B7B
:108F3000D3F820381B6A14460D4698474FF4007347
:108F400002682A600020236038BD00BFD81B0020C3
:108F500008B5074BD3F8203833B15B69984780F0E8
:108F60000100404240B208BD4FF0FF3008BD00BFD5
:108F7000D81B0020002070472DE9F04123B3164D87
:108F8000164688469F18D5F820480023A4681A463C
:108F900041463046A0470028F5D0D5F8203833B1F7
:108FA0005B69984720B9D5F82038002BF8D1FEE747
:108FB0000136B74208F50078E5D1D5F8CC37C5F8C9
:108FC000D0370020BDE8F081034DD5F8CC37C5F887
:108FD000D0370020BDE8F081D81B00202DE9F041FA
:108FE0005BB31A4C16460F4603EB020804E0D4F8B4
:108FF000201819B14B699847D4F820180D6900233F
:109000001A4639463046A8470028F0D1D4F820380F
:1090100033B15B69984720B9D4F82038002BF8D1D8
:10902000FEE70136B04507F50077E5D1D4F8CC3737
:10903000C4F8D0370020BDE8F081044CD4F8CC3718
:10904000C4F8D0370020BDE8F08100BFD81B002055
:10905000002070470E4838B5D0F878380D461446D1
:109060003BB11A689B881269134090F8752852B179
:109070005BB9FFF72BFB074A4FF40073926C2A6031
:109080000020236038BD002BF3D14FF0FF3038BDF6
:10909000D81B002088220020002070470020704745
:1090A000034B93F84808003818BF0120704700BFF1
:1090B000D81B0020826D136A5B681B78FF2B08D0D9
:1090C00090F8F030013BDBB280F8F0301BB10120AA
:1090D000704700207047126A526802201370704770
:1090E000836D1B6A5B681B78FF2B0AD190F8F03008
:1090F000002B03F1FF3280F8F02014BF0120022082
:1091000070470020704700BF034B93F848080328BE
:1091100094BF002001207047D81B002000487047F2
:1091200024240020034B93F84808003818BF01207E
:10913000704700BFD81B0020034B93F84808032852
:1091400094BF002001207047D81B002000487047C2
:1091500024240020164BD0F8E0105A6810B50446BD
:10916000D0F8D80071B1131A99420BDC94F8D030C2
:10917000C4F8D820012B10D0D4F8D4300133C4F86F
:10918000D43010BDD4F8E430C4F8D8200344C4F877
:10919000DC3094F8D030012BEED104F1E801201D31
:1091A00012F0E2F8D4F8D4300133C4F8D43010BD52
:1091B000001000E070B5214B214C94B0CDE9004384
:1091C000022302931F4B04930546231D012205939E
:1091D0000023CDE90632CDE90E33CDE910330B93F0
:1091E00013932B7F406A8DF80C20002B14BF0523AE
:1091F00004230C93144B0993A4F108030A930E461D
:109200008DF820208DF834208DF8482012F030F8A9
:109210002B7F8BB1330E04F8073C063C320C330A2B
:1092200022706370A670686A694612F09DF8686AD9
:1092300012F01EF814B070BD073CEFE7F0240020D8
:10924000D40100206D8D00084D8D000810B5044636
:1092500094B050220649684656F0A3FF606A6946FA
:1092600012F082F8606A12F003F814B010BD00BF6B
:109270008C0606082DE9F0410446406A1E460F465A
:10928000904611F0F5FF237F002B3FD0294DA069B8
:109290000523EB67030E85F8453005F1460398700A
:1092A000020C000A58701A703B68C5F8883000201C
:1092B000D8F80030C5F89030012E2363C5F8A0001F
:1092C0002BD0022E20D1D8F80420C5F89800796858
:1092D00085F89400C5F89C1013441749C5F8A420DC
:1092E0000120236385F8A800C5F8AC10134B617FFB
:1092F000606A03F11402002914BF1946114612F0E6
:1093000033F8E36A8BB1206BBDE8F081094DA069A9
:109310000423EB6705F14503C1E7074B85F894602B
:10932000C5E92630C5F8A400E0E7606A11F0A0FFA7
:10933000E9E700BF98010020558D0008E4010020F6
:1093400000B583B081610192049A0093C262012347
:109350006A4601A9FFF78EFF03B05DF804FB00BF6A
:10936000F0B5836993F8DC20012A8BB005462ED036
:10937000023A012A36D893F84C21D3F89C101E4C9F
:1093800062F07F030B708669D6F8A0305F1C0FCCAB
:10939000EC46ACE80F00D6F89C30CDE900370FCC96
:1093A000ACE80F0094E803008CE80300694606F17E
:1093B000100011F0D9FFAB691A69516A03F110006E
:1093C00099B1884200D0FEE7116A0029FCD1D3F898
:1093D000A0305A8852BAEA819A8852BA2A82DB8827
:1093E0005BBA6B8201200BB0F0BD116A0029EED090
:1093F000116A0029F9D1EAE7DC0606082DE9F041F7
:1094000090F8DC30D0F8A060012B8AB0044653D02D
:1094100016D8D0F89C304FF0FF321A605A609A602C
:10942000DA60D0F8E0300522B3F57A7FC0F8F0209A
:1094300064D8032380F8DC3001200AB0BDE8F08155
:10944000023B012BF8D890F84D31D0F89C20424DCA
:1094500063F07F031370D0F8A03000F110085F1C98
:109460000FCDEC46ACE80F00D4F89C30CDE90037C6
:109470000FCDACE80F0095E803008CE803006946C7
:10948000404611F071FF23695A6A12B190452ED0FF
:10949000FEE71A6A002AFCD173885BBAA4F8D030C0
:1094A000B3885BBAA4F8D230F38801205BBAA4F881
:1094B000D4300AB0BDE8F08190F84C2190F84D31DD
:1094C0009B1A5B100133DBB206EB430236F8133014
:1094D0005BBAA0F8D03053885BBAA0F8D23093883A
:1094E0005BBAA0F8D43001200AB0BDE8F0811A6A56
:1094F000002AD1D01A6A002AF9D1CDE703691A7B74
:109500002AB35B691BB390F8983003B390F84C31E1
:10951000D0F89C20C4F8A40063F07F03137090F887
:109520004C1190F84D31D0F8A0200C48C4F804013B
:109530005B1A07330121C4F8FC30D4F89C3084F85E
:1095400000110A44C4E93D3284F8DC1074E70223B8
:1095500084F8DC3070E700BFDC06060801800008F4
:109560002DE9F043044695B0406A334D0E469146CE
:10957000984611F07DFE314B0193314B049305F178
:10958000CC030093217F0223029305F1C40201233F
:1095900000278DF80C3005920697002935D08DF8FC
:1095A00034308DF84830CDE90977330ECDE90E77A8
:1095B000CDE9107785F8C5300523CDF82C908DF8CE
:1095C0002070CDF830801397C6350793330C1D4FAC
:1095D0002B70330A6B70AE70D7F82009656A11F0F2
:1095E00055FE637FA8802BBB05A9284611F0BCFE61
:1095F000606A11F03DFED7F8240911F047FE636A56
:109600009880404615B0BDE8F0838DF834308DF871
:1096100048300423CDE90911CDE90E11CDE910112F
:10962000CDF82C908DF82010CDF830801391C535F1
:109630000793CBE76946D8E798010020F42400207F
:109640006D8D0008D81B002010B50E4C94F84838DA
:10965000032B10D894F83C380133DBB2072B84F885
:109660003C389BBFD4F8CC27C4F83828002301230A
:1096700084F8483810BD044811F008FEA4F88008AA
:10968000E8E700BFD81B0020801A0600094AD2F87C
:1096900078386BB119689B88086992F8751803408F
:1096A00021B12BB1002382F848387047002BF9D044
:1096B000CAE700BFD81B00200C4AF8B513685569EB
:1096C0002B4003EA000555617DB1094F0126B5FA2B
:1096D00085F4C4F11F0407EB840306FA04F4D3F8FD
:1096E000280903689847A543F1D1F8BD003C014023
:1096F000D81B0020038A2DE9F047B0F80C901FFA20
:1097000089F919EA03092BD005460E464FF00047A8
:109710004FF00008B9FA89F327FA03F2D24391B265
:109720001B3B298209EA0209042B16D8DFE803F063
:10973000352C231A0300B36A002B37D003F1FF3A0C
:109740001FFA8AFAC6F82880746A34B12368204662
:10975000514698476468002CF8D1B9F1000FD9D16F
:10976000BDE8F0877068696B036889B29847B9F102
:10977000000FCFD1F4E7B068A96B036889B29847AE
:10978000B9F1000FC6D1EBE7F068E96B036889B265
:109790009847B9F1000FBDD1E2E73069296C036841
:1097A00089B29847B9F1000FB4D1D9E7E96A1FFA35
:1097B00081FAC9E72DE9F0412F4F07EB401898F8DF
:1097C0009C340BB9BDE8F0818C2303FB00730E467B
:1097D00093F86A2988F88224002183F86A190446DC
:1097E000450111F0EDFCC0BB3D442448A5F8806460
:1097F00000EB441011F06EFA97F87B30D5F89824FE
:10980000A3B1D5F88414D2F8A03001248C4003F120
:10981000C001420010F4004F90B202D15A682243B6
:109820005A600C339942F4D1BDE8F081D5F88444F4
:10983000D2F8A03004F110020124944003F1C001D9
:10984000420010F4004F90B202D15A6822435A608D
:109850000C339942F4D1BDE8F08197F8283E03EB30
:10986000430307EBC303234493F8D56D002EBBD00D
:10987000012388F88234B7E7D81B00205820002045
:1098800070B5214C94F8292E94F8283E9A4236D18E
:1098900094F82A3EE3B194F82B5E1C4B002040F272
:1098A0000D3CB5B19A68998951601668196846F0FF
:1098B00001061660A1F848C08A8992B242F480720B
:1098C0008A8194F82A2E0130824203F11803E8DCE1
:1098D00070BD1A68118821F080010904090C1180FB
:1098E0009988D162118889B241F080011180556256
:1098F000998A9689314389B291819D82E1E751F03D
:109900006DF90028C4D170BDD81B0020042A0020A6
:109910002DE9F84F037D02681F2B044608D95068D3
:10992000A3F120052021A940014206D1BDE8F88F0E
:109930001068202199400142F8D04C494C4D4968AB
:10994000C5F8EC1E95F82B1EA66901BB8C2101FB06
:109950000651D1F87009D1F8E8C90768DCF80000B1
:10996000B1F874E920F00100CCF80000B98989B29F
:1099700021EA0E01B98195F87B10E9B91F2B68D94E
:10998000A3F1200120238B40D360BDE8F88F8C2108
:1099900001FB0651D1F870190F690868396821F088
:1099A00001013960818921F480710904090C8181E8
:1099B00095F87B100029E1D08C2706FB07F705EB13
:1099C000070B2C49DBF8E899DBF8703907F1180828
:1099D0004846D3F800A0884444F0FEFFD5F8F43E92
:1099E000244901228BF8BC29002B38D0BAF800306A
:1099F0009BB243F08003AAF8003074374FF0FF3376
:109A00003944CAF82C30504645F066FA8C2303FBE3
:109A1000065600234146C6F88C39484645F072F890
:109A2000D6F8E83916225A601A6842F001021A6024
:109A3000D6F87029B6F87439126891890B439BB235
:109A400093810A49237D49682268C5F8F01E1F2BBF
:109A500096D8202101FA03F39360BDE8F88F12F045
:109A600083FE0449C5F8F40EC0E700BF001000E013
:109A7000D81B002040250020274B5B68C3F3080358
:109A80002DE9F041002B3AD1EFF31183BBBB12F06B
:109A900049FE0546214F204E4FF00008FC6F002C78
:109AA00029DD00231A4607EB0321013391F87111D8
:109AB0009C4242EA0102F6D142EA0804E4B290462E
:109AC0007368C3F308039BB9EFF3118383B912F0F2
:109AD00029FE431BB3F5FA6F02DCB8F1000FDDD1AC
:109AE0001CB197F8F83E532B0DD02046BDE8F0810D
:109AF00012F0A8FDEDE744464FF00008E0E712F051
:109B0000A1FD0546C6E7B7F8003F0133A7F8003FBF
:109B10002046BDE8F08100BF00ED00E0D81B00202A
:109B20002DE9F041234D95F8292E95F8283E9A42CB
:109B300039D1EE6F002E12DD002495F87B701E489F
:109B4000A046013417B1037E012B27D002691368A8
:109B5000B44243F0010300F580701360F1D1174B5C
:109B60005B68C3F30803B3B9EFF311839BB912F039
:109B7000D9FDD5F80C4F002C0BDD114A02EBC404C3
:109B8000116893888889083203439BB294428B8181
:109B9000F6D1BDE8F08112F055FDEAE780F8F080DB
:109BA000FEF7ECFCD2E751F019F80028C1D1BDE86E
:109BB000F08100BFD81B0020581C002000ED00E001
:109BC000E82A00202DE9F04F2DED028BBF4C83B029
:109BD00094F87B3001932BB9012003B0BDEC028BCC
:109BE000BDE8F08FD4F8CC37DFF8F4B208EE103AC5
:109BF00004F5906704F573664FF0000ADBF8243231
:109C0000534540F3C280BA697B684FEA8308D2E9C2
:109C10003A3008F1085808EB431800F180621BF84D
:109C2000C03C393A08EB831308EB82129A4240F2A7
:109C30003A811968002900F01181196C002900F09F
:109C40000F81D3F88010002900F00C81D3F8C010E8
:109C500003F580730029E9D194F8F89EA3EB080876
:109C60004FEAA818B9F1530F414600F0EC809A4230
:109C700040F28180411A45294FF0000528BF452157
:109C800003EB81119E462846AC460DE01A6C002A73
:109C900040F08580D3F88020002A40F0AA80D3F8D5
:109CA000C02003F580732AB9994205D91A68002AA1
:109CB000ECD04033994275D86546112D40F20181B0
:109CC000CCF11503002BC0F2FC80A8F10A080BF8B8
:109CD000C08C08D000FA03F3CCF11405012000FA7F
:109CE00005F545EA03007A4DC0F3C43305EB830361
:109CF000D3F86C1400F01F0305EB8303D3F86C2436
:109D000042EA0132C0F3441105EB8101C0F3842320
:109D100005EB8303D1F86C14D3F86C3442EA0112DA
:109D200042EA032383EA132282EA121202F00F02AC
:109D30000F2A79D1B3F5803F76D2B9F1530F4FEAAC
:109D4000131304D1B4F8FC2E0132A4F8FC2ED4F87D
:109D5000382FB3F5606F02F10102C4F8382F00F01C
:109D600092800199B3815B4B5C2018EE102A00FBB6
:109D70000A3011F0EBF90AF1010ABAF1080F07F104
:109D8000200706F114067FF439AF534B012201205E
:109D900083F8362003B0BDEC028BBDE8F08F803332
:109DA000994289D9A3EB0E029211551C4B4A82FBB2
:109DB00005E2A2EBE572012AB8BF0122904001251D
:109DC0009444013A05FA02F210431D462A6892B102
:109DD0002A6C002A48D0D5F88020002A46D0D5F831
:109DE000C02005F580753AB1A942EFD89E462B46B2
:109DF0005AE7C0335EE74035A942F7D9EB1A9B1109
:109E00005A1C364B83FB02E3A3EBE273012BB8BF72
:109E1000012398409C440122013B02FA03F31843BA
:109E20002B469E462B463FE7B9F1530F20D0D4F87E
:109E3000383F0133C4F8383FD4F8343F0133C4F815
:109E4000343F00218FE79A42A4F8028F3FF612AF09
:109E5000B4F8FE3E0133A4F8FE3E8CE74033FBE647
:109E60008033F9E6C033F7E68035C5E7C035C3E790
:109E7000B4F8FC3E0133A4F8FC3ED4F8383F01337B
:109E8000C4F8383FD8E794F8282E02EB420204EBDE
:109E9000C202524492F8D52D0D2A7FF462AF80237E
:109EA0000199B3775FE794F8F89EA3EB0805AD112D
:109EB000B9F1530FA84629467FF4D9AEA4F8025F42
:109EC000C6E7B9F1530FC3D055E700BFD81B002038
:109ED00098020608142C0020D82B00205655555502
:109EE000D02C002010B5044655F0A8FC81B22046C5
:109EF000BDE810405EE400BF38B50B4D00EB4000FC
:109F000005F2BC5303EBC00393ED027AD3ED037A61
:109F1000E7EE007AC4002C44B0EE670A55F08EFCE0
:109F2000D4F8BC35186038BDD81B00200A4608B5E7
:109F3000054920B905484BF0F7FF034808BD044820
:109F40004BF0F2FF004808BDF82E00201C7D0608EB
:109F5000447D060810B5044C04480A4621464BF0DF
:109F6000E3FF204610BD00BFF82E00206C7D0608E0
:109F700010B5044C04480A4621464BF0D5FF204654
:109F800010BD00BFF82E0020807D060810B5044CDF
:109F900004480A4621464BF0C7FF204610BD00BFCB
:109FA000F82E00208C7D060838B590F82830012B5B
:109FB000044604D0407F40B10023637738BD406A37
:109FC00003681A7B92B9637F0BB9012038BD0C4D31
:109FD0000C49022305F54A7211F0FCF995F8293372
:109FE00003F0010383F001006377E7E75A6A1AB1CF
:109FF000904201D0002038BD1B6A002BE3D0F9E766
:10A00000D02C00206802002010B504462046FFF73F
:10A01000CBFF0028FAD0012010BD00BFF0B511F031
:10A02000010583B00AD190F82860012E044607D0BC
:10A03000C368B3F1807F01D90123237703B0F0BD5A
:10A040000A4B476AD3F8200911F020F9E368B88079
:10A05000B3F1807FF2D9B7218DF80410267733460B
:10A060002A46384601A911F0B5F9E7E7D81B0020C8
:10A0700008B590F82830012B18BF012000D008BD8A
:10A08000406A51F0ADFBC04300F0010008BD00BFC5
:10A0900038B50C4D044694F82830012B03D000232A
:10A0A0002362012038BD606A51F09AFBC04310F072
:10A0B0000100F4D1D5F8CC37226A9B1A002BEADBD9
:10A0C00038BD00BFD81B002010B5FF22044690F811
:10A0D0002810406A54F076FB0E4BD3F8CC3703F5CA
:10A0E000FA7323622046FFF7D3FF94F82830012B40
:10A0F00000D010BD606A0022A02154F03DFB94F80E
:10A100002830012BF5D1606A1822BDE81040B0213B
:10A1100054F032BBD81B0020CB0700D57047D3E7E3
:10A120002DE9F047044692B0444D0F461646FFF71E
:10A13000AFFF94F82810606A062254F043FB95F8AC
:10A140002A8301236377B8F1000F21D12046D7F885
:10A1500000A0D6F80090D5F82C73FFF799FF94F87B
:10A160002830012B48D0364BE26AD3F8CC37023383
:10A1700023623068D5F82C330121034485F82A1373
:10A18000C5F82C330AB19047306812B0BDE8F087AB
:10A19000D5F82C338DF80A30C3F302238DF809303B
:10A1A000204684238DF808303F68D6F80080FFF7FA
:10A1B0006FFF94F82830012BD5D18DF82C308DF815
:10A1C00040300023CDE90C33CDE90E33606A0897A7
:10A1D000CDF8288003A904938DF8183007930993CC
:10A1E000119302AB039303230190059311F0BCF884
:10A1F000019811F03DF8B6E78DF80A708DF82C3013
:10A20000C7F302278DF840300223CDE90C88CDE951
:10A210000E88606ACDF820A0CDF828908DF80970DE
:10A22000CDF810808DF81880CDF81C80CDF82480F2
:10A2300003A9CDF844808DF80830D2E7D02C002057
:10A24000D81B002033B910B51C46C36A2046984776
:10A25000204610BD64E700BF38B504460D46FFF741
:10A2600017FF062294F82810606A54F0ABFA94F8AD
:10A27000283001229342627705D0064BD3F8CC37C1
:10A280000F33236238BD606AEA0AD82154F050FACD
:10A29000F3E700BFD81B002038B583884BB10546D3
:10A2A000002461042846FFF7D7FFAB880134A3429E
:10A2B000F7D838BD70B5154D95F82A3323B1D5F8C8
:10A2C0002C33C3F30A0303B170BDD5F83063104BD0
:10A2D0000446F60AC3F8D460FFF7DAFE94F8283093
:10A2E000012B0CD00B4BD5F82C23D3F8CC37C5F869
:10A2F000302300210233236285F82A1370BD606A7F
:10A300003246102154F014FAECE700BFD02C0020A4
:10A3100098010020D81B002070B5104D95F82A3305
:10A3200003B970BDD5F830630D4B0446F60AC3F887
:10A33000D460FFF7ADFE94F82830012B08D0094B0C
:10A34000D3F8CC370022023385F82A23236270BD6C
:10A35000606A3246102154F0EBF9F0E7D02C00206F
:10A3600098010020D81B00202DE9F047414F1E46E0
:10A37000D7F8D430B3EBD12F92B00C4605469046B7
:10A3800021D1DFF8F49095F82830C4F30A04C4F51D
:10A390000060B04234BF87B2B7B2012B3CD0D9F8CD
:10A3A000CC37023328462B62FFF772FE38B195F89E
:10A3B0002830012B23D0384612B0BDE8F0870020AA
:10A3C00012B0BDE8F0874FEAD12AFFF761FE0028FE
:10A3D000F5D095F828304FF0FF32012BC7F8D42084
:10A3E00042D0DFF89490D9F8CC37023328462B625C
:10A3F000FFF74EFE0028E2D0C7F8D4A0C3E7686A92
:10A4000051F0EEF9C0F3011001380228D3D82846E4
:10A41000FFF75AFE3846CFE78DF82C308DF84030E4
:10A4200003238DF8083002AB0022686A8DF80A40D9
:10A430000393240A042303A90190CDE90986CDE9F9
:10A440000722CDE90C22CDE90E228DF809408DF8C6
:10A450000B2004928DF818201192059310F084FFC0
:10A46000019810F005FF9AE7686A5246132154F0EC
:10A470005FF9B6E798010020D81B002070B50446AC
:10A48000FFF706FE94F82810606A0F4D062254F07C
:10A4900099F9012363772046D5F83063FFF7F8FD7B
:10A4A00094F82830012B08D0084BD3F8CC37002281
:10A4B000023385F82A23236270BD606AF20A1021F4
:10A4C00054F036F9F0E700BFD02C0020D81B002054
:10A4D000064BC26293F82A2322B1D3F82C338B4265
:10A4E00003D17047C3E9CB117047C7E7D02C0020D8
:10A4F00030B583B0044601920D4A009392F82A3396
:10A50000069DC5626BB1D2F82C3399420CD16A46D4
:10A5100001A92046FFF704FE2046FFF7CBFE03B05B
:10A5200030BDC2E9CB11F2E7FFF7A8FFEFE700BFAC
:10A53000D02C00202DE9F047089F884615460021C1
:10A54000202204461E4655F054FE4FB13B68E3817D
:10A550001B0C23827B687A89E3821B0C6282238333
:10A56000404654F051F9EB0619D4431EB8B108EB3C
:10A57000000701E0013B12D317F801CDBCF12E0F0B
:10A58000F8D1C01A421E032AA8BF0322082B03F1E8
:10A59000010AA8BF08239146C2441A4606E00828CB
:10A5A0000246C246A8BF08224FF000094FF02033F0
:10A5B00041462360636004F10807204655F0F1FD31
:10A5C000174B23815146BB704A46384655F0E9FD8A
:10A5D000611EE31D11F801CFACF1610EBEF1190F40
:10A5E0009CBFACF1200C81F800C08B42F2D1384600
:10A5F00004F10B0110F8013BA3F16102192A9CBF81
:10A60000203B00F8013C8842F4D118232373330C1B
:10A61000A382E572099B6683E361BDE8F08700BF12
:10A62000202020002DE9F04FDFF88894D9F8CC07DE
:10A63000C9F8D00787B0002B00F0DA8001F5FE786A
:10A640001344DFF874B40393164601F12007C246A1
:10A6500021E0002E64D0D9F8FC37B34200F0CC8062
:10A66000D9F8F837B34200F0FF80D9F80038D9F8AC
:10A670000418B3424BD8B14200F29981711A2046B6
:10A680004FF06AF8039B01369E4207F500770AF502
:10A69000007A00F0AD80D9F80858B542A7F120043F
:10A6A000D7D8751BD9F8188805F00702EB08049273
:10A6B000D8F830200233934203D3D8F8382093429D
:10A6C0000BD94146184605934FF016F8059B804676
:10A6D000002800F08C81C9F8180898F80420002A96
:10A6E00040F03481D8F82850002D00F07981D8F856
:10A6F00030209B1A049A02EBC303D8F80C202046A2
:10A7000002EB43224FF400714346A847BAE7B14237
:10A71000B4D920464FF40072002155F06AFDB1E72C
:10A720004FF400723146204655F063FD802387F8D0
:10A730009E310C2387F8A231D9F8F837D44AD9F8DA
:10A74000F017C4F8C6319342C4F8CA1100F334813B
:10A75000D04AD14C82FB03021A44D817C0EB6212D4
:10A7600084FB0254CD4D85FB03C5C0EB2530C2EB05
:10A77000821587F8A1015B1B801020F03F00013398
:10A780000343144487F8A031D317C3EBE4142244E5
:10A79000BF4B87F89F214A1E9A4200F31981BD4B97
:10A7A000BD4883FB02311144D317C3EB611180FB19
:10A7B0000140BA4C84FB0254C3EB2433C1EB811437
:10A7C00087F8A531121B9B1023F03F03013213437E
:10A7D000084487F8A431CB17C3EBE010014487F895
:10A7E000A311552387F8DE31AA2387F8DF3149E723
:10A7F000002007B0BDE8F08F4FF0FF3384F8EC3154
:10A8000084F8ED3184F8EE3184F8EF31D9F810385E
:10A81000C4F8E8315223237063706123A37084F875
:10A82000E73141230025E37084F8E631722384F890
:10A83000E43184F8E5314FF4F0722946A7F11C00A9
:10A8400055F0D7FC5523C7F8D051C7F8D451C7F8F5
:10A85000D85184F8FE316FF0550384F8FC5184F828
:10A86000FD5184F8FF310DE700214FF400722046BE
:10A8700055F0BFFC8A4A03CA47F81D0CEB2007F8C5
:10A88000200C582007F81F0C902047F8191C07F8D7
:10A890001E0C002302220821F820E372227307F81D
:10A8A000131CA273E37307F8102C07F80B0CD9F8EC
:10A8B000F80784F82C20D9F8F0276376121A226260
:10A8C000D9F80008D9F80428E376121A3F20207638
:10A8D0004FF0FF30A0763E20207701206377A377EA
:10A8E000E37784F82D3084F82E3084F82F306262BC
:10A8F00084F8300084F8313087F82610802187F8FA
:10A900002010292187F82210942187F823100E2186
:10A9100087F824100D21634A87F82510552187F800
:10A92000DE11AA2187F8DF1103CA5F4BC7F82700A1
:10A93000C7F82B1003CB1388A7F82F309378C7F8EC
:10A940003200C7F8361087F831309BE64FF40072BA
:10A950000021204655F04DFC049B002B4ED1D8F829
:10A960004030002B00F0AA80049AD8F830304F49CC
:10A97000CDE9002220461122FFF7DCFDD8F8403057
:10A980001A6C002A00F0AD80049A1B6BCDE90022FE
:10A99000474911223846FFF7CDFDD8F8448007F12A
:10A9A00020044FF4E075B8F1000F3FD16AE6F11AC8
:10A9B00020464EF0D1FE65E6FF2387F89F3187F8E9
:10A9C000A13187F8A031324B4A1E9A427FF7E7AE99
:10A9D000FF2387F8A33187F8A53187F8A43100E772
:10A9E000294620464FF4007255F003FC4AE6A7F1D1
:10A9F000240343F804BF9A45FBD143E6D8F840301E
:10AA0000049AD8F84480002B0CBF01230223C3EB27
:10AA100002154346002B3FF435AE013D9B6CF9D146
:10AA200098464FF40075002B3FF42CAE254420349B
:10AA3000234620354446049698460EE05CF81C1BDD
:10AA4000236BCDF800C000260196FFF773FDA46CC0
:10AA500008F12008CCB1A84517D02379A44604F109
:10AA60001C0E1122A8F12000002BE7D16279266983
:10AA7000236B216842F02102CDE900E6FFF75AFD81
:10AA8000A46C08F12008002CE5D1049EFAE500BF73
:10AA9000FF03FB0083200882818080809755454119
:10AAA000A47D0608B07D0608BC7D06089C7D0608CE
:10AAB000A07D0608D81B0020DEADBEEF049BD9F8B0
:10AAC000F417CDE9003320460822FFF733FDD8F80C
:10AAD0004480B8F1000F3FF4D5AD3C464FF4F0751B
:10AAE000A4E7049BCDE9003352E700BF002110B575
:10AAF000084611F047F9094C4EF0C0FD02E05B69D1
:10AB0000984720B9D4F82038002BF8D1FEE7D4F8C4
:10AB1000CC37C4F8D037002010BD00BFD81B0020B0
:10AB200010B5104A10498CB0002384460DF107007F
:10AB3000CDE90230012402F67C00069102A9CDE99C
:10AB400007338DF8143009930B9382F814C90494D9
:10AB50008DF8284010F008FC50F0F4F89DF807003C
:10AB60000CB010BDD81B0020E190000870B51C4D42
:10AB700090B0FD230024012601A905F67C008DF884
:10AB800003300DF103030693CDE90144CDE90746F7
:10AB9000CDE90A44CDE90C44C5F8444803968DF844
:10ABA000104005948DF824408DF838600F9410F013
:10ABB000DBFB50F0C7F83046FFF7B2FFFF2809D0A3
:10ABC000D5F8CC37C5F838380922204685F848280A
:10ABD00010B070BD0423022085F8483810B070BD55
:10ABE000D81B002030B5034691B000240A46CDE9B9
:10ABF00001430D480392012301A902258DF8383045
:10AC0000CDE90544CDE90A44CDE90C4408958DF819
:10AC1000104007948DF824400F9410F0A5FB50F0DD
:10AC200091F8204611B030BD5424002010B592B0E8
:10AC30000A0E04468DF805200A0A0023080C44F089
:10AC4000400C8DF807200122CDE90733CDE90D3303
:10AC50008DF804C08DF806004FF0950C16488DF85D
:10AC6000081004938DF818300A928DF82C300F9349
:10AC70008DF84020119301A906220DF103038DF8F0
:10AC800009C00C9003910592099350F06DF800B93A
:10AC900074B90A4B082203F67C0003A983F814292F
:10ACA00010F062FB50F04EF89DF8030012B010BD9A
:10ACB000FF2012B010BD00BFE1900008D81B00209B
:10ACC0002DE9F041344C0546884617461E4694F857
:10ACD000480804283BD0082807D1D4F84038AB42B4
:10ACE00006D0FFF743FF0228F1D00120BDE8F08134
:10ACF000FC212A4BD4F87C2883F83413284B117B91
:10AD0000C3F8008151B1526942B194F80429002A74
:10AD10000CBF4FF480724FF4007201E04FF4807268
:10AD2000C3F808211F49204810F01EFB012206230A
:10AD3000C4F82488C4F82858C4F83078C4F83468B3
:10AD400084F82C2884F848380020BDE8F081D4F835
:10AD5000843813B11A689B88538394F83E3853B9EA
:10AD600069021820FFF762FF38B994F84838082BB9
:10AD7000BED0FE21BDE72946F3E74FF0E3FF0A20EE
:10AD800011F02AFDD4F8843813B11A689B88138314
:10AD9000FEF77CFC0320A9E7D81B0020D02C002064
:10ADA0009801002070020020542400202DE9F04179
:10ADB000234C94F848C8BCF1040F07468846164651
:10ADC0001D4609D0BCF1080F02D00020BDE8F0817B
:10ADD000FFF7CCFE0228F8D1D4F8843813B11A68F2
:10ADE0009B88538394F83E38B3B979021120FFF75A
:10ADF0001DFFB8B9D4F8CC37C4F82488052284F8EC
:10AE00004828C4F82878C4F83068C4F83458C4F81E
:10AE100038380120BDE8F08139461120FFF706FFE0
:10AE20000028E7D04FF08EFF0A2011F0D5FCD4F8AF
:10AE30008438002BC9D01A689B881383C5E700BFEC
:10AE4000D81B00202DE9F047AC4C94F8746892B000
:10AE5000002E00F0C78194F8483804F67C0704F609
:10AE600064085A1E082A00F2A181DFE812F03C00B3
:10AE7000780098019F01BC00E3001C009F010900BD
:10AE80004FF072FF0546002840F01B83D4F8383895
:10AE9000D4F8CC27FA33934280F08681FEF7F6FB94
:10AEA00094F84838DDE74FF05FFF0028EED0D4F883
:10AEB00044280023012A84F83C3840F22983D4F83E
:10AEC0004018013A01310823C4F84428C4F8401856
:10AED00084F84838A3F10806B6FA86F676093046B3
:10AEE00012B0BDE8F087D4F8843813B11A689B8893
:10AEF000538300210846FFF799FE05464FF022FFD5
:10AF00000A2011F069FCD4F88438002B00F01A8272
:10AF10001A689B881383012D40F0468153830023D8
:10AF200084F83D3840F2AB110820FFF77FFE05287A
:10AF300000F00482012800F06A814FF003FF0A202C
:10AF400011F04AFCD4F8843813B11A689B88138333
:10AF500094F83D38002BBBD0022384F84838D4F84D
:10AF6000843813B11A689B88538394F83D38022BB8
:10AF70000CBF4FF08045002500213720FFF756FE1B
:10AF800029462920FFF752FE05464FF0DBFE0A2036
:10AF900011F022FCD4F8843813B11A68998811830F
:10AFA000002D40F0018194F83D28022A00F0FE8136
:10AFB00084F83E5813B11A689B88538300210920F6
:10AFC000FFF734FE002800F09D804FF0BBFE0A2002
:10AFD00011F002FCD4F88438002B00F0E5801A68E8
:10AFE0009B881383E0E00820D4F82458FFF798FDED
:10AFF000FF2800F0D281FE2800F0FA804FF0A2FE78
:10B000000A2011F0E9FBD4F8843813B11A689B8840
:10B010001383FEF73BFBD4F83058002D00F0188165
:10B020000022D4F83438D4F828181046A84794F8E9
:10B03000483816E7D4F87C28516A002900F0C98006
:10B04000B94200F0C680107B314630B1526922B15E
:10B0500094F80429002A40F0F780D4F8243894F8B2
:10B060002C18274803EB012100224FF4807310F0C5
:10B07000B1F994F82C380133DBB2022B84F82C3868
:10B0800040F0928002AB0393022300254FF00109A8
:10B0900003A9384605930DF107030993CDE9075538
:10B0A000CDE90C55CDE90E55ADF8085004958DF855
:10B0B00018508DF82C501195CDF828908DF84090AF
:10B0C00010F052F94FF03EFE9DF8073003F01F03D9
:10B0D000052B00F00682FEF7D9FAD4F830A8BAF1B1
:10B0E000000F00F0B580D4F83438D4F828182A4678
:10B0F0004846D04794F84838B3E600BFD81B002034
:10B10000542400200820FFF70BFDFE287FF45DAFDC
:10B1100010214046FFF766FD00287FF456AF94F8F3
:10B120007338DB077FF551AF94F86418891100F08C
:10B130007D8101297FF449AF94F86B28DFF8F0C3D3
:10B140009200D2B216210225C5F108038B4228BF16
:10B150000B46C3F108052A419840C91A40EA02008B
:10B160004FF000051CF8012FEED1431C9B02C4F8E0
:10B170004C384FF0E7FD0A2011F02EFBD4F884285C
:10B180001AB1136892881A835A8300210A20FFF7A4
:10B190004DFD002840F03C81032384F84838082006
:10B1A000FFF7BEFCFE2856D094F848385A1E022AF3
:10B1B0000BD8D4F8CC27D4F83818521AC82A7FF6FE
:10B1C00089AEFEF763FA94F84838042B7FF482AE18
:10B1D00085E6116A107B003918BF012100283FF471
:10B1E0003CAF33E7304684F8486812B0BDE8F087DA
:10B1F00028464FF40071FFF7F5FC002800F0AD8001
:10B20000012800F0CA8002283FF4F8AECCE7002302
:10B21000CDE90733CDE9093303938DF818300C934A
:10B2200002AB8DF82C0003A9BF48049304230593B7
:10B2300010F09AF84FF086FD9DF80B30AB2B04BF51
:10B24000022384F83D3878E600293FF41BAF41E63D
:10B2500094F8483805E6102103A8FFF7C3FC00283E
:10B26000A2D19DF80C3084F85238BDF80D309DF80D
:10B270001A209DF814105BBAA4F850389DF80F30CE
:10B2800084F853389DF8103084F854389DF8113004
:10B2900084F855389DF8123084F856389DF81330EC
:10B2A00084F857389DF819301B01DBB243EA1213BA
:10B2B00002F00F0203F5FA6384F86028DDF8152028
:10B2C000A4F85E380B0912BA84F85C3801F00F0359
:10B2D00084F85D38C4F858284FF034FD0A2011F086
:10B2E0007BFAD4F884389BB31A6894F83E189B888C
:10B2F0001383A1B953834FF400711020FFF796FC1C
:10B3000005464FF01FFD0A2011F066FAD4F8843884
:10B3100013B11A689B881383002D7FF4BFAD834857
:10B320000FF0B4FF00220423A4F880083046C4F8CC
:10B33000442884F8483812B0BDE8F087012384F827
:10B340003D38FAE5012D7FF42FAF84F83D38E9E56B
:10B3500094F83E38002BCED0E1E74FF0F3FC0A2002
:10B3600011F03AFAD4F8843813B11A689B88138321
:10B37000D4F830580423002084F8483884F83C0876
:10B38000002D3FF4ACADD4F83438D4F82428D4F8E8
:10B390002818A84794F8483808E7D4F83838D4F87B
:10B3A000CC2764339342FFF429AEFDE613B11A684B
:10B3B0009B88538300213A20FFF738FC0023CDE916
:10B3C0000733CDE9093303938DF818300C9302ABA2
:10B3D000049304230546059303A9012338468DF8F9
:10B3E0002C300FF0C1FF4FF0ADFC8DB94FF0AAFC2F
:10B3F0000A2011F0F1F9D4F8843813B11A68998849
:10B400001183029A12BAC2F3807284F83E28D1E501
:10B410004FF098FC0A2011F0DFF9D4F88438002BA3
:10B420003FF43CAD1A689B88138337E594F869387C
:10B4300094F86D08DFF8FCE003F00F0380010125AC
:10B440009D405FFA80F903234FF0060CCCF108020F
:10B450009A4228BF1A46C2F1080049FA00F091400A
:10B460009B1A1EF8019F41EA00014FF0000CEDD13C
:10B4700094F86AE8DFF8C0904FEA8E1E02315FFA56
:10B480008EFE0C20062200E00022C2F10802824259
:10B4900028BF0246C2F1080C4EFA0CFC9340801AF9
:10B4A00019F801EF4CEA0303EED1013303FA01F17D
:10B4B000EA17A1FB053501FB02515B0A43EAC153C0
:10B4C00055E64FF03FFC0A2011F086F9D4F8843895
:10B4D00013B11A689B881383042384F848382E46D6
:10B4E000FDE4D4F83058D4F8CC27C4F83828072322
:10B4F00084F84838002D3FF4EDACD4F83438D4F853
:10B500002428D4F828184846A84794F848384DE627
:10B5100003D0042384F8483857E5FFF727FB0228B7
:10B520007FF442AE51E500BF5424002040787D01F5
:10B53000432400204524002042240020807820213C
:10B540004FF0E4BB58B183884FF00042B3FA83F365
:10B5500032FA03F303D002490A6813430B607047C1
:10B56000003C014090F8DB30052B03D890F81E31E9
:10B57000032B01D00020704790F8233103F0FB0328
:10B58000022B0CBF00200720704700BF274A92F80B
:10B590002A3E7BB3D2F82C1E884237D0012B29D00B
:10B5A000D2F8441E814235D0022B23D0D2F85C1E43
