:020000040800F2
:10000000F0FF012099B70608EDF40008E9CF0408D5
:1000100011B8060811B8060811B80608000000005B
:10002000000000000000000000000000E9F40008EB
:10003000E5F4000800000000E1F40008E50605080A
:1000400011B8060811B8060811B8060811B8060854
:1000500011B8060811B806089D17050865170508A8
:100060002D170508F5160508BD160508897406083C
:1000700079740608697406085974060845740608F8
:10008000317406081D74060811B806080000000047
:1000900000000000000000000000000085160508B8
:1000A00005D5040855D50408F5D404087DD5040801
:1000B00045D5040835D5040825D5040829AF060818
:1000C00031AF06081DAF060825AF060811B80608AF
:1000D00011B80608B9080508010805080000000065
:1000E0004D16050811B80608A50D0108000000000E
:1000F0000000000000000000000000000974060875
:10010000000000007550060815D5040811B806084F
:1001100000000000000000000000000000000000DF
:10012000F5730608E1730608CD730608B97306086F
:10013000A573060800000000000000000000000099
:1001400000000000000000000000000081EE000838
:10015000917306087D730608697306084907050848
:1001600011AF060819AF06080000000000000000EB
:10017000000000000000000000000000000000007F
:100180000000000011B80608000000000000000098
:0801900011B8060811B80608B9
:0801980038B30600010000006D
:1001A0000E02010002000000D0740020387500200B
:1001B00000000000D8F30708347500201402010085
:1001C00005000000F039002040750020000000000C
:1001D000DAF307083C750020130201000400000058
:1001E000D82B00204C75002000000000E0F3070829
:1001F00048750020031101000A0000001874002057
:100200005475002000000000F1190108507500200D
:100210000D1001004C000000B06F0020647500203C
:1002200000000000F54C0408607500200902010080
:1002300001000000186F0020B475002000000000CD
:10024000E4F30708B0750020FD0101002400000060
:10025000D06E0020BC75002000000000F3DF040811
:10026000B8750020FB01010001000000E0690020DA
:10027000E47500200000000041590508E0750020E9
:10028000FC01010009000000AC680020EC750020B2
:100290000000000049590508E8750020F701010039
:1002A00006000000A0680020FC750020000000008F
:1002B000E6F30708F8750020F901010004000000CA
:1002C0009C6800200876002000000000C1E00408BF
:1002D00004760020160215003F0000008C2D00203F
:1002E0001076002000000000F95805080C76002068
:1002F0003400010010000000CC670020547600207C
:1003000000000000359C0208507600201102010018
:1003100008000000A46700206876002000000000AC
:10032000ECF30708647600201212010004000000BC
:100330009C6700207476002000000000F4F307089A
:10034000707600201830010038000000646700203B
:100350007C76002000000000F56305087876002018
:10036000000201000B000000E8630020B8760020C6
:1003700000000000255A0508B4760020FF21010086
:100380000500000094630020C876002000000000F3
:1003900021590508C4760020081203000F00000050
:1003A000A0630020D4760020000000002D5A05082C
:1003B000D0760020FA01010003000000005D00205B
:1003C000E8760020000000000D5A0508E4760020C1
:1003D0002A020100080000000C520020F0760020E4
:1003E00000000000F8F30708EC760020205201001E
:1003F0000800000068500020FC760020000000008B
:10040000599C0208F8760020061001002400000024
:10041000A82C00200877002000000000855905085E
:10042000047700200C02010004000000F8480020BE
:100430003077002000000000FD5905082C770020CF
:10044000FE01010014000000203B0020387700204E
:1004500000000000855A05083477002026100100AE
:100460000E00000020E6002010E600200000000042
:10047000CD1E01080CE600200B3001001A00000020
:10048000B8DC002064E600200000000000F407084B
:1004900060E600201F50010024000000E4DB002083
:1004A00084E60020000000001CF4070880E600201D
:1004B0000502010004000000A0DE0020ACE60020E0
:1004C0000000000040F40708A8E600200102010037
:1004D0000B000000A8EC002030F600200000000017
:1004E000155A05082CF60020020201000300000046
:1004F000A0EC002040F600200000000000000000FA
:100500003CF600201B020100100000008CEC0020D3
:1005100048F60020000000006159050844F600205C
:100520001B2001000C000000BCE900205CF600204C
:10053000000000006183010858F60020210201003C
:10054000F0000000F0E700206CF600200000000042
:10055000699B010868F60020371001003000000098
:1005600044EF002060F700200000000044F407087A
:100570005CF70020161001000600000048EC002087
:1005800094F700200000000074F4070890F70020A2
:100590002F1001002200000008F60020A0F7002024
:1005A000000000007AF407089CF7002023220100D5
:1005B0001000000084EB0020C8F7002000000000BD
:1005C0009CF40708C4F700201E0001000900000089
:1005D00070EB0020DCF7002000000000ACF40708FE
:1005E000D8F70020052001000C0000001CEC0020C2
:1005F000ECF7002000000000B8F40708E8F700203E
:10060000123001001000000058EB0020FCF7002021
:1006100000000000C4F40708F8F70020FD070100FF
:100620007C000000B4E6002010F80020000000006C
:10063000E57C01080CF80020F59101006C00000039
:1006400074E7002090F80020000000000D910108E0
:100650008CF800202320010010000000A6EE0020EE
:1006600000F90020000000001D0D0208FCF8002029
:10067000F62101000C0000001C160120B417012017
:1006800000000000D4F40708B01701201C0202008B
:100690001C000000AC15012008180120000000001B
:1006A000955E05080418012028300100160000009E
:1006B000C81501202818012000000000ED1A0208CA
:1006C000241801201400010005000000A4150120D9
:1006D0004418012000000000E0F407084018012041
:1006E000012001000C000000FC0E01205018012028
:1006F00000000000E6F407084C1801200C4006003A
:10070000E40000001C0D0120601801200000000022
:100710006DE303085C1801200A900100240000002A
:10072000D80C01204819012000000000D50C020857
:10073000441901200E300300BC010000140B0120FD
:100740007019012000000000719C02086C19012042
:10075000131001000400000034130120301B01209D
:1007600000000000F4F407082C1B01200101010027
:1007700004000000580A0120381B0120000000007E
:1007800000000000341B01200001010004000000F3
:10079000500A0120401B012000000000F8F4070867
:1007A0003C1B012002010100030000004C0A012053
:1007B000481B012000000000ADE30308441B01209A
:1007C000220201001C0100001C110120501B01200D
:1007D000000000009D6005084C1B01201500100062
:1007E00070000000EC270120982901200000000083
:1007F0000000000094290120030001000100000016
:10080000E42701200C2A0120000000000000000065
:10081000082A01202A000800600000002022012090
:10082000142A0120000000000D9C0208102A01205B
:100830002C00040010000000882A0120782A0120E2
:1008400000000000F5950208742A012029201400F8
:10085000780000005C2501209C2A01200000000097
:1008600000000000982A01201A0001000E0000007C
:10087000B4240120182B012000000000FCF407081C
:10088000142B01202B0012002400000090240120D2
:100890002C2B012000000000C9950208282B012004
:1008A000190201001000000080240120542B0120B7
:1008B0000000000031590508502B012025201E00A2
:1008C0002C010000D82F0120AC33012000000000D3
:1008D00000000000A8330120031201003D000000C9
:1008E00070320120DC340120000000000AF5070806
:1008F000D8340120F831010006000000782C0120D6
:10090000203501200000000048F507081C350120B3
:1009100010100100020000007C2F01202C35012066
:10092000000000004EF507082835012019000100DD
:1009300005000000F42B01203435012000000000E8
:1009400050F5070830350120020001000C000000BE
:100950003C3E0120543E0120000000000000000049
:10096000503E0120290201004000000064370120B0
:10097000643E01200000000056F50708603E01209B
:100980002C020100040000000C3E0120A83E0120C2
:100990000000000096F50708A43E01200A020100AD
:1009A00014000000B03C0120D03E012000000000F7
:1009B00039E30308CC3E01201A0201003C0000008C
:1009C000F04301203849012000000000E15D0508E6
:1009D0003449012038200100030000009C4101201F
:1009E00078490120000000009AF5070874490120A9
:1009F0000400080080000000F84A0120784B012024
:100A00000000000000000000F84B01202802040054
:100A100004000000B8490120004C01200000000043
:100A200081590508FC4B0120270204000400000046
:100A3000B4490120084C0120000000007559050848
:100A4000044C01201F02080010000000A4490120EE
:100A5000104C012000000000FD5805080C4C01203E
:100A60001D02020006000000B8540120E4540120D9
:100A70000000000000000000E05401200612030006
:100A800012000000C8540120706501200000000021
:100A9000615F05086C65012027000100040000006B
:100AA000084E012088650120000000009EF507081F
:100AB000846501200B2201003D0000003C880120DC
:100AC000C48E012000000000A4F50708C08E01209C
:100AD0000D12010014000000A08D0120088F0120DC
:100AE00000000000E4F50708048F01201E02010049
:100AF00006000000208C0120208F01200000000053
:100B0000F8F507081C8F0120100201000100000009
:100B10007CA0012078A0012000000000FEF507085D
:040B200074A001209C
:100B24000403090412010002EF0201408304563257
:100B3400000201020301000012010002020200404F
:100B4400830440570002010203010000FFFFFFFF7E
:100B54000000000000000000010000000000000090
:100B640000000000EC39002000000000010000003B
:100B74000000000000000000000000000000000071
:100B84000000000000000000000000000000000061
:100B94000000000000000000010000000000000050
:100BA40000600240106002400000000000000000ED
:100BB40000000000000B0000000000000000000026
:100BC40000000000006002402860024001000000B4
:100BD4000000000000000000060C000000000000FF
:100BE400000000000000000000600240406002407D
:100BF400020000000000000000000000100D0000D2
:100C0400000000000000000000000000006002403E
:100C140058600240030000000000000000000000D3
:100C2400160E00000000000000000000000000009C
:100C340000600240706002400400000000000000F8
:100C440000000000200F0000000000000000000071
:100C540000000000006002408860024005000000BF
:100C6400000000000000000026100000000000004A
:100C7400000000000000000000600240A06002408C
:100C84000600000000000000000000003011000019
:100C940000000000000000000000000000600240AE
:100CA400B8600240070000000000000000000000DF
:100CB400362F0000000000000000000000000000CB
:100CC40000640240106402400000000000000000C4
:100CD40000000000003800000000000000000000D8
:100CE400000000000064024028640240010000008B
:100CF40000000000000000000639000000000000B1
:100D04000000000000000000006402404064024053
:100D1400020000000000000000000000103A000083
:100D24000000000000000000000000000064024019
:100D340058640240030000000000000000000000AE
:100D4400163B00000000000000000000000000004E
:100D540000640240706402400400000000000000CF
:100D640000000000203C0000000000000000000023
:100D74000000000000640240886402400500000096
:100D840000000000000000002644000000000000F5
:100D9400000000000000000000640240A064024063
:100DA40006000000000000000000000030450000C4
:100DB4000000000000000000000000000064024089
:100DC400B8640240070000000000000000000000BA
:100DD4003646000000000000000000000000000093
:100DE4007D000000F1840008ED840008E984000817
:100DF400DD840008D9840008E5840008E184000843
:100E0400000000009D91000881A90008CD8F000812
:100E1400DDAA00086D920008758500084D8500085C
:100E240031850008F9A20008618800085D8A00087D
:100E340059900008D5900008919400086185000835
:100E44003985000829850008010000000000803F62
:100E5400793E01087D430108F53E0108F5120108B9
:100E6400D91401080513010821130108CD12010842
:100E7400BD1201080000000000000000090220006B
:100E8400010104C0320904000002080650050705E8
:100E940081024000000705010240000009026400CD
:100EA400030100C03209040000010300000009210D
:100EB400110100012236000705830309000A080B0B
:100EC40001020202010009040100010202010005FD
:100ED4002400100105240100020424020205240652
:100EE4000102070582030800FF09040200020A0048
:100EF40000000705010240000007058102400000D0
:100F040009024300020100C0320904000001020288
:100F1400010005240010010524010001042402023B
:100F24000524060001070582030800FF09040100E7
:100F3400020A0000000705010240000007058102C3
:100F440040000000FF000000140000FF000000004B
:100F540000000000AA550701000001AA5505010080
:100F6400002D202D2D202D2D2D2D202D2D2D2D002E
:100F7400000000000000000000000000000000006D
:100F84000800000080DE0608FF1FFF1F0501090599
:100F9400A101A100050109300931093209330935DC
:100FA4000934093609371581257F750895088102AA
:100FB4000509190129081500250195087501810203
:100FC400C0C0000009022200010100E0320904004F
:100FD400000103010200092111010001223600076A
:100FE40005830309000A0000000000000102030455
:100FF4000102030406070809AA550B010000AA55BB
:1010040005010000AA550902000000AA5503009F2B
:1010140001000000C0120000FFFFFFFF58E600209F
:101024000000000030E60020000000000100000085
:101034000100000000000100E0017EFFFFFFFFFF50
:10104400FF000000FFFFFFFF08FF0101FF01000098
:101054000100000009020208000000000000000076
:101064002CE506080000000000000000000000005D
:10107400D0FC060800000000000000000000000092
:1010840088FD0608000000000000000000000000C9
:1010940034FD060800000000000000007D0D020879
:1010A400F20F012001010000F122020800000000FB
:1010B4000000000050FE060851260208000000004F
:1010C4000000000008FE06082D202D2D202D2D2DBA
:1010D4002D202D2D2D000000000000000000000038
:1010E4000000000000000000FFFFFFFFB51202082F
:1010F400000000000000000060FC06080100000081
:10110400FA000000010000000100000001010000DD
:101114000001010100000000620E01200000F40142
:1011240001000000600E01200000F4010100000035
:101134005E0E01200000F401010000005C0E01209D
:101144000000F401010000005A0E01200000F40127
:1011540001000000580E01200000F401010000000D
:10116400560E01200000F40101000000B50A020837
:10117400790A020800000000F4E60608460E012081
:1011840005320100540E01206400F4010100000046
:10119400520E01206400C40901000000440E012025
:1011A400E803D00701000000420E0120E803D00745
:1011B40001000000400E0120E803D00701000000F8
:1011C4003E0E01201E00B80B010000004C0E012051
:1011D40005000F00010000004E0E012003000A006C
:1011E400010000003C0E01201E00F401010000007B
:1011F400500E01200200000080E706083A0E01208C
:101204001400640001000000480E01203200E803CD
:1012140001000000380E01200000C8000100000099
:10122400190D012000C80100180D01200050010013
:10123400170D0120005A0100150D012002000000C5
:10124400E8E60608146A07081C6A0708F00F01207C
:101254000100C40900000000EE0F01200100C409D0
:1012640000000000EC0F01200100C4090000000090
:10127400EA0F01200100C40900000000E60F01206C
:101284000100C40900000000E80F01200100C409A6
:1012940000000000E40F01200100C4090000000068
:1012A400E20F01200100C40900000000770A0120B8
:1012B40000C80100760A012000C80100740A012058
:1012C4000000FFFF0A000000720A01200100C800AC
:1012D40001000000700A0120320030753200000065
:1012E4006E0A01207EFF1400050000006C0A012034
:1012F40005002C01050000006B0A0120055A0500B9
:10130400680A012000FF01006A0A012002000000AF
:10131400BC080020660A01200300000038E006082B
:10132400670A012000FF0100690A01200200000091
:10133400BC080020650A01200300000038E006080C
:10134400C4090120FF7F0100C00901200000000042
:10135400FFFFFFFF01000000BC09012000000000A6
:10136400FFFFFFFF01000000B8090120000000009A
:10137400FFFFFFFF01000000090A020899090208A3
:1013840000000000D0E706080C0F0120EE02CA0896
:10139400010000000A0F012000C8010064000000E1
:1013A400090F012002C8010064000000080F012099
:1013B400020000008CE706085E0A01200000803E5F
:1013C400050000005C0A012080C1803E0500000089
:1013D400560A01200083007D05000000540A012004
:1013E40080C1803E050000004F0A012000FF01007B
:1013F400480A01206400F40101000000460A0120AB
:101404006400F40101000000440A01206400F401B6
:1014140001000000420A012004000000DCE8060884
:10142400410A012002000000F0E80608030B012035
:101434000D000000FCE80608000B01200064010018
:10144400FE0A0120320010270A000000FC0A0120D5
:101454000D000000FCE80608FB0A01200D00000056
:10146400FCE80608FA0A01200200000098E70608D2
:1014740000000000000000000000000034E906083D
:10148400110F0120460000006CE906080F0F01202F
:101494000300000088EA0608100F01200400000081
:1014A400A4E70608050B01200300000098EA0608DB
:1014B400040B01200300000098EA0608060D012031
:1014C400000A0100040D01200000E80301000000EF
:1014D400020D01200000E80301000000000D0120BE
:1014E400000A0100FE0C01200000E80301000000D6
:1014F400FC0C01200000E80301000000D00C0120D6
:10150400C800E80301000000D60C01201400FA0012
:1015140001000000D40C01200100E80301000000D8
:10152400D20C012000050100140D0120020000006E
:10153400B8E70608120D01200000F40101000000C4
:10154400100D01200000F401010000000E0D012027
:101554000000F401010000000C0D01200000F40162
:10156400010000000A0D01200000E8030100000052
:10157400080D01200000E80301000000260E0120F0
:10158400006401000A000000250E0120006401002F
:101594000A000000130E012019640100120E01203C
:1015A40002000000C4E70608100E0120E803D0077B
:1015B4000A0000000E0E0120006401000A00000071
:1015C400030E012000640100020E012000640100EA
:1015D4000A0E0120006401000A000000090E012027
:1015E400006401000A000000080E012000640100EC
:1015F4000A0000000D0E012000FF01000A00000097
:101604000C0E012000FF01000A0000000B0E012057
:1016140000FF01000A000000070E012001FF010085
:101624000A000000060E012001FF01000A0000006C
:10163400050E012001FF01000A0000000E0B01202D
:101644000000F401010000000C0B01200000E8037D
:10165400010000000A0B01200000E8030100000063
:10166400080B01200000E80301000000060B012024
:101674000000E8030100000043100120009601006F
:101684003A10012000C80100391001200064010053
:1016940038100120006401003710012000640100AB
:1016A400361001200064010035100120FF080100FC
:1016B4003410012001640100890802084D08020861
:1016C40000000000A8EA06083D10012001320100D4
:1016D4003C1001200100000018EB06083B1001201B
:1016E4000400000020EB06083310012000960100DE
:1016F4003210012000640100301001201400E803BE
:10170400010000002E100120000030750A000000C6
:101714002C10012000C801002B10012000C801007A
:101724002A10012000C801004010012000320100ED
:10173400421001200014010041100120005F01004B
:101744003F1001200400000034EB06083E10012085
:10175400006401000A000000320E01200AC80500DE
:101764000A000000310E01200100000044EB0608CD
:10177400340E01200AC805000A000000330E0120BF
:101784000100000044EB0608290E012000C80500F2
:101794000A000000300E012000C805000A00000005
:1017A4002A0E012000C805000A0000002B0E0120AB
:1017B40000C805000A0000002E0E012000C8050024
:1017C4000A0000002F0E012000C805000A000000D6
:1017D4002D0E012000C805000A0000002C0E012077
:1017E40000C805000A000000280E012002000000C5
:1017F4004CEB0608521001200000D0070100000045
:101804004C10012000C801004B10012000C8010049
:101814004A10012000C80100501001200000D00728
:10182400010000004910012000C8010048100120F7
:1018340000C801004710012000C801004E1001201B
:101844000000D007010000004610012000C801007C
:101854004510012000C801004410012000C8010007
:10186400507B0708000000000000941701205C7BF7
:101874000708070800000000D00E0020647B07085A
:10188400070800000000C80E00206C7B070807084A
:1018940000000000C00E0020747B07080808000048
:1018A4000000B40E0020606507080708000000006F
:1018B400AC0E002068650708070800000000A40EAD
:1018C4000020706507080708000000009C0E002037
:1018D4001C660708080800000000900E00207C7BAE
:1018E4000708071000000000880E0020847B07080A
:1018F400071000000000800E00208C7B07080710F2
:1019040000000000780E0020947B070808100000F7
:1019140000006C0E00207C69070801000000000034
:1019240000000000000000001000000000000000A3
:10193400000000001D0602080106020891120208B8
:1019440058EB0608F70A0120005A0100F60A0120A4
:1019540000C80100F40A0120E803D00701000000D8
:101964000000000000000000BD0D0208F4EB0608B2
:10197400640A01200300000048EC0608630A012001
:1019840000030100620A0120000301003D05020872
:10199400F10402080000000058EC0608B104020833
:1019A4006904020800000000F4EC06088905020836
:1019B400751202080000000074ED0608600A012098
:1019C40001030100D5010208B5010208000000006E
:1019D400E8F00608910B0208650B020800000000FD
:1019E40068F10608D9030208810302080000000018
:1019F400D8F106082D060208552E02080000000042
:101A040090F20608FD170208BD0B02080000000052
:101A140038F306087D0602080000000000000000FC
:101A2400D4F3060861070208010702080000000059
:101A340038F4060809080208C50702080000000077
:101A4400F0F40608E9740208C50802080000000062
:101A54007CF50608360E012001060100C5060208C1
:101A6400910602080000000094F6060805740208B6
:101A74003D1402080000000004F70608F5080208F7
:101A84005D1502080000000080F806082D750208A4
:101A94001D15020800000000D80E0020350E01209C
:101AA40001030100D1050208A1050208000000009D
:101AB4008CF906081512020800000000000000005E
:101AC400F0F90608310402085D1202080000000063
:101AD4008CFA06080000000000000000000000006E
:101AE40028FB060871090208A91602080000000074
:101AF400A8FB060800000000000000000000000031
:101B0400D0FD060878DC00209CFF2C0100000000BA
:101B1400CC120120E0150C1700000000CE120120A9
:101B240002000000080107083C0A012088136F170F
:101B3400010000003E0A012088136F170000000016
:101B44004C74002000000000000000004A740020D3
:101B540000000000000000004874002000000000A5
:101B64000000000046740020000000000000000097
:101B740044740020000000000000000042740020B3
:101B840000000000000000008C060020000000009F
:101B940000000000C509012003000000ECFE060857
:101BA400340A012088136F170100000096DE00201C
:101BB40088136F1700000000C10202080000000033
:101BC40000000000FCFE0608AD0F0120010000002B
:101BD40050FF060898DE0020010000005CFF0608A4
:101BE4008EDE00200200000064FF060800000000F2
:101BF400000000000000000070FF0608A9020208AF
:101C040000000000000000000C00070800000000B5
:101C14000000000000000000600007080000000051
:101C24000000000000000000D0000708400A012066
:101C3400020000000801070892DE0020E0150C17DE
:101C440000000000E01D0120341E012001F11F3FAF
:101C5400D601FF004CA70020FFFFFFFF0000803FDC
:101C64000000000000000000000000000000000070
:101C74000000000000000000000000000000000060
:101C8400000000000000803F000000000000000091
:101C9400000000000000803F000000000000000081
:101CA400000000000000803F000000000000000071
:101CB40000000000010000000000FA430000FA43A5
:101CC4000000803FFFFFFFFFFF000000BDAE0408DF
:101CD4000000000000000000000000000000000000
:101CE400BC3E01200800000000000000AC3E0120C2
:101CF400080000003D4D0408000000000000000042
:101D04000000000075DE0408000000000000000070
:101D14000000000001000000A00F0000B80B00004C
:101D240002FFFF01685E0C0002000000D13D0108C3
:101D3400E9130108693D010800000000B912010817
:101D440051460108B93C01080D39010800000000A2
:101D5400000000007912010801850008F5840008DC
:101D6400598F0008758F00083D8F0008218F0008E7
:101D7400058F0008893D0108C5130108BD3C010811
:101D84000000000091120108113901088D3C01087E
:101D940079380108000000000000000085120108E5
:101DA400909C0708BC6607080000000035E403089F
:101DB400A086010004000000909C0708989C070876
:101DC4000000000055890408E80300000400000036
:101DD400287007080000000000000000013B030811
:101DE4007D000000FF0000002C6E070800000000CA
:101DF40000000000B1BF03087D000000FF000000E8
:101E04005873070800000000000000000D5C030880
:101E14007D000000FF000000C07007080000000003
:101E240000000000F1AE0408E80300000300000015
:101E3400A09C07080000000000000000B93E030851
:101E4400102700000300000008E10708000000005C
:101E540039940208BDB804085F760000050000004C
:101E6400BCE407080000000000000000F1DB0408E7
:101E74001027000002000000AC9C070800000000CE
:101E840000000000C94C0408E8030000050000003D
:101E9400B89C070800000000000000000DEC0308D7
:101EA400204E000003000000C89C0708000000004A
:101EB40000000000F5E90308204E000003000000C4
:101EC400D89C0708000000000000000091B404083A
:101ED400400D0300030000008C8D07080000000083
:101EE4000000000039AC04081027000002000000C4
:101EF400E86607080000000000000000E1E60108B1
:101F04001027000003000000E89C07080000000000
:101F14000000000035840408A086010002000000CF
:101F2400D46E070800000000000000003187040898
:101F340050C30000020000007C6C07080000000091
:101F4400000000007D7F0408A8610000020000007A
:101F5400A88D070800000000000000008D4D040853
:101F6400A00F000002000000F09C07080000000021
:101F74000000000019D00108102700000200000032
:101F8400787D070800000000997C01086DC30108F2
:101F940085450100020000003C6C070800000000B9
:101FA40000000000291A01081027000002000000A8
:101FB400D06607080000000000000000493702084E
:101FC40050C3000002000000FC9C07080000000051
:101FD4000000000025260108400D03000100000058
:101FE400049D07080000000000000000854C040860
:101FF400400D0300020000000C9D070800000000D3
:1020040000000000C5F6010850C3000003000000F2
:10201400189D07080000000000000000CD0504081A
:1020240040420F0001000000249D0708000000004A
:1020340000000000654D040850C3000001000000CA
:10204400309D070800000000000000006D690108D1
:102054001027000002000000FFFF0000FFFFFFFF49
:10206400E4E0070800000802050303000000000084
:10207400F0E0070801000802050403000000000066
:10208400FCE007080000080205030300000000004C
:1020940004E1070801000802050403000000000031
:1020A400DC8C07080200FE010110030000000000A0
:1020B400706D070803001402000300000000000014
:1020C4000CE1070804001F020200080000000000E1
:1020D40014E1070805001F020201080000000000C7
:1020E4001A030000000000000000000000000000CF
:1020F40000000000000000000000000004030904C8
:102104001201000200000040830420570002010273
:1021140003010100456A0508196A0508BD69050837
:10212400CD5A0508D96905087D690508C95A050805
:1021340040190020396B050859610508296B050809
:10214400AD5A0508E56A05089D6A05089D5A050803
:102154001C19002051640508B55A0508B15A050830
:10216400A95A0508A1640508A55A0508A15A050835
:1021740050550708ED450108A5130108CD44010891
:102184000000000000000000653C0108753B0108E8
:102194000000000000000000000000006D120108B3
:1021A400555B0508495B0508916B0508AD6B05088F
:1021B400015B0508756B0508596B050802000000F2
:1021C4000000000018190020DC5401200200000067
:1021D40001000000BD5C0508141900200000000087
:1021E4000100000001000000F95C0508341800201B
:1021F40000000000000000000000000000000000DB
:1022040000000000000000000000000001000000C9
:1022140000000000000000000000000000000000BA
:1022240001000000000000000000000000000000A9
:10223400000000000100000000000000D8000000C1
:10224400000000000500000006000000FFFFFFFF83
:10225400030000000000000005000000050000006D
:102264001F0000001C0000001F0000001E000000F2
:102274001F0000001E0000001F0000001F000000DF
:102284001E0000001F0000001E0000001F000000D0
:102294000068214C01000000745507080600000086
:1022A40005000000008002021F00000053544D206E
:1022B4002020202050726F6475742020202020205C
:1022C40020202020302E3031008002021F00000028
:1022D40053544D202020202050726F6475742020A8
:1022E4002020202020202020302E30310B0101011D
:1022F4000100000050C300000101FF01250000009F
:10230400AC590708000000000000000000000000B5
:1023140001000000000000000000000000000000B8
:10232400000000000100000000000000F4010000B3
:102334002AFF0000A40000000000000000000000CC
:10234400000004010000020001000002100000006F
:102354000700000000000000000000000102030468
:1023640006070809C70000000500000006FF00007A
:10237400EC19002000000000000000000000000034
:102384000000000000000000000000000000000049
:102394000000000000000000000000000000000039
:1023A4000000000000000000000000000000000029
:1023B4000000000000000000000000000000000019
:1023C4000000000000000000000000000000000009
:0423D4000000000005
:08280000082800080040000850
:10800000134B0268196821EA02011960596821EAD4
:108010000201596019680A431A609968026821EAE6
:1080200002019960D96821EA0201D96041791029D9
:1080300007D001F1804303F59E3319680A431A60A3
:108040007047996811439960D9680A43DA607047AC
:10805000003C0140024B9A6D136A002BFCD1704723
:10806000501A0020F0B401292D4C2E4D4FF000067F
:1080700094BF00230123EE62C4F81861C4F81C61A8
:10808000C4F82831D4F82871D4F8F43047EA42070C
:10809000C4F82871EE63EC6B002A38D144F495746F
:1080A000EC631C6824F001041C601C68E407FCD429
:1080B000490289085960D8601968EAB921F040017D
:1080C000196019498B421DD018494FF47410C860CB
:1080D000196841F01E011960596941F08001596128
:1080E000196841F00101196022B90E4AD36A43F0C0
:1080F0000803D362F0BC704741F0400119600A499F
:108100008B42E1D14FF0746041F8500CE0E744F04D
:108110001A04EC63EC6A44F00804EC62C1E700BFA7
:10812000501A0020002C01405864024000640240B4
:108130001248002302461178032902F1060218D0E2
:108140000133062BF7D10E4AD2F85031052B0FD050
:10815000591C03EB4303C2F8501100EB4303032007
:1081600040F2EB3140F2FF32187059809A8070472C
:10817000704703EB430300EB4303F0E77C1B002055
:10818000501A002030B51349134B8DB00825012239
:1081900001F15800069381F8F05000230DEB050122
:1081A0000DF10704CDE90733CDE9034202938DF8C1
:1081B000143009930B938DF8282049F073FDFFF7D5
:1081C00049FF9DF80700A0F1FF00B0FA80F04009D8
:1081D0000DB030BD501A0020DD810008826D136A99
:1081E0005B681B78FF2B08D090F8F030013BDBB2C6
:1081F00080F8F0301BB10120704700207047126AF0
:10820000526802201370704770B4C3080D4CE25CD2
:1082100000F00706B24004EBD004D2B20020C6F151
:1082200008038B4228BF0B46C3F108052A4198403A
:10823000C91A40EA02004FF0000614F8012FEED1EF
:1082400070BC7047901A0020084AD2E95531994213
:108250000AD0D118013391F85C110170C3F30A03FD
:10826000C2F854310120704700207047501A002096
:10827000044BD3E95530C01AC0F30A00C0F50060C2
:10828000704700BF501A0020012380F8513070471A
:1082900007B501A8FFF7D8FF0028FAD09DF8040021
:1082A00003B05DF804FB034BD3E95530C01AC0F3AB
:1082B0000A007047501A002001207047024BC3F893
:1082C0005C29C3F860197047501A0020024BC3F8AC
:1082D0006429C3F868197047501A00207047704726
:1082E00030B4114DD5E955239A1AC2F30A020A4453
:1082F000B2F5006F13D8A9B101444A1E013810F835
:10830000014FE918824203F1010381F85C41C3F394
:108310000A03F4D1C5F85831002030BC7047022060
:1083200030BC70470846F8E7501A002070B5144C6E
:1083300094F86C39002BFBD1F9B101444E1E451E57
:1083400002E0012048F02EF9D4F87039D4F87429ED
:108350000133C3F30A039342F3D0D4F87029D4F85D
:10836000703915F8011F22440133C3F30A03B542E3
:1083700082F87819C4F87039E6D1002070BD00BFCA
:10838000501A002010B5094CD4F880300846114628
:108390005BB1D4F88030052B07D1002AD4F88430A3
:1083A00003DDFFF7C3FFD4F8843010BD482B002055
:1083B00010B590F85010002380F8503081B10B4C6C
:1083C000D4F8802072B1D4F88020052A0CD13C303A
:1083D000D4F88430FFF7AAFFD4F88430012010BD10
:1083E0000120FCE71046FAE71846F8E7482B002082
:1083F000002280F85120DBE790F85020531C024403
:10840000DBB280F8503082F83C1090F851200AB16D
:10841000132B00D9CCE77047212838B50C4605D07E
:1084200022282FD0202813D0002038BD0029FBD0CF
:10843000072AF9D11A4BD3F8880093F88C1093F8D7
:108440008D2093F88E30206021716271A371EBE76B
:108450000029E9D0072AE7D1124AD2F860391BB1C6
:10846000D2F85C09096898470D4B25682079617935
:10847000A279C3F8885083F88C0083F88D1083F8B4
:108480008E20D1E70029CFD0022ACDD1054AD2F8DB
:108490006839002BC8D00988D2F864099847C3E727
:1084A000482B0020501A0020024B0020C3F8800007
:1084B000704700BF482B0020054B064A00200521CD
:1084C000C2F88010C3F86809C3F86009704700BF9C
:1084D000501A0020482B0020704700BF704700BF93
:1084E000704700BF704700BF704700BF704700BFB4
:1084F000704700BF042301480B807047980100209B
:1085000010B4074A074B92F89000122403F11402AA
:108510000C8001280CBF184610465DF8044B7047CC
:10852000482B00209C01002000487047781A00204A
:1085300000487047781A0020034B93F82400032862
:1085400094BF002001207047501A0020034B93F87D
:108550002400032894BF002001207047501A0020F7
:10856000034B93F82400003818BF0120704700BF68
:10857000501A0020034B93F82400003818BF012044
:10858000704700BF501A0020A0B182680D4B12B195
:1085900007229A7070471978DA6003294FF00400B7
:1085A0000CBF80214FF48071C3E901111A611A7563
:1085B00098707047034B41F2E47101225A545A708B
:1085C000704700BFFCBD00200378022B10D000696B
:1085D00008B9012070470C4B1B78032B0EBF0B4BC7
:1085E00080B24FF6F773984294BF00200120704785
:1085F0000549436841F650028A58B3EB422F2CBF1D
:1086000001200020704700BFFCBD0020F7FFFF0FD6
:108610000378022B14D030B4104A4368006941F645
:10862000480402F5C2511559096841F63C042B4033
:1086300012595B0A023801FB0030104430BC70470D
:10864000064B426841F6340141F63000595818583B
:1086500000EB410000EB5220704700BFFCBD002042
:1086600070B592B00B0E0D0C40F0400695220446FA
:108670008DF80810080A01A98DF805308DF806500C
:10868000002306258DF807008DF809200DF1030061
:108690000122039114498DF80460CDE90733CDE937
:1086A0000D33CDE9090204938DF818308DF82C3084
:1086B0000F93119305958DF840200C91FFF762FD03
:1086C00000B974B9094B082203F1580003A983F8D3
:1086D000F02049F0E7FAFFF7BDFC9DF8030012B067
:1086E00070BDFF2012B070BDF1860008501A002046
:1086F000836D1B6A5B681B78FF2B0AD190F8F03002
:10870000002B03F1FF3380F8F03014BF012002206A
:1087100070470020704700BF30B51049104B8DB036
:108720000546012201F15800069381F8F05000231C
:1087300002A90DF10704CDE90733CDE90342029305
:108740008DF8143009930B938DF8282049F0AAFA7C
:10875000FFF780FC9DF807000DB030BD501A0020D7
:10876000F186000870B51C4E90B00024FD22012552
:108770000DF1030306F1580001A98DF803200693BB
:10878000CDE90144CDE90A44CDE90C4434628DF8C9
:108790001040059407948DF824400F940395089594
:1087A0008DF8385049F07EFAFFF754FC2846FFF761
:1087B000B3FFFF2809D0094BD3F8843073612046FA
:1087C000092386F8243010B070BD0423022086F8F7
:1087D000243010B070BD00BF501A0020482B00207C
:1087E00070B5064690B008200D46FFF795FFFF28AC
:1087F00022D0FE2802D0022010B070BD0024022238
:1088000001230F48089201A98DF83830CDE90544BD
:10881000CDE90A44CDE90C440296039501948DF804
:10882000104007948DF824400F9449F03BFAFFF76D
:1088300011FC204610B070BD012010B070BD00BF0B
:10884000A81A002008B5FFF705FC0A2047F08CFDA8
:10885000024B186EBDE8084048F08ABE501A00204E
:10886000F0B50379274C002B14BF012200228BB0F6
:1088700084F8502003D184F824300BB0F0BD0546B5
:1088800090F9001004F1580049F082FBAD7865BB07
:1088900001271D482566C4F8EC4084F8647049F04F
:1088A000ADFB1A4E03464FF47A70A4F85C3047F0E3
:1088B00079FE206E48F05CFE0FCE6D460FC50FCEE0
:1088C0000FC596E8030085E803001148694649F0A2
:1088D000E9F9FFF7BFFB0F4B84F82470D3F884301D
:1088E0006361002323760BB0F0BD284648F056FBA9
:1088F000054608B11E23C3800921284647F004F924
:10890000C6E700BF501A0020801A06003CDB0608AC
:10891000A81A0020482B00202DE9F84F494B984217
:108920000ED003F56853083398424ED0464B0020D2
:10893000C3E94000A3F8FC00A3F80801BDE8F88FE4
:10894000414C424FDFF810810223C4F8943004F107
:1089500098060025FB6AAB42294605F1010503D0C4
:10896000D4F8180153F086FD94F81C31D4F818217E
:1089700086F8243032623046414653F08FFFD4F8F7
:1089800094309D4206F13006E4DB002384F80A317E
:10899000D4E92803D4F89410B4F89C20B4F8A85073
:1089A000C4F8283112FB01F203FB01F3A4F8FC2008
:1089B000B4F89E10264AA4F80851C4E94003A4F86C
:1089C000FE10C4F8F8200120B8E71F4C1F4F022307
:1089D000C4F8943004F198054FF0000B4FF4806A0E
:1089E0004FF040094FF40068FA6A01265A4559468B
:1089F000B34403D0D4F8180153F03CFDD4F8181157
:108A000094F81C21296285F824204FF400314FF09E
:108A10000062C5E90212A5F804A0A5F81090A5F817
:108A20000680AE74FFF784FB28466E7653F082FE14
:108A3000D4F89420074B45F8303B9345D4DB84F8B9
:108A40000A61A5E71971EF00482B0020980100206A
:108A500090DB060864DB06081940EF002DE9F843B7
:108A6000194C94F82460042E0546894690461F460A
:108A700008D0082E02D00020BDE8F883FFF772FE70
:108A80000228F8D1206E48F06DFDA37E9BB96902E3
:108A90001120FFF7E5FDA0B90C4BC4F80090D3F806
:108AA000842065600523C4E90387626184F824306B
:108AB0000120BDE8F88329461120FFF7D1FD0028E9
:108AC000EAD0FFF7BFFED6E7501A0020482B00205F
:108AD0002DE9F04FCF4ED04D86468C4617460FCE2F
:108AE00005F596742DED068B0FC40FCE0FC496E8D6
:108AF000070089B095F86231039784E80700CDE953
:108B000004EC042B00F24881DFE813F0B4014601C5
:108B100041010500C4019FEDC18ADFEDC18AC14951
:108B2000C5F84811C049C14BC14AC5F84411039961
:108B3000002918BF134638EE887AF5EE006AC6EEB3
:108B4000879ABC4EC5F85031A6F1120B06F1C00849
:108B50000027DFEDB97A9FEDB99A28EE278AB0EEAB
:108B600067AA059BBB4200F00C811BF8013BEA1889
:108B700092F86741002C00F01481002202E0152ACF
:108B800000F00F8102EB42014FEA420918F80100A0
:108B9000A04202F10102F2D1294491F845120029C4
:108BA00000F066812046029344F044FF029B824617
:108BB0005046029344F05EFF0178002940F0F180B6
:108BC000029BA9440133DBB2032289F8853289F87C
:108BD0008422BAF1000F00F0E4804FEA141909F181
:108BE000FF39B9F1040F04F00F0000F20881944C32
:108BF00004EB4901B1F8ACC04CFA00F111F00101ED
:108C000000F0FD80012101FA00F0013800EA0C00BB
:108C1000A144029362F048FC99F8B8C0DFF838E24A
:108C2000029B60440EEBC00C03228CF807308CF8DA
:108C300006205EF83000C6F814C000F13F4303F58B
:108C40007E0304EB9324012194F8C0309AF80820A5
:108C500003F01F045B09032B01FA04F100F0038108
:108C6000042B00F0FB80022B00F0CF80BCF8043016
:108C70000693B3FA83F3C3F11F03C3F3CC0100EBF4
:108C8000810103F007030C6A9B004FF00F0C0CFAF4
:108C900003FC24EA0C040C620C6A02FA03F323437B
:108CA0000B62022306A907930BF0E2FF039B002B44
:108CB00000F08380B5F86031D5F8301507EE903AB2
:108CC000F8EEE77AFCEEE77A17EE900AB1FBF0F2E5
:108CD00002F57F42FF32120CB1FBF2F295F86211FD
:108CE000B2FBF0F0042983B27ED007EE902AF8EEB2
:108CF000676A66EE887A29EE677A95F863010499C7
:108D00000091A8EEA67A019051463046C6ED027A4F
:108D100086ED037A37F006F8002F72DD7368D5F818
:108D2000882193426FD0012F6BD0D5F8A0219342B8
:108D300069D0022F65D0D5F8B821934263D0032FB4
:108D40005FD0D5F8D02193425DD0042F59D0D5F80B
:108D5000E821934257D0052F53D0D5F800229342F3
:108D600051D0062F4DD0D5F81822D31A18BF0123A1
:108D700001370122082F3374727406F118067FF44C
:108D8000F0AE304809B0BDEC068BBDE8F08F9FED2A
:108D90002E8AF0EE488AC2E69FED2C8AF0EE488AD1
:108DA000BDE62B4A224BC5F848210020C5F85031BA
:108DB00009B0BDEC068BBDE8F08FB0EE690A63F038
:108DC000D9FAFCEEC07A4FF6FF7317EE902AD5F869
:108DD0003015B1FBF2F21A44120CB1FBF2F295F825
:108DE00062110429184680D107EE900A07EE102A76
:108DF000F8EE677AF8EE476A67EE8A7A7BE7716188
:108E000054E70123B4E70023B2E7124B5C6C214323
:108E100059642BE7BCDB0608482B0020ACC5A737FC
:108E2000ACC5A736C9E9030889E00408BDE003081A
:108E30007DE00408CC2C00206F12833A00007A44B5
:108E40003CDB0608742C0020282930386F120339C7
:108E50000DE2030800380240F82D00200F4B1C6B78
:108E60002143196302E70D4B1C6C21431964FDE695
:108E70008A469DE69FED0A8A0A4A0B4BC5F84821AF
:108E8000C5F8443100220123CDE90332F0EE488ACF
:108E9000064B50E69FED068AEEE700BF0038024021
:108EA0006F12833AC9E9030889E004087DE00408E9
:108EB00000000000F8B5104ED6F8304505460068B1
:108EC0000F4664080BF0D8FDB4FBF7F1B1F5803F15
:108ED00003D3012CFAD96408F6E72246284689B262
:108EE00044F046FC054BC6F8983D28460449BDE8C9
:108EF000F840002244F04ABB482B0020A927020872
:108F0000E038002010B5044C04480A4621460AF017
:108F100037FC204610BD00BFE8380020C85D0708B8
:108F200010B5044C04480A4621460AF029FC2046A4
:108F300010BD00BFE8380020D85D070810B5044C0C
:108F400004480A4621460AF01BFC204610BD00BF1B
:108F5000E8380020E45D070810B5044C04480A46D0
:108F600021460AF00DFC204610BD00BFE838002065
:108F7000F05D070810B5044C04480A4621460AF083
:108F8000FFFB204610BD00BFE8380020FC5D07084D
:108F900010B50C4C94F8F2200023236212B10A4A57
:108FA000C2F8A03E5CF0C6F820B10423022084F889
:108FB000243010BD044BD3F884306361092384F856
:108FC000243010BD501A0020482B002070B50D4DE4
:108FD00095F82430042B04460E460AD0082B06D1FF
:108FE000EB6983420CD0FFF7D3FF022801D00120A8
:108FF00070BD0823C5E9074685F82430022070BDFE
:10900000022070BD501A002010B50AF08DFB0F4CE5
:1090100048B194F82430032B11D8237E0133DBB2FE
:10902000072B237603D9002384F8243010BD084A87
:109030000123D2F88420626184F8243010BD0548F1
:1090400048F0DCFFA4F85C00E7E700BF501A0020FE
:10905000482B0020801A060070B51D4C94F824306F
:10906000042B06460D4608D0082B20D1E369834225
:109070002BD0FFF777FB022819D1206E48F072FA47
:1090800000213720FFF7ECFA29461720FFF7E8FA0E
:10909000A8B9A37E6BB971021920FFF7E1FA70B984
:1090A0000823C4E9076584F82430022070BD01203C
:1090B00070BD31461920FFF7D3FA0028F0D0FFF732
:1090C000C1FBFFF7A1FF032070BD022070BD00BFF0
:1090D000501A00202DE9F0412B4C054688461746D2
:1090E0001E4694F82400042834D0082806D1E369E9
:1090F000AB4206D0FFF736FB0228F2D00120BDE8D4
:10910000F0814FF0FC0CA26D2048117B204B80F8C1
:10911000A4CEC3F8588051B1526942B194F8E0200E
:10912000002A0CBF4FF480724FF4007201E04FF43C
:1091300080721A661749184848F0B4FD01220623C8
:10914000C4E90085C4E90376227284F82430002043
:10915000BDE8F081206E48F005FAA37E5BB9690294
:109160001820FFF77DFA40B994F82430082BC8D0B6
:109170004FF0FE0CC7E72946F2E7FFF763FBFFF766
:1091800043FF0320BBE700BF501A0020482B0020FC
:1091900098010020C8010020A81A002070B50379AA
:1091A000204C002B14BF0123002384F8503003D13E
:1091B000002384F8243070BD1B4D002195F9AB2E9F
:1091C000032047F0A9FD0028F2D04668304647F05A
:1091D00091FD84F8F1000028EAD095F8A93E003B03
:1091E00018BF0123304684F8F2305CF0FDFE0AF02F
:1091F0009BFA28B9237E84F824000133237670BDBE
:109200005CF082F830B1237E00220133237684F8AB
:10921000242070BDD5F8843063610123207684F862
:10922000243070BD501A0020482B002010B55CF08F
:109230006BF848B10B4C237E0133DBB2072B23764E
:1092400003D9002384F8243010BD0AF06DFA0028F9
:10925000F7D0054A0123D2F88420626184F82430D3
:1092600010BD00BF501A0020482B00202DE9F0410E
:10927000844C94F85050002D00F0F28094F8242093
:10928000814E0227531E082B3FD8DFE803F0353705
:109290009C3E694F153E05005BF04CFF002840F0F6
:1092A000E6806369D6F88420FA3393422AD2FFF726
:1092B000BDFF94F82420E5E75BF03CFF0028F0D0E8
:1092C000236A0022012B227640F2D580E16994F8CE
:1092D000F200013B0131C4E9071310B16A4BC3F836
:1092E000A02E082284F82420A2F10805B5FA85F5FD
:1092F0006D092846BDE8F08184F824705BF01AFF00
:10930000002844D194F82420531EDBB2022B0AD843
:109310005D4B6169D3F884305B1AC82BE4D9FFF741
:1093200085FF94F82420042ADED1E2E7D4F8243122
:10933000002BD9D1544BE668D3F8843063610722FF
:1093400084F82420002ECFD0D4E900212369012005
:10935000B047D7E76369D6F8841064338B42C3D231
:10936000D4F82081B8F1000FF4D15BF0E3FE0028BF
:109370009FD0E66884F81880042384F82430002EF7
:1093800073D0D4E9002123694046B047BAE75BF0C7
:1093900077FB0028B6D196F8AD3E002BA3F102036F
:1093A000B3FA83F314BF022201225B096276A3762B
:1093B0005BF066FB00287FF47AAF344A0323926C9B
:1093C000A26284F824305BF05BFB00289AD12E4B1C
:1093D000206293F8DC6EB3F8DE0ED3F8E0EED3F83B
:1093E000E0CED3F8E07ED3F8E02E84F82E6093F838
:1093F000E41EA08593F8E56E84F8322093F8E50E1C
:10940000D3F8E82E6263B3F8EE8EB3F8EE2E84F84C
:109410003310B3F8EE1EC2F30B1343EA182303F024
:109420000F0301F00F024FEA1E6E4FEA1C4C3F0A79
:10943000360900F00F0003F5FA63042184F83900BF
:1094400084F82FE084F830C084F8317084F83860F4
:10945000638784F83C2084F824102846BDE8F08116
:1094600084F824502846BDE8F081054641E70423EE
:1094700084F824303DE7FAD1FFF78AFD94F82420E0
:10948000531E42E7501A0020482B0020F8390020D4
:109490002DE9F04FC64C94F8506095B0002E00F0C6
:1094A000818194F82420C34F04F1580804F1400945
:1094B000531E082B00F29680DFE813F034005A00A8
:1094C000200194008300A500190094000900FEF714
:1094D00059FE002840F01B826369D7F88420FA33D4
:1094E00093427CD2FFF790FD94F82420E0E7FEF74A
:1094F00049FE0028F0D0236A0022012B227640F298
:109500001C82E269013B511CC4E90713082284F85C
:109510002420A2F10806B6FA86F67609304615B080
:10952000BDE8F08F206E48F01DF800210846FFF7D7
:1095300097F80546FFF786F9012D50D1206E4FF0C0
:10954000000A84F819A048F00DF840F2AB11082089
:10955000FFF786F8052800F07A81012800F04281A3
:10956000FFF770F9627E002AD1D0022384F82430FC
:10957000206E47F0F7FF637E022B0CBF4FF0804553
:10958000002500213720FFF76BF829462920FFF737
:1095900067F80546FFF756F90DBB637E022B00F016
:1095A0006981A576206E47F0DDFF00210920FFF7D5
:1095B00057F8002873D0FFF745F994F82420531E7C
:1095C00010E020684FF40071FFF70AF9012800F05D
:1095D0002681022800F02A81002800F03A8194F8C0
:1095E0002420531EDBB2022B0AD8724B6169D3F8D8
:1095F00084305B1AC82B8CD9FFF706FD94F8242021
:10960000042A86D18AE7A26D117B136A002900F033
:10961000D5805269002A00F0D18094F8E020002A19
:1096200000F0CC80B3FA83F35B09002BD7D004A9F8
:1096300000250DF10F0302224FF0010A059140466B
:1096400005A9CDE90B3A0792CDE90955CDE90E55AB
:10965000CDE91055ADF8105006958DF820508DF8D5
:10966000345013958DF848A048F01CFBFEF7F2FC2F
:109670009DF80F3003F01F03052B00F05181FFF719
:10968000C3FCD4F80CB0BBF1000F00F0DD802A461B
:10969000236961685046D84794F8242008E71021D0
:1096A0004846FFF79DF88246002884D101217F209B
:1096B000FEF7AAFD012805467FF47DAF5046022142
:1096C000FEF7A2FD002800F0048101287FF473AFAB
:1096D00016213A20FEF798FD01308002A062FFF7C4
:1096E000B1F8206E47F03EFF00210A20FEF7B8FFD8
:1096F000002840F0E780032384F82430102105A8D7
:10970000FFF76EF800287FF46AAF9DF821309DF8CE
:1097100022109DF81C209DF815009DF816501B0185
:10972000DBB243EA111303F5FA636387DDF81D30FA
:1097300001F00F0184F83C101BBA110902F00F026E
:1097400045EA002084F8381084F839209DF8141078
:109750009DF817206363069B2363A08584F82E1071
:1097600084F82F20FFF76EF8A37E6BB9206E47F0C8
:10977000F9FE4FF400711020FEF772FF0546FFF767
:1097800061F8002D7FF4AEAE0B4848F037FC0022A4
:109790000423A4F85C003046226284F8243015B01B
:1097A000BDE8F08F304684F8246015B0BDE8F08F36
:1097B000501A0020482B002040787D012268217A31
:1097C0004FF4807302EB01214046002248F036FE40
:1097D000237A0133DBB22372A3F10203B3FA83F3DA
:1097E0005B0922E7042304AA8DF8340005A940464A
:1097F00007930692CDE909AACDE90BAACDF814A0EA
:109800008DF820A0CDF838A048F04CFAFEF722FCE5
:109810009DF81330AB2B04BF02236376A0E6636987
:10982000D7F8842064339342BFF4D9AEFFF70AF827
:10983000FFF7EAFBE5683DB1002210462369616845
:10984000A84794F8242033E694F8242030E665767F
:1098500086E60190FEF7F6FFE5680198207604237E
:1098600084F82430002D3FF459AED4E90021236957
:10987000A847B4E6206E47F075FE29463A20FEF769
:10988000EFFE04A98246042201230691404605A961
:1098900007928DF83430CDE90955CDE90B55059582
:1098A0008DF820500E9548F0FDF9FEF7D3FBBAF184
:1098B000000F07D1FEF7C6FF049B1BBAC3F38073EA
:1098C000A3766FE6FEF7BEFFFFF79EFB94F8242019
:1098D000EEE504212C20FEF797FC032182464E2062
:1098E000FEF792FC0C2183463620FEF78DFC0BF12F
:1098F000020B421C02FA0BF205FA0AF5A2FB050163
:10990000420A42EAC152A262FEF79CFFE9E60190D8
:10991000FEF798FF01980423064684F82430FDE5FD
:109920000E4BE568D3F884306361072284F8242065
:10993000002D3FF4EEAD504697E708D0042384F89D
:109940002430FEF77FFF94F82420531E4AE6FEF7EA
:1099500009FF02287FF443AE2DE600BF482B00200C
:109960002DE9F84FBA4C94F8081F0546C1F34001A1
:10997000D4F8100F47F002FE94F8081FD4F80C0F2B
:10998000C94301F0010147F0F9FD002D00F0CD8041
:109990006E1EB04FB04D5FFA86FB4FF01008D4F842
:1099A000100F47F0CFFDD4F80C0F47F0CBFDB4F803
:1099B000183F002B40F0438194F81A1FD4F81C0F75
:1099C00047F0DCFD4FF0FA094FF47A704FF0010CCC
:1099D0007B68C3F30803002B40F00881EFF3118389
:1099E000002B40F00381D4F88420A968D4F8843097
:1099F0009A42F8D1D4F8403F9942F4D8D4F83C6F59
:109A000000FB06F35B1AB3FBF6F300FB02327B6844
:109A1000C3F30803002B40F0A880EFF31183002B61
:109A200040F0A380D4F88430D5F808A0D4F884108E
:109A30008B42F7D1D4F8401F8A45F3D8D4F83C6F55
:109A400000FB06F1A1EB0A01B1FBF6F100FB0313E9
:109A50009B1AB3F57A7FDAD3B9F10109B8D1D4F8FA
:109A6000100F47F06FFDD4F80C0F47F06BFDB4F802
:109A7000183F002B40F0D78094F81A1FD4F81C0F21
:109A800081F0010147F07AFD4FF0FA0C4FF47A7043
:109A90004FF0010E7B68C3F30803002B40F0868073
:109AA000EFF31183002B40F08180D4F88420A96863
:109AB000D4F884309A42F8D1D4F8403F9942F4D88F
:109AC000D4F83C9F00FB09F35B1AB3FBF9F300FBEE
:109AD00002327B68C3F308034BBBEFF3118333BB44
:109AE000D4F88430D5F808A0D4F884108B42F7D18C
:109AF000D4F8401F8A45F3D8D4F83C9F00FB09F105
:109B0000A1EB0A01B1FBF9F100FB03139B1AB3F5BA
:109B10007A7FDED3BCF1010CBCD10BF1FF365FFACA
:109B200086FBBBF1FF0F7FF43AAFBDE8F88FEFF390
:109B3000118988F31288AE682B68DB0344BFC4F830
:109B400038EFAE68D4F88430D4F8381F5FFA89F95A
:109B500089F31188D4F83C9F0B4400FB09F1891B61
:109B6000B1FBF9F100FB0313D0E7EFF3118E88F39B
:109B70001288D5F808A02B68D90344BFC4F838CFA1
:109B8000D5F808A0D4F88430D4F8381F5FFA8EFED8
:109B90008EF31188D4F83C6F0B4400FB06F1A1EB67
:109BA0000A01B1FBF6F100FB031351E7EFF311815A
:109BB00088F31288D5F808902B68DA0344BFC4F8FC
:109BC00038EFD5F80890D4F88430D4F8382FC9B2DB
:109BD00081F31188D4F83C1F1A4400FB01F3A3EB76
:109BE0000903B3FBF1F300FB023272E7EFF31181DB
:109BF00088F31288AE682B68DB0344BFC4F838CF03
:109C0000AE68D4F88430D4F8382FC9B281F3118803
:109C1000D4F83C1F1A4400FB01F39B1BB3FBF1F388
:109C200000FB0232F3E6D4F8343F002B3FF42CAFB4
:109C3000D4F8203FC3F8009084F8319F24E7D4F88B
:109C4000343F002B3FF4BEAE46F06CFDBAE600BFD9
:109C5000482B002000ED00E010E000E02DE9F84F77
:109C6000B74CB84F94F8081FD4F8100FB64DC1F395
:109C7000400147F083FC94F8081FD4F80C0FC94347
:109C800001F0010147F07AFC4FF0050B4FF010088E
:109C9000D4F8100F47F056FCD4F80C0F47F052FCE4
:109CA000B4F8183F002B40F0438194F81A1FD4F801
:109CB0001C0F47F063FC32264FF47A704FF0010C12
:109CC0007B68C3F30803002B40F00781EFF3118397
:109CD000002B40F00281D4F88420A968D4F88430A5
:109CE0009A42F8D1D4F8403F9942F4D8D4F83CEFE6
:109CF00000FB0EF35B1AB3FBFEF300FB02327B6842
:109D0000C3F30803002B40F0A780EFF31183002B6F
:109D100040F0A280D4F88430D5F808A0D4F884109C
:109D20008B42F7D1D4F8401F8A45F3D8D4F83CEFE2
:109D300000FB0EF1A1EB0A01B1FBFEF100FB0313E6
:109D40009B1AB3F57A7FDAD3013EB9D1D4F8100F5C
:109D500047F0F8FBD4F80C0F47F0F4FBB4F8183FC9
:109D6000002B40F0DA8094F81A1FD4F81C0F81F011
:109D7000010147F003FC4FF0320C4FF47A700126DA
:109D80007B68C3F30803002B40F08780EFF3118357
:109D9000002B40F08280D4F88420A968D4F8843065
:109DA0009A42F8D1D4F8403F9942F4D8D4F83C9F75
:109DB00000FB09F35B1AB3FBF9F300FB02327B688B
:109DC000C3F308033BBBEFF3118323BBD4F8843008
:109DD000D5F808A0D4F884108B42F7D1D4F8401FEE
:109DE0008A45F3D8D4F83C9F00FB09F1A1EB0A01A6
:109DF000B1FBF9F100FB03139B1AB3F57A7FDED3B5
:109E0000BCF1010CBCD10BF1FF3616F0FF0B7FF457
:109E10003FAFBDE8F88FEFF3118988F31288D5F8CA
:109E200008A02B68DB0344BFC4F8386FD5F808A03E
:109E3000D4F88430D4F8381F5FFA89F989F311888F
:109E4000D4F83C9F0B4400FB09F1A1EB0A01B1FBE4
:109E5000F9F100FB0313CFE7EFF3118E88F31288BB
:109E6000D5F808A02B68D90344BFC4F838CFD5F87B
:109E700008A0D4F88430D4F8381F5FFA8EFE8EF331
:109E80001188D4F83CEF0B4400FB0EF1A1EB0A0162
:109E9000B1FBFEF100FB031352E7EFF3118188F3EE
:109EA0001288D5F808902B68DA0344BFC4F8386FDD
:109EB000D5F80890D4F88430D4F8382FC9B281F39B
:109EC0001188D4F83C1F1A4400FB01F3A3EB0903EB
:109ED000B3FBF1F300FB023271E7EFF3118188F37A
:109EE0001288D5F808E02B68DB0344BFC4F838CFEC
:109EF000D5F808E0D4F88430D4F8382FC9B281F30B
:109F00001188D4F83C1F1A4400FB01F3A3EB0E03A5
:109F1000B3FBF1F300FB0232F1E6D4F8343F002B3F
:109F20003FF429AFD4F8203F1E6084F8316F22E758
:109F3000D4F8343F002B3FF4BEAE46F0F3FBBAE654
:109F4000482B002000ED00E010E000E00E4B30B4A4
:109F5000DB68427801780D4CDB43C3F30223C3F185
:109F60000403DBB202FA03F360181B0101F01F05C2
:109F70000122490903F0F003AA4080F8003344F8B5
:109F8000212030BC704700BF00ED00E000E100E0A0
:109F900000F01F0240090123032803FA02F304D052
:109FA00004280CD0022805D07047074A116C0B43D7
:109FB00013647047044A516C0B4353647047024A60
:109FC000116B0B43136370470038024000285FD0C9
:109FD0000368374A2DE9F04103F13F4404F57E045C
:109FE00002EB9422012492F8C02002F01F055209CE
:109FF000032A04FA05F456D0042A4FD0022A48D086
:10A000008588B5FA85F0C0F11F00C0F3CC0603EBDC
:10A01000860600F0070082000F24306A944020EA90
:10A0200004003062306A01FA02F202430021326217
:10A030004FF0010E0A464FF0030C02270EFA02F809
:10A0400038EA050002F101021CD118680CFA01F48B
:10A0500020EA04001860186807FA01F606431E603B
:10A060009E6826EA04069E6098689860586820EA10
:10A070000800586058685860D86820EA0400D86022
:10A08000D868D860102A01F10201D7D1BDE8F0816B
:10A090007047084A556C2C435464B1E7054A156B68
:10A0A0002C431463ACE7034A156C2C431464A7E7F4
:10A0B0003CDB0608003802402DE9F04385B00D4630
:10A0C0001746044647F0B8FA002859DB3B4EDFF844
:10A0D000F88008EB000206EB800006F6847392F825
:10A0E000C890C0F8443F002C60D0A2884FF00043D5
:10A0F000B2FA82F2D34005D0314A116821EA030155
:10A10000116053612946204645F0FEFC256805F1A3
:10A110003F4505F57E05AD0A204647F08DFA00F073
:10A12000FC0303F1804303F59C3300F003009A68BD
:10A1300080000F21814022EA01029A609A68EDB204
:10A1400005FA00F0104398602CB1A0884FF000444D
:10A15000B0FA80F0C44008EB87074E44D7F8D830F7
:10A160008DF80D300021012302A88DF80E300294E5
:10A170008DF80C10FDF744FF96F8883FF02B02D8BD
:10A1800005B0BDE8F0830F4B13F809308DF80430AB
:10A19000F02103224FF4807301A886F8881F8DF800
:10A1A0000520ADF80630FFF7D1FEE9E72946204645
:10A1B00045F0AAFC4FF0FF35AEE700BF482B00206A
:10A1C000003C0140645E07083CDB0608002869D0BB
:10A1D000F0B58388B3FA83F3202B85B00446C3F12E
:10A1E0001F024AD0304E314D16444FF0004005EB6F
:10A1F000820230FA03F396F8C860C2F8441F05D013
:10A200002B4A116821EA03011160536120460021A5
:10A2100045F07AFCA3882268B3FA83F4C4F11F03E3
:10A2200003F0FC0101F1804101F59C3103F00303CF
:10A2300098000F2702F13F438A68874022EA07020D
:10A2400003F57E038A60C3F38723834088684FF059
:10A2500000420343354422FA04F48B604FF4006259
:10A26000012302A88DF80E300294ADF80C20FDF702
:10A27000C7FE95F8883FF02B01D805B0F0BD0D4B17
:10A280009B5D8DF80430F02103224FF4807301A808
:10A2900085F8881F8DF80520ADF80630FFF756FECB
:10A2A00005B0F0BD704700BF3CDB0608482B00201E
:10A2B000003C0140645E070810B4B8B10D4CD4F8FE
:10A2C000903F102B05D15DF8044B0521002045F08F
:10A2D00003BF03EB4302224482F8951F01210B4484
:10A2E00082F8940F82F8961FC4F8903F5DF8044BF3
:10A2F000704700BF482B002080782021DCE700BF9A
:10A300002DE9F04FDFF8ACA32DED028B9AF8D81FA2
:10A31000002297B0CAF8C82FCAF8CC2FCAF8D02F9D
:10A32000CAF8D42FCAF8C42F19B19AF8D92F8AF8CD
:10A33000C42F9AF8DA2F1AB19AF8DB2F8AF8D32FA4
:10A340009AF8DE2F1AB19AF8DF2F8AF8CE2F9AF8F2
:10A35000DC2F1AB19AF8DD2F8AF8C92F9AF8E03F5E
:10A3600005935A1ED3B257B203937B1C00F0AA8008
:10A37000C54AC64E52F83790029602EBC702002338
:10A380001279019308EE102A1D4634469846267825
:10A390003946304648F0F0FC83463046BBF1000FAA
:10A3A0001ED046F0FBFDEA1D1321D2B220B14FF0C2
:10A3B000000E827180F807E045F0A6FB207848F097
:10A3C00005FD4FF0070308F1010223714FF001036F
:10A3D00084F802806070CDF804B05FFA82F8E37010
:10A3E0000135042D04F10504D1D118EE100A029EA6
:10A3F000CDF81080FFF7CCFDA549A64A4868024079
:10A4000042F440324A600FB9019B5BB9A24C48202C
:10A41000FFF7BEFD2046022160F09CFDA26842F0DD
:10A420000102A2609A489C4A4168BAF8E24F41F49E
:10A4300000014160516821F480515160916B21F419
:10A44000401141F480119163D16841F46001D16001
:10A45000956B85F44011C1F3015101EB81011F207F
:10A4600000FA01FC25EA0C0C112505FA01F141EA7C
:10A470000C019163D16841F0E061D160956BC5F347
:10A480000151C1F10401C9B201EB810188404FF0D3
:10A49000120C25EA00000CFA01F108439063E4B1C4
:10A4A000BAF8E41FCAF8EC4FA1B1BAF8E62FCAF81F
:10A4B000F01F62B1019B7948521A90FBF2F2CAF880
:10A4C000F42F6BB917B0BDEC028BBDE8F08F744A66
:10A4D0001288EFE7734A1188E7E7734A1488DFE7C9
:10A4E0004846049960F036FD684B012003F11408DA
:10A4F0000723F278441CE4B252B375783279A5F19F
:10A500000A0101EB410105EB450C092D03FA01FE9F
:10A5100003FA0CFB02FA01F140F2A080D9F80C20FA
:10A5200022EA0E0E41EA0E01C9F80C10421E02EB9F
:10A5300082021F21062801FA02FC05FA02F273D8F2
:10A54000D9F8341021EA0C010A432046C9F8342016
:10A550000536B045CDD1D9F80820039942F40072F0
:10A56000C9F80820D9F8082042F48072C9F80820F8
:10A57000D9F80820574442F00102C9F8082097F999
:10A58000E82F022046F0C8FB044600289AD046680F
:10A59000304646F0AFFB454A431E242101FB03230E
:10A5A00093F89C50002D8DD1059983F89D100622BB
:10A5B00083F89C20002885D0304646F09BFB5BF05A
:10A5C0003FFC60680AF0B2F907A80AF071F9049E2E
:10A5D000A26837480792012E8CBF4FF48063002396
:10A5E0000D9309F14C034FF48072CDE90A5608939C
:10A5F00009904FF4003360680C9507A94FF4006789
:10A600004FF40056CDE91023CDE90E760AF062F939
:10A610006268136843F001031360D9F8083043F00F
:10A620008043C9F808304DE7C11FA0F10D0201EBCE
:10A6300081014FF01F0E02EB82020C280EFA01FC82
:10A640000EFA02F005FA01F113D8D9F8302022EA07
:10A650000C0211432046C9F8301079E7D9F81010E0
:10A6600002FA0CF221EA0B0B42EA0B02C9F81020A5
:10A670005CE7D9F82C1005FA02F221EA00010A433E
:10A680002046C9F82C2063E720DC06080C3B00209C
:10A6900000230140E030FCFF002001408038010031
:10A6A0002E7AFF1F2C7AFF1F2A7AFF1F98010020A5
:10A6B000403B0020482B00202DE9F84F2E4F00EBA7
:10A6C000800407EBC40454F8F46C2EB1054614F86A
:10A6D000DF0C00F0FF0820B14FF000084046BDE855
:10A6E000F88F89469A46934645F030FF4FEA490174
:10A6F0000123C9B204F8DE1C04F8DDBC04F8DB3C1D
:10A7000004F8DA8C04F8DC3C04F8DF3C04F8E08C54
:10A71000B28844F8D8AC9105814644F8D4AC1DD435
:10A720003388DA0510D442F20F7405E045F00EFFCD
:10A73000A0EB0903A34215DC33889B05F6D43388CC
:10A740009BB243F480733380B3889BB243F440736D
:10A750004FF00108B3804046BDE8F88F9846404668
:10A76000BDE8F88F37F8803C01339BB2284627F8C4
:10A77000803C60F02DF8B1E7403C002070B5464EBB
:10A7800016F87E4C04EB440306EBC303650013F894
:10A790007C3C032B6ED8DFE803F059291E022544C8
:10A7A00006EBC50555F8780C002870D116F81C3C4E
:10A7B0009C425FD0013404F00302934206F87E2CE1
:10A7C00058D002EB420406EBC404022344F8780C90
:10A7D00004F87C3C70BD2B1906EBC30353F8782CAE
:10A7E00072B1013A43F8782C002070BD2B1906EBAA
:10A7F000C30353F8782C002AF3D1022203F87C2CEF
:10A80000254406EBC50515F8703C013BDBB205F8A5
:10A81000703C8BBB214B16F81C6CD3F8C01255F85A
:10A82000740C621C02F003024B1E0324B242034468
:10A8300005F87C4CB3FBF1F045F8780C1AD099423E
:10A8400018D8013845F8780C012070BD47F0BCFFDE
:10A8500080B1124B2C44D3F8C02206EBC404012172
:10A8600002F51C5304F87C1C0F33B3FBF2F344F8DD
:10A87000783C70BD012070BD084BD3F8C022012088
:10A8800002F2E733B3FBF2F345F8783C70BD0138D0
:10A8900045F8780C002070BD403C00209801002055
:10A8A0002DE9F84F3249DFF8D4B091F8AD1E0124FC
:10A8B0000229074619461046CBF820414FF0000206
:10A8C0002C4C1D4618BF7F02FDF7CCFB2A4B636260
:10A8D0006B02A362E36A40F2FF5943F093034FF423
:10A8E00000704FF48A62E3620121C4F83890A060DE
:10A8F0001020E2605AF010FA012D40F251434E460A
:10A90000C4F83890CA4640F252488EBF4FF0120940
:10A9100098464FF011090A25C4F838A00121A76014
:10A920004846C4F80C805AF0F7F903464FF0000C83
:10A9300040F2774201213720A6632BB90023184645
:10A94000CBF81C31BDE8F88FA663C4F808C0E260FC
:10A950005AF0E2F9013DA6630028EFD015F0FF059B
:10A96000DAD10346CBF82051CBF81C31BDE8F88F83
:10A97000482B0020002C014000E1F505501A002072
:10A980002DE9F843DFF8748098F82450042D04462C
:10A99000894617461E4608D0082D02D00020BDE883
:10A9A000F883FEF7F5FA0228F8D101234A4620463B
:10A9B0000021FFF775FF68B1FEF738FCD8F80C40AE
:10A9C000002CEBD00022D8F81030D8F80410104634
:10A9D000A047E3E7084BC8F80090D3F88420C8F8F4
:10A9E00004400523C8E90376C8F8142088F8243009
:10A9F0000120BDE8F88300BF482B0020501A00203A
:10AA00002DE9F84F3149DFF8CC9091F8AD1E1E4684
:10AA100002292F4B07464FF0010418BF4702012EB1
:10AA200040F25948C3F8244198BF4FF48B683B4625
:10AA30009346474640F2FF55B0468CBF4FF0190A87
:10AA40004FF0180A0A241E4640F2FF53C9F8383066
:10AA50000121C9F808605046C9F80C705AF05CF939
:10AA600003464FF0000C40F2774201213720C9F82D
:10AA70003850ABB9584641460122FDF7F3FA464635
:10AA8000144A154B536276029662D36A43F09103DF
:10AA9000D3620F4B00210846C3F81C11BDE8F88FA4
:10AAA000C9F83850C9F808C0C9F80C205AF034F970
:10AAB000013CC9F838500028DCD014F0FF04C3D1A1
:10AAC000034BC3F82441BDE8F88F00BF482B00209A
:10AAD000501A0020002C014000E1F5052DE9F04757
:10AAE000364C82B005460E461746984694F8240028
:10AAF00004280CD0082806D1E369AB4207D0FEF742
:10AB000047FA0228F2D0012002B0BDE8F087DFF852
:10AB1000B4A02660DAF8A09E6560C9F34F210F2922
:10AB20004FEA592222D8236A0193FBB194F8F2002C
:10AB3000E0B1B9F5005F13D0214831464FF40072FF
:10AB4000484462F049FF09F50072C2F34F21102911
:10AB5000CAF8A02E4FEA522202D0019B012B20D12D
:10AB600092B2013A164EAD1A0B4600E0012332466E
:10AB70002846062601250021E760C4F810802572CA
:10AB800084F82460FFF73CFF0028BDD0FEF74EFBA1
:10AB9000E66886B12846236961680022B047032031
:10ABA000B2E7E269013B01320421C4E9072384F8DA
:10ABB00024100220A8E70320A6E700BF501A0020B7
:10ABC0004C770020482B002003681A78012A01D016
:10ABD0000020704793F90430044A03EB830302EB2F
:10ABE000C30313F8DF0CC0B2704700BF403C002025
:10ABF00010B50C4C54F8183C1B78022B10D154F8AB
:10AC0000100C46F0B5FC54F8100C08B12123C38099
:10AC1000012144F079FF044847F0F0F924F8140CBE
:10AC200010BD00BF403C00208096980030B583B036
:10AC30000D46012301460DF107020446074847F07F
:10AC4000CDFC9DF8072035EA020304D003482A43CF
:10AC5000214647F059FD03B030BD00BF283C00201D
:10AC600038B505460A460C460648294647F046FBD5
:10AC700045F08001034847F0EBF9231A5842584148
:10AC800038BD00BF283C0020F0B53B4C54F8185CA0
:10AC90002B78022B95B018D0012B02D0002015B0D4
:10ACA000F0BD95F904506B1CF8D0022DF6DC009134
:10ACB000134614F8141C024628465FF02BFF0028A8
:10ACC000ECD028465FF0D6FFE9E72B6A002BE5D1F0
:10ACD0000DF10F0C8DF80F00002601200027CDE9A3
:10ACE0000833CDE90A12CDE90E6705938DF81C30C3
:10ACF0000D9310931293CDF810C006908DF830008C
:10AD00008DF84400EFF31180102383F3128854F878
:10AD1000183C1B6A13B3069B04AE32461BB1D369C1
:10AD20001432002BFBD12B6A13B3996839B99342C3
:10AD30000AD0196829B15B6899680029F7D01433E3
:10AD4000F3E70E4AC3E90026C0B280F3118854F835
:10AD5000182C136A002BFCD10120A0E704ABC0B271
:10AD60002B6280F31188A4F118005CF047FCEEE739
:10AD7000024A1A60FFDE00BF403C0020283C002051
:10AD800070B503681D78022D13D0012D01D000206D
:10AD900070BD044693F904000A4B421C83F8B4507A
:10ADA000F5D00228F3DC0A46B4332179BDE87040BF
:10ADB00082E41B6A002BEAD1012247F09FFA0120AE
:10ADC00070BD00BF403C002013B53A4C0023D4F8BE
:10ADD000C4208DF80730137803F0FD01012905D157
:10ADE00094F8C81011B90C2184F8C810022B1ED099
:10ADF000032B2ED001220B212F4858F02BF90420D1
:10AE000045F0D0FB2C4801230DF10702002158F03A
:10AE100043F9002839D09DF80730482B35D1274B0E
:10AE2000C4F8B830264BC4F8BC3002B010BDD4F81A
:10AE3000CC0046F09DFBD4F8CC0008B13523C3808C
:10AE4000012144F061FE1F4847F0D8F8A4F8C8007B
:10AE5000D0E7D4F87435506846F2A8111961002380
:10AE600080F888301222372158F0C8F8D4F8C4305E
:10AE70000D225868242158F0C1F8D4F8C43030228B
:10AE800058686A2158F0BAF8B4E7D4F8C4301A7890
:10AE9000022A03D0032A07D00020C6E7D4F8CC004A
:10AEA00046F0E0FE0020C0E758681022372158F035
:10AEB000A5F8F1E7403C0020043D0020F7300608EB
:10AEC00079310608809698002DE9F04FB54CB64EC2
:10AED00095B0002305464FF4F0728B4604F6F80057
:10AEE000202184F8F43884F8F538019562F0D5FD16
:10AEF000202104F6D8204FF4F07262F0CEFDDFF886
:10AF0000C0C2AA4932274FF0100E4FF47A704FF0AA
:10AF10000108DCF80430C3F30803002B40F0BC80C8
:10AF2000EFF31183002B40F0B780D6F884208D68B2
:10AF3000D6F884309A42F8D1D6F8403F9D42F4D8F2
:10AF4000D6F83C9F00FB09F35B1BB3FBF9F300FB56
:10AF50000232DCF80430C3F30803002B7BD1EFF39B
:10AF60001183002B77D1D6F88430D1F808A0D6F819
:10AF70008450AB42F7D1D6F8405FAA45F3D8D6F853
:10AF80003C9F00FB09F5A5EB0A05B5FBF9F500FBB5
:10AF900003539B1AB3F57A7FDBD3013FB9D194F801
:10AFA000B92C002A52D094F8BA3C013B022B4DD860
:10AFB00003EB830004EBC0017D4D91F8547D05EB5C
:10AFC000C0004FF0010C022FC4F8BC0C84F844CD33
:10AFD00000F0C182DBB204EB0313D3F8CC3DC1F81F
:10AFE000583D9BB302234FF4807081F8543DA5F186
:10AFF00088034C3DA1F8600DC1F86C3DC1F8705D4F
:10B000001509013D042D02F00F0200F28782694FFD
:10B0100007EB4503B3F8AC0040FA02F3DB0740F15D
:10B020007D82012303FA02F2013A10403D4460F0B0
:10B030003BFA95F8B820604B104403EBC000C4F80D
:10B04000C40C8379002B47D0412B45D06FF0010011
:10B0500015B0BDE8F08FEFF311898EF31288D1F8A7
:10B0600008A00B68DD0344BFC6F8388FD1F808A0EC
:10B07000D6F88430D6F8385F5FFA89F989F31188F9
:10B08000D6F83C9F2B4400FB09F5A5EB0A05B5FB60
:10B09000F9F500FB03537CE7EFF311858EF312887B
:10B0A000D1F808900B68DB0344BFC6F8388FD1F89D
:10B0B0000890D6F88430D6F8382FEDB285F3118891
:10B0C000D6F83C5F1A4400FB05F3A3EB0903B3FB7E
:10B0D000F5F300FB02323CE72323C380092144F04F
:10B0E00013FDD4F8C43C13B11A689B881383D6F8B7
:10B0F0003025324BB3EB920F80F03382B3EBD20F9B
:10B1000080F03182B3EB121F80F03182B3EB521F1B
:10B1100080F03182B3EB921F80F03182B3EBD21F0B
:10B1200080F03182B3EB122F80F02F824FF48070C9
:10B1300000230122FF210DF10F088DF80F10CDE93A
:10B140000483CDE90833CDE90A33D4F8BC1CA4F854
:10B15000C00C0D9306928DF81C208DF83020EFF373
:10B160001180102383F31288D4F8BC3C1B6A002B97
:10B1700000F0D881069B04AD2A461BB1D369143276
:10B18000002BFBD10B6A002B00F01582996839B9AE
:10B190009A421AD01968A9B15B6899680029F7D05A
:10B1A0001433F3E7403C0020482B002010E000E07F
:10B1B000944900203CDB0608F82D0020404B4C0051
:10B1C00000ED00E0B74AC3E90025C0B280F3118862
:10B1D000D4F8BC1C0B6A002BFCD18C220120CDE9D9
:10B1E00008330DF10E0A05938DF81C300D93109362
:10B1F00012938DF80E2000230022CDE90E23CDF806
:10B200002880CDF810A006900B908DF830008DF8B6
:10B210004400EFF31180102383F31288D4F8BC3C70
:10B220001B6A002B00F08781069B2A461BB1D3695D
:10B230001432002BFBD10B6A002B00F0BC81996803
:10B2400039B993420AD0196829B15B689968002915
:10B25000F7D01433F3E7934AC3E90025C0B280F373
:10B260001188D4F8BC2C136A002BFCD19DF80F3048
:10B270001B2B40F09081D4F8C43C012284F8F428C0
:10B280000BB12322DA80DFF81C92402248460A21C3
:10B2900047F034F88A21002301228DF80E10002097
:10B2A0000021CDE90E01CDE90833D4F8BC1CCDF85E
:10B2B00010A0CDF8288005938DF81C300D931093C5
:10B2C000129306920B928DF830208DF84420EFF304
:10B2D0001180102383F31288D4F8BC3C1B6A002B26
:10B2E00000F03181069B2A461BB1D3691432002B32
:10B2F000FBD10B6A002B00F05B81996839B993424E
:10B3000009D0196829B15B6899680029F7D014330E
:10B31000F3E7C3E90095C0B280F31188D4F8BC2CE0
:10B32000136A002BFCD19DF80F2094F8B81CC2F3CF
:10B33000801284F8FC2D002900F0D480022900F04E
:10B34000B980D6F830355849B1EB930F80F01F81A2
:10B35000B1EBD30F80F00981B1EB131F80F00981AD
:10B36000B1EB531F80F00981B1EB931F80F009818D
:10B37000B1EBD31F80F00D81B1EB132F34BF4FF42D
:10B380008076802694F8001EA4F8FE6D182914D14A
:10B39000464F474800215B08B3FBF6F3A7FB037356
:10B3A0000F465B0B66F30F076BF30F0163F31F4749
:10B3B00062F31F41C4F8081E47603A48A4F8C06C05
:10B3C0000222002146F09AFFC82044F0CDFFD4F8B5
:10B3D000BC0C4FF0800B0026002700230122CDE992
:10B3E0000E67CDE908338DF80EB0CDF810A0CDF87A
:10B3F000288005938DF81C300D93109312930692BC
:10B400000B928DF830208DF84420EFF31182102339
:10B4100083F31288D4F8BC3C1B6A002B38D0069BFF
:10B42000002B3DD02B46D96914330029FBD1006A8B
:10B43000002800F0BA80816839B9834209D00168D8
:10B4400029B1406881680029F7D01430F3E7C0E9DA
:10B450000095D2B282F31188D4F8BC0C036A002B99
:10B46000FCD19DF80F3013F00203B6D1019841785A
:10B470008278007884F8100EC1F12001C2F1100228
:10B48000184684F8111E84F8122E15B0BDE8F08F0E
:10B490000562D2B282F3118802485CF0AFF8DBE7B4
:10B4A0002B46C4E7FC480020809698005917B7D176
:10B4B000484A0020D6F830354048B0EB930F72D29E
:10B4C000B0EBD30F51D2B0EB131F52D2B0EB531FDE
:10B4D00053D2B0EB931F54D2B0EBD31F34BF8026AE
:10B4E00040264FE7D6F830353549B1EB930F4ED2B1
:10B4F000B1EBD30F39D2B1EB131F3AD2B1EB531FDB
:10B500003BD2B1EB931F3CD2B1EBD31F41D2B1EB95
:10B51000132F34BF4FF48076802633E70020C4F821
:10B52000C40CDBE504ADC0B20D6280F31188254880
:10B530005CF064F84CE60D62C0B280F311882148DB
:10B540005CF05CF88DE60D62C0B280F3118848466D
:10B550005CF054F8E2E691F8613D634481F8613DA6
:10B560004EE50220E4E50420E2E504260AE708208F
:10B57000DEE5082606E71020DAE5102602E720209F
:10B58000D6E52026FEE64020D2E58020D0E5022642
:10B59000F8E64026F6E6D4F8C40C202144F0B4FACC
:10B5A0004FF0FF3054E50E46ECE6C0F80090FFDEA9
:10B5B000C3F80090FFDE034A1A60FFDE002D310160
:10B5C000404B4C00FC4800200146014846F040BD7D
:10B5D000544A0020014488420ED010B40346074C60
:10B5E000074813F8012B04FB00F0994280EA02009F
:10B5F000F7D15DF8044B7047014870479301000193
:10B60000C59D1C81094B93F86231042B08D9053B79
:10B61000032B08D801231A4600B103701046704767
:10B6200000230122F8E700231A46F5E7482B002003
:10B63000F0B40D6800240CE0BCF1050F18D8A0F19F
:10B6400037030A2B14D104EB840415F8010B03EB28
:10B650004404A0F13003DEB2092EA0F16107A0F18D
:10B66000410CF0D9052FE7D8A0F157030A2BEAD0F7
:10B670000D601460F0BC70479FED727A07EE901A6F
:10B6800020EE070AF8EE677A27EE800AFDEEC07A10
:10B6900017EE903A2033402B00F2C480DFED6A7A37
:10B6A000B4EEE70AF1EE10FAF0EE407A0CDD9FED11
:10B6B000676ADFED676AB0EE677AB4EEE67AF1EEBC
:10B6C00010FA77EEC67AF6DC9FED627AF4EEC77A6E
:10B6D000F1EE10FA0CD59FED5D6ADFED5F6AB0EE1A
:10B6E000677AB4EEE67AF1EE10FA77EE867AF6D45F
