:020000040800F2
:10000000F0FF012009B80608EDF4000851D00408FB
:1000100081B8060881B8060881B80608000000000B
:10002000000000000000000000000000E9F40008EB
:10003000E5F4000800000000E1F400084D070508A1
:1000400081B8060881B8060881B8060881B8060894
:1000500081B8060881B8060805180508CD170508F7
:10006000951705085D17050825170508F974060892
:10007000E9740608D9740608C9740608B574060838
:10008000A17406088D74060881B8060800000000F7
:10009000000000000000000000000000ED16050850
:1000A0006DD50408BDD504085DD50408E5D5040860
:1000B000ADD504089DD504088DD5040899AF060870
:1000C000A1AF06088DAF060895AF060881B80608EF
:1000D00081B8060821090508690805080000000024
:1000E000B516050881B80608A50D01080000000036
:1000F0000000000000000000000000007974060805
:1001000000000000E55006087DD5040881B8060807
:1001100000000000000000000000000000000000DF
:1001200065740608517406083D74060829740608AB
:100130001574060800000000000000000000000028
:1001400000000000000000000000000081EE000838
:1001500001740608ED730608D9730608B10705088F
:1001600081AF060889AF060800000000000000000B
:10017000000000000000000000000000000000007F
:100180000000000081B80608000000000000000028
:0801900081B8060881B80608D9
:08019800A8B3060001000000FD
:1001A0000E02010002000000D0740020387500200B
:1001B0000000000090F407083475002014020100CC
:1001C00005000000F039002040750020000000000C
:1001D00092F407083C75002013020100040000009F
:1001E000D82B00204C7500200000000098F4070870
:1001F00048750020031101000A0000001874002057
:100200005475002000000000F1190108507500200D
:100210000D1001004C000000B06F0020647500203C
:10022000000000005D4D0408607500200902010017
:1002300001000000186F0020B475002000000000CD
:100240009CF40708B0750020FD01010024000000A7
:10025000D06E0020BC750020000000005BE00408A8
:10026000B8750020FB01010001000000E0690020DA
:10027000E475002000000000B1590508E075002079
:10028000FC01010009000000AC680020EC750020B2
:1002900000000000B9590508E8750020F7010100C9
:1002A00006000000A0680020FC750020000000008F
:1002B0009EF40708F8750020F90101000400000011
:1002C0009C680020087600200000000029E1040856
:1002D00004760020160215003F0000008C2D00203F
:1002E0001076002000000000695905080C760020F7
:1002F0003400010010000000CC670020547600207C
:1003000000000000959C02085076002011020100B8
:1003100008000000A46700206876002000000000AC
:10032000A4F4070864760020121201000400000003
:100330009C6700207476002000000000ACF40708E1
:10034000707600201830010038000000646700203B
:100350007C760020000000006564050878760020A7
:10036000000201000B000000E8630020B8760020C6
:1003700000000000955A0508B4760020FF21010016
:100380000500000094630020C876002000000000F3
:1003900091590508C4760020081203000F000000E0
:1003A000A0630020D4760020000000009D5A0508BC
:1003B000D0760020FA01010003000000005D00205B
:1003C000E8760020000000007D5A0508E476002051
:1003D0002A020100080000000C520020F0760020E4
:1003E00000000000B0F40708EC7600202052010065
:1003F0000800000068500020FC760020000000008B
:10040000B99C0208F87600200610010024000000C4
:10041000A82C00200877002000000000F5590508EE
:10042000047700200C02010004000000F8480020BE
:1004300030770020000000006D5A05082C7700205E
:10044000FE01010014000000203B0020387700204E
:1004500000000000F55A050834770020261001003E
:100460000E00000020E6002010E600200000000042
:10047000CD1E01080CE600200B3001001A00000020
:10048000B8DC002064E6002000000000B8F4070893
:1004900060E600201F50010024000000E4DB002083
:1004A00084E6002000000000D4F4070880E6002065
:1004B0000502010004000000A0DE0020ACE60020E0
:1004C00000000000F8F40708A8E60020010201007F
:1004D0000B000000B0EC002044F6002000000000FB
:1004E000855A050840F600200202010003000000C2
:1004F000A8EC002054F600200000000000000000DE
:1005000050F600201B0201001000000094EC0020B7
:100510005CF6002000000000D159050858F60020C4
:100520001B2001000C000000C4E9002070F6002030
:1005300000000000658301086CF600202102010024
:10054000F0000000F8E7002080F600200000000026
:10055000B99B01087CF60020371001003000000034
:100560004CEF002074F7002000000000FCF40708A6
:1005700070F70020161001000600000050EC00206B
:10058000A8F70020000000002CF50708A4F70020C1
:100590002F100100220000001CF60020B4F70020FC
:1005A0000000000032F50708B0F700202322010008
:1005B000100000008CEB0020DCF7002000000000A1
:1005C00054F50708D8F700201E00010009000000BC
:1005D00078EB0020F0F700200000000064F5070829
:1005E000ECF70020052001000C00000024EC0020A6
:1005F00000F800200000000070F50708FCF700205C
:10060000123001001000000060EB002010F8002004
:10061000000000007CF507080CF80020FD07010031
:100620007E000000B4E6002024F800200000000056
:10063000E97C010820F80020F59101006C00000021
:100640007CE70020A8F80020000000005D91010870
:10065000A4F800202320010010000000AEEE0020CE
:1006600018F90020000000007D0D020814F9002098
:10067000F62101000C00000034160120CC170120E7
:10068000000000008CF50708C81701201C020200BA
:100690001C000000C41501202018012000000000EB
:1006A000055F05081C180120283001001600000015
:1006B000E015012040180120000000004D1B020839
:1006C0003C1801201400010005000000BC150120A9
:1006D0005C1801200000000098F507085818012058
:1006E000012001000C000000140F012068180120F7
:1006F000000000009EF50708641801200C40060069
:10070000E4000000340D01207818012000000000F2
:10071000CDE30308741801200A90010024000000B2
:10072000F00C01206019012000000000350D0208C6
:100730005C1901200E300300BC0100002C0B0120CD
:100740008819012000000000D19C020884190120B2
:1007500013100100040000004C130120481B01206D
:1007600000000000ACF50708441B01200101010056
:1007700004000000700A0120501B0120000000004E
:10078000000000004C1B01200001010004000000DB
:10079000680A0120581B012000000000B0F507087E
:1007A000541B01200201010003000000640A012023
:1007B000601B0120000000000DE403085C1B012009
:1007C000220201001C01000034110120681B0120DD
:1007D000000000000D610508641B012015001000D9
:1007E0007000000004280120B02901200000000052
:1007F00000000000AC2901200300010001000000FE
:10080000FC270120242A0120000000000000000035
:10081000202A01202A000800600000003822012060
:100820002C2A0120000000006D9C0208282A0120CB
:100830002C00040010000000A02A0120902A0120B2
:1008400000000000559602088C2A0120292014007F
:100850007800000074250120B42A01200000000067
:1008600000000000B02A01201A0001000E00000064
:10087000CC240120302B012000000000B4F5070833
:100880002C2B01202B00120024000000A8240120A2
:10089000442B01200000000029960208402B012073
:1008A0001902010010000000982401206C2B012087
:1008B00000000000A1590508682B012025201E001A
:1008C0002C010000F02F0120C433012000000000A3
:1008D00000000000C0330120031201003D000000B1
:1008E00088320120F434012000000000C2F507081E
:1008F000F0340120F831010006000000902C0120A6
:10090000383501200000000000F6070834350120CA
:100910001010010002000000942F01204435012036
:100920000000000006F6070840350120190001000C
:10093000050000000C2C01204C35012000000000B7
:1009400008F6070848350120020001000C000000ED
:10095000543E01206C3E0120000000000000000019
:10096000683E012029020100400000007C37012080
:100970007C3E0120000000000EF60708783E0120B2
:100980002C02010004000000243E0120C03E012092
:10099000000000004EF60708BC3E01200A020100DC
:1009A00014000000C83C0120E83E012000000000C7
:1009B00099E30308E43E01201A0201003C00000014
:1009C000084401205049012000000000515E050844
:1009D0004C4901203820010003000000B4410120EF
:1009E000904901200000000052F607088C490120C0
:1009F0000400080080000000104B0120904B0120F3
:100A00000000000000000000104C0120280204003B
:100A100004000000D0490120184C01200000000013
:100A2000F1590508144C01202702040004000000BD
:100A3000CC490120204C012000000000E5590508A8
:100A40001C4C01201F02080010000000BC490120BE
:100A5000284C0120000000006D590508244C01209D
:100A60001D02020006000000D0540120FC540120A9
:100A70000000000000000000F854012006120300EE
:100A800012000000E05401208865012000000000F1
:100A9000D15F0508846501202700010004000000E3
:100AA000204E0120A06501200000000056F6070836
:100AB0009C6501200B2201003D00000054880120AC
:100AC000DC8E0120000000005CF60708D88E0120B3
:100AD0000D12010014000000B88D0120208F0120AC
:100AE000000000009CF607081C8F01201E02010078
:100AF00006000000388C0120388F01200000000023
:100B0000B0F60708348F0120100201000100000038
:100B100094A0012090A0012000000000B6F6070874
:040B20008CA0012084
:100B24000403090412010002EF0201408304563257
:100B3400000201020301000012010002020200404F
:100B4400830440570002010203010000FFFFFFFF7E
:100B54000000000000000000010000000000000090
:100B640000000000EC39002000000000010000003B
:100B74000000000000000000000000000000000071
:100B84000000000000000000000000000000000061
:100B94000000000000000000010000000000000050
:100BA40000600240106002400000000000000000ED
:100BB40000000000000B0000000000000000000026
:100BC40000000000006002402860024001000000B4
:100BD4000000000000000000060C000000000000FF
:100BE400000000000000000000600240406002407D
:100BF400020000000000000000000000100D0000D2
:100C0400000000000000000000000000006002403E
:100C140058600240030000000000000000000000D3
:100C2400160E00000000000000000000000000009C
:100C340000600240706002400400000000000000F8
:100C440000000000200F0000000000000000000071
:100C540000000000006002408860024005000000BF
:100C6400000000000000000026100000000000004A
:100C7400000000000000000000600240A06002408C
:100C84000600000000000000000000003011000019
:100C940000000000000000000000000000600240AE
:100CA400B8600240070000000000000000000000DF
:100CB400362F0000000000000000000000000000CB
:100CC40000640240106402400000000000000000C4
:100CD40000000000003800000000000000000000D8
:100CE400000000000064024028640240010000008B
:100CF40000000000000000000639000000000000B1
:100D04000000000000000000006402404064024053
:100D1400020000000000000000000000103A000083
:100D24000000000000000000000000000064024019
:100D340058640240030000000000000000000000AE
:100D4400163B00000000000000000000000000004E
:100D540000640240706402400400000000000000CF
:100D640000000000203C0000000000000000000023
:100D74000000000000640240886402400500000096
:100D840000000000000000002644000000000000F5
:100D9400000000000000000000640240A064024063
:100DA40006000000000000000000000030450000C4
:100DB4000000000000000000000000000064024089
:100DC400B8640240070000000000000000000000BA
:100DD4003646000000000000000000000000000093
:100DE4007D000000F1840008ED840008E984000817
:100DF400DD840008D9840008E5840008E184000843
:100E0400000000009D91000881A90008CD8F000812
:100E1400DDAA00086D920008758500084D8500085C
:100E240031850008F9A20008618800085D8A00087D
:100E340059900008D5900008919400086185000835
:100E44003985000829850008010000000000803F62
:100E5400793E01087D430108F53E0108F5120108B9
:100E6400D91401080513010821130108CD12010842
:100E7400BD1201080000000000000000090220006B
:100E8400010104C0320904000002080650050705E8
:100E940081024000000705010240000009026400CD
:100EA400030100C03209040000010300000009210D
:100EB400110100012236000705830309000A080B0B
:100EC40001020202010009040100010202010005FD
:100ED4002400100105240100020424020205240652
:100EE4000102070582030800FF09040200020A0048
:100EF40000000705010240000007058102400000D0
:100F040009024300020100C0320904000001020288
:100F1400010005240010010524010001042402023B
:100F24000524060001070582030800FF09040100E7
:100F3400020A0000000705010240000007058102C3
:100F440040000000FF000000140000FF000000004B
:100F540000000000AA550701000001AA5505010080
:100F6400002D202D2D202D2D2D2D202D2D2D2D002E
:100F7400000000000000000000000000000000006D
:100F840008000000F0DE0608FF1FFF1F0501090529
:100F9400A101A100050109300931093209330935DC
:100FA4000934093609371581257F750895088102AA
:100FB4000509190129081500250195087501810203
:100FC400C0C0000009022200010100E0320904004F
:100FD400000103010200092111010001223600076A
:100FE40005830309000A0000000000000102030455
:100FF4000102030406070809AA550B010000AA55BB
:1010040005010000AA550902000000AA5503009F2B
:1010140001000000C0120000FFFFFFFF58E600209F
:101024000000000030E60020000000000100000085
:101034000100000000000100E0017EFFFFFFFFFF50
:10104400FF000000FFFFFFFF08FF0101FF01000098
:101054000100000069020208000000000000000016
:10106400A4E50608000000000000000000000000E5
:1010740048FD060800000000000000000000000019
:1010840000FE060800000000000000000000000050
:10109400ACFD06080000000000000000DD0D0208A1
:1010A4000A10012001010000512302080000000081
:1010B40000000000C8FE0608B12602080000000077
:1010C4000000000080FE06082D202D2D202D2D2D42
:1010D4002D202D2D2D000000000000000000000038
:1010E4000000000000000000FFFFFFFF15130208CE
:1010F4000000000000000000D8FC06080100000009
:10110400FA000000010000000100000001010000DD
:1011140000010101000000007A0E01200000F4012A
:1011240001000000780E01200000F401010000001D
:10113400760E01200000F40101000000740E01206D
:101144000000F40101000000720E01200000F4010F
:1011540001000000700E01200000F40101000000F5
:101164006E0E01200000F40101000000150B0208BE
:10117400D90A0208000000006CE706085E0E012090
:10118400053201006C0E01206400F401010000002E
:101194006A0E01206400C409010000005C0E0120F5
:1011A400E803D007010000005A0E0120E803D0072D
:1011B40001000000580E0120E803D00701000000E0
:1011C400560E01201E00B80B01000000640E012021
:1011D40005000F0001000000660E012003000A0054
:1011E40001000000540E01201E00F4010100000063
:1011F400680E012002000000F8E70608520E0120E4
:101204001400640001000000600E01203200E803B5
:1012140001000000500E01200000C8000100000081
:10122400310D012000C80100300D012000500100E3
:101234002F0D0120005A01002D0D01200200000095
:1012440060E70608B06A0708B86A070808100120B2
:101254000100C40900000000061001200100C409B7
:1012640000000000041001200100C4090000000077
:10127400021001200100C40900000000FE0F01203B
:101284000100C40900000000001001200100C4098D
:1012940000000000FC0F01200100C4090000000050
:1012A400FA0F01200100C409000000008F0A012088
:1012B40000C801008E0A012000C801008C0A012028
:1012C4000000FFFF0A0000008A0A01200100C80094
:1012D40001000000880A012032003075320000004D
:1012E400860A01207EFF140005000000840A012004
:1012F40005002C0105000000830A0120055A0500A1
:10130400800A012000FF0100820A0120020000007F
:10131400BC0800207E0A012003000000A8E00608A3
:101324007F0A012000FF0100810A01200200000061
:10133400BC0800207D0A012003000000A8E0060884
:10134400DC090120FF7F0100D80901200000000012
:10135400FFFFFFFF01000000D4090120000000008E
:10136400FFFFFFFF01000000D00901200000000082
:10137400FFFFFFFF01000000690A0208F9090208E3
:101384000000000048E80608240F0120EE02CA0805
:1013940001000000220F012000C8010064000000C9
:1013A400210F012002C8010064000000200F012069
:1013B4000200000004E80608760A01200000803ECE
:1013C40005000000740A012080C1803E0500000071
:1013D4006E0A01200083007D050000006C0A0120D4
:1013E40080C1803E05000000670A012000FF010063
:1013F400600A01206400F401010000005E0A01207B
:101404006400F401010000005C0A01206400F4019E
:10141400010000005A0A01200400000054E90608F3
:10142400590A01200200000068E906081D0B01208A
:101434000D00000074E906081A0B01200064010085
:10144400180B0120320010270A000000160B01209F
:101454000D00000074E90608150B01200D000000C2
:1014640074E90608140B01200200000010E80608C5
:10147400000000000000000000000000ACE90608C5
:10148400290F012046000000E4E90608270F012087
:101494000300000000EB0608280F012004000000F0
:1014A4001CE806081F0B01200300000010EB0608CF
:1014B4001E0B01200300000010EB06081E0D012086
:1014C400000A01001C0D01200000E80301000000D7
:1014D4001A0D01200000E80301000000180D01208E
:1014E400000A0100160D01200000E80301000000BD
:1014F400140D01200000E80301000000E80C0120A5
:10150400C800E80301000000EE0C01201400FA00FA
:1015140001000000EC0C01200100E80301000000C0
:10152400EA0C0120000501002C0D0120020000003E
:1015340030E806082A0D01200000F4010100000033
:10154400280D01200000F40101000000260D0120F7
:101554000000F40101000000240D01200000F4014A
:1015640001000000220D01200000E803010000003A
:10157400200D01200000E803010000003E0E0120C0
:10158400006401000A0000003D0E01200064010017
:101594000A0000002B0E0120196401002A0E01200C
:1015A400020000003CE80608280E0120E803D007EA
:1015B4000A000000260E0120006401000A00000059
:1015C4001B0E0120006401001A0E012000640100BA
:1015D400220E0120006401000A000000210E0120F7
:1015E400006401000A000000200E012000640100D4
:1015F4000A000000250E012000FF01000A0000007F
:10160400240E012000FF01000A000000230E012027
:1016140000FF01000A0000001F0E012001FF01006D
:101624000A0000001E0E012001FF01000A00000054
:101634001D0E012001FF01000A000000280B0120FB
:101644000000F40101000000260B01200000E80363
:1016540001000000240B01200000E8030100000049
:10166400220B01200000E80301000000200B0120F0
:101674000000E803010000005B1001200096010057
:101684005210012000C80100511001200064010023
:1016940050100120006401004F100120006401007B
:1016A4004E100120006401004D100120FF080100CC
:1016B4004C10012001640100E9080208AD08020889
:1016C4000000000020EB0608551001200132010043
:1016D400541001200100000090EB06085310012073
:1016E4000400000098EB06084B100120009601004E
:1016F4004A10012000640100481001201400E8038E
:101704000100000046100120000030750A000000AE
:101714004410012000C801004310012000C801004A
:101724004210012000C801005810012000320100BD
:101734005A1001200014010059100120005F01001B
:101744005710012004000000ACEB060856100120DD
:10175400006401000A0000004A0E01200AC80500C6
:101764000A000000490E012001000000BCEB06083D
:101774004C0E01200AC805000A0000004B0E01208F
:1017840001000000BCEB0608410E012000C8050062
:101794000A000000480E012000C805000A000000ED
:1017A400420E012000C805000A000000430E01207B
:1017B40000C805000A000000460E012000C805000C
:1017C4000A000000470E012000C805000A000000BE
:1017D400450E012000C805000A000000440E012047
:1017E40000C805000A000000400E012002000000AD
:1017F400C4EB06086A1001200000D00701000000B5
:101804006410012000C801006310012000C8010019
:101814006210012000C80100681001200000D007F8
:10182400010000006110012000C8010060100120C7
:1018340000C801005F10012000C8010066100120EB
:101844000000D007010000005E10012000C8010064
:101854005D10012000C801005C10012000C80100D7
:10186400EC7B0708000000000000AC170120F87BA7
:101874000708070800000000D00E0020007C0708BD
:10188400070800000000C80E0020087C07080708AD
:1018940000000000C00E0020107C070808080000AB
:1018A4000000B40E0020FC650708070800000000D3
:1018B400AC0E002004660708070800000000A40E10
:1018C40000200C6607080708000000009C0E00209A
:1018D400B8660708080800000000900E0020187C75
:1018E4000708071000000000880E0020207C07086D
:1018F400071000000000800E0020287C0708071055
:1019040000000000780E0020307C0708081000005A
:1019140000006C0E0020186A070801000000000097
:1019240000000000000000001000000000000000A3
:10193400000000007D06020861060208F112020898
:10194400D0EB0608110B0120005A0100100B0120F6
:1019540000C801000E0B0120E803D00701000000BD
:1019640000000000000000001D0E02086CEC0608D8
:101974007C0A012003000000C0EC06087B0A012059
:10198400000301007A0A0120000301009D050208FA
:101994005105020800000000D0EC060811050208F9
:1019A400C9040208000000006CED0608E9050208FD
:1019B400D512020800000000ECED0608780A0120A8
:1019C40001030100350202081502020800000000AC
:1019D40060F10608F10B0208C50B020800000000C4
:1019E400E0F1060839040208E103020800000000DF
:1019F40050F206088D060208B52E02080000000009
:101A040008F306085D1802081D0C02080000000017
:101A1400B0F30608DD060208000000000000000024
:101A24004CF40608C1070208610702080000000020
:101A3400B0F406086908020825080208000000003E
:101A440068F5060849750208250902080000000027
:101A5400F4F506084E0E01200106010025070208D0
:101A6400F1060208000000000CF70608657402087D
:101A74009D140208000000007CF7060855090208BE
:101A8400BD15020800000000F8F806088D7502086C
:101A94007D15020800000000D80E00204D0E012024
:101AA40001030100310602080106020800000000DB
:101AB40004FA060875120208000000000000000085
:101AC40068FA060891040208BD120208000000002A
:101AD40004FB0608000000000000000000000000F5
:101AE400A0FB0608D109020809170208000000003B
:101AF40020FC0608000000000000000000000000B8
:101B040048FE060878DC00209CFF2C010000000041
:101B1400E4120120E0150C1700000000E612012079
:101B24000200000080010708540A012088136F177F
:101B340001000000560A012088136F1700000000FE
:101B44004C74002000000000000000004A740020D3
:101B540000000000000000004874002000000000A5
:101B64000000000046740020000000000000000097
:101B740044740020000000000000000042740020B3
:101B840000000000000000008C060020000000009F
:101B940000000000DD0901200300000064FF0608C6
:101BA4004C0A012088136F170100000096DE002004
:101BB40088136F17000000002103020800000000D2
:101BC4000000000074FF0608C50F0120010000009A
:101BD400C8FF060898DE002001000000D4FF0608B4
:101BE4008EDE002002000000DCFF0608000000007A
:101BF4000000000000000000E8FF060809030208D6
:101C0400000000000000000084000708000000003D
:101C14000000000000000000D800070800000000D9
:101C2400000000000000000048010708580A0120D5
:101C3400020000008001070892DE0020E0150C1766
:101C440000000000F81D01204C1E012001F11F3F7F
:101C5400D601FF004CA70020FFFFFFFF0000803FDC
:101C64000000000000000000000000000000000070
:101C74000000000000000000000000000000000060
:101C8400000000000000803F000000000000000091
:101C9400000000000000803F000000000000000081
:101CA400000000000000803F000000000000000071
:101CB40000000000010000000000FA430000FA43A5
:101CC4000000803FFFFFFFFFFF00000025AF040876
:101CD4000000000000000000000000000000000000
:101CE400D43E01200800000000000000C43E012092
:101CF40008000000A54D04080000000000000000DA
:101D040000000000DDDE0408000000000000000008
:101D14000000000001000000A00F0000B80B00004C
:101D240002FFFF01685E0C0002000000D13D0108C3
:101D3400E9130108693D010800000000B912010817
:101D440051460108B93C01080D39010800000000A2
:101D5400000000007912010801850008F5840008DC
:101D6400598F0008758F00083D8F0008218F0008E7
:101D7400058F0008893D0108C5130108BD3C010811
:101D84000000000091120108113901088D3C01087E
:101D940079380108000000000000000085120108E5
:101DA400389D0708586707080000000095E40308F9
:101DB400A086010004000000389D0708409D070824
:101DC40000000000BD890408E803000004000000CE
:101DD400C47007080000000000000000613B030815
:101DE4007D000000FF000000C86E0708000000002E
:101DF4000000000011C003087D000000FF00000087
:101E0400F473070800000000000000006D5C030884
:101E14007D000000FF0000005C7107080000000066
:101E24000000000059AF0408E803000003000000AC
:101E3400489D07080000000000000000193F030847
:101E44001027000003000000C0E1070800000000A4
:101E54009994020825B904085F7600000500000083
:101E640074E50708000000000000000059DC0408C5
:101E74001027000002000000549D07080000000025
:101E840000000000314D0408E803000005000000D4
:101E9400609D070800000000000000006DEC0308CE
:101EA400204E000003000000709D070800000000A1
:101EB4000000000055EA0308204E00000300000063
:101EC400809D07080000000000000000F9B4040829
:101ED400400D030003000000348E070800000000DA
:101EE40000000000A1AC040810270000020000005C
:101EF40084670708000000000000000041E70108B3
:101F04001027000003000000909D07080000000057
:101F1400000000009D840408A08601000200000067
:101F2400706F070800000000000000009987040893
:101F340050C3000002000000186D070800000000F4
:101F440000000000E57F0408A86100000200000012
:101F5400508E07080000000000000000F54D040842
:101F6400A00F000002000000989D07080000000078
:101F74000000000079D001081027000002000000D2
:101F8400147E0708000000009D7C0108C9C30108F5
:101F94008545010002000000D86C0708000000001D
:101FA40000000000291A01081027000002000000A8
:101FB4006C6707080000000000000000A937020851
:101FC40050C3000002000000A49D070800000000A8
:101FD4000000000025260108400D03000100000058
:101FE400AC9D07080000000000000000ED4C040850
:101FF400400D030002000000B49D0708000000002B
:102004000000000025F7010850C300000300000091
:10201400C09D070800000000000000002D06040811
:1020240040420F0001000000CC9D070800000000A2
:1020340000000000CD4D040850C300000100000062
:10204400D89D070800000000000000006D69010829
:102054001027000002000000FFFF0000FFFFFFFF49
:102064009CE10708000008020503030000000000CB
:10207400A8E10708010008020504030000000000AD
:10208400B4E1070800000802050303000000000093
:10209400BCE1070801000802050403000000000079
:1020A400848D07080200FE010110030000000000F7
:1020B4000C6E070803001402000300000000000077
:1020C400C4E1070804001F02020008000000000029
:1020D400CCE1070805001F0202010800000000000F
:1020E4001A030000000000000000000000000000CF
:1020F40000000000000000000000000004030904C8
:102104001201000200000040830420570002010273
:1021140003010100B56A0508896A05082D6A0508E6
:102124003D5B0508496A0508ED690508395B050842
:1021340040190020A96B0508C9610508996B0508B9
:102144001D5B0508556B05080D6B05080D5B05083F
:102154001C190020C1640508255B0508215B0508DE
:10216400195B050811650508155B0508115B050871
:10217400D8550708ED450108A5130108CD44010809
:102184000000000000000000653C0108753B0108E8
:102194000000000000000000000000006D120108B3
:1021A400C55B0508B95B0508016C05081D6C0508CD
:1021B400715B0508E56B0508C96B050802000000A2
:1021C4000000000018190020F4540120020000004F
:1021D400010000002D5D0508141900200000000016
:1021E4000100000001000000695D050834180020AA
:1021F40000000000000000000000000000000000DB
:1022040000000000000000000000000001000000C9
:1022140000000000000000000000000000000000BA
:1022240001000000000000000000000000000000A9
:10223400000000000100000000000000D8000000C1
:10224400000000000500000006000000FFFFFFFF83
:10225400030000000000000005000000050000006D
:102264001F0000001C0000001F0000001E000000F2
:102274001F0000001E0000001F0000001F000000DF
:102284001E0000001F0000001E0000001F000000D0
:102294000068214C01000000FC55070806000000FE
:1022A40005000000008002021F00000053544D206E
:1022B4002020202050726F6475742020202020205C
:1022C40020202020302E3031008002021F00000028
:1022D40053544D202020202050726F6475742020A8
:1022E4002020202020202020302E30310B0101011D
:1022F4000100000050C300000101FF01250000009F
:10230400345A07080000000000000000000000002C
:1023140001000000000000000000000000000000B8
:10232400000000000100000000000000F4010000B3
:102334002AFF0000A40000000000000000000000CC
:10234400000004010000020001000002100000006F
:102354000700000000000000000000000102030468
:1023640006070809C70000000500000006FF00007A
:10237400EC19002000000000000000000000000034
:102384000000000000000000000000000000000049
:102394000000000000000000000000000000000039
:1023A4000000000000000000000000000000000029
:1023B4000000000000000000000000000000000019
:1023C4000000000000000000000000000000000009
:0423D4000000000005
:08280000082800080040000850
:10800000134B0268196821EA02011960596821EAD4
:108010000201596019680A431A609968026821EAE6
:1080200002019960D96821EA0201D96041791029D9
:1080300007D001F1804303F59E3319680A431A60A3
:108040007047996811439960D9680A43DA607047AC
:10805000003C0140024B9A6D136A002BFCD1704723
:10806000501A0020F0B401292D4C2E4D4FF000067F
:1080700094BF00230123EE62C4F81861C4F81C61A8
:10808000C4F82831D4F82871D4F8F43047EA42070C
:10809000C4F82871EE63EC6B002A38D144F495746F
:1080A000EC631C6824F001041C601C68E407FCD429
:1080B000490289085960D8601968EAB921F040017D
:1080C000196019498B421DD018494FF47410C860CB
:1080D000196841F01E011960596941F08001596128
:1080E000196841F00101196022B90E4AD36A43F0C0
:1080F0000803D362F0BC704741F0400119600A499F
:108100008B42E1D14FF0746041F8500CE0E744F04D
:108110001A04EC63EC6A44F00804EC62C1E700BFA7
:10812000501A0020002C01405864024000640240B4
:108130001248002302461178032902F1060218D0E2
:108140000133062BF7D10E4AD2F85031052B0FD050
:10815000591C03EB4303C2F8501100EB4303032007
:1081600040F2EB3140F2FF32187059809A8070472C
:10817000704703EB430300EB4303F0E77C1B002055
:10818000501A002030B51349134B8DB00825012239
:1081900001F15800069381F8F05000230DEB050122
:1081A0000DF10704CDE90733CDE9034202938DF8C1
:1081B000143009930B938DF8282049F0A7FDFFF7A1
:1081C00049FF9DF80700A0F1FF00B0FA80F04009D8
:1081D0000DB030BD501A0020DD810008826D136A99
:1081E0005B681B78FF2B08D090F8F030013BDBB2C6
:1081F00080F8F0301BB10120704700207047126AF0
:10820000526802201370704770B4C3080D4CE25CD2
:1082100000F00706B24004EBD004D2B20020C6F151
:1082200008038B4228BF0B46C3F108052A4198403A
:10823000C91A40EA02004FF0000614F8012FEED1EF
:1082400070BC7047901A0020084AD2E95531994213
:108250000AD0D118013391F85C110170C3F30A03FD
:10826000C2F854310120704700207047501A002096
:10827000044BD3E95530C01AC0F30A00C0F50060C2
:10828000704700BF501A0020012380F8513070471A
:1082900007B501A8FFF7D8FF0028FAD09DF8040021
:1082A00003B05DF804FB034BD3E95530C01AC0F3AB
:1082B0000A007047501A002001207047024BC3F893
:1082C0005C29C3F860197047501A0020024BC3F8AC
:1082D0006429C3F868197047501A00207047704726
:1082E00030B4114DD5E955239A1AC2F30A020A4453
:1082F000B2F5006F13D8A9B101444A1E013810F835
:10830000014FE918824203F1010381F85C41C3F394
:108310000A03F4D1C5F85831002030BC7047022060
:1083200030BC70470846F8E7501A002070B5144C6E
:1083300094F86C39002BFBD1F9B101444E1E451E57
:1083400002E0012048F062F9D4F87039D4F87429B9
:108350000133C3F30A039342F3D0D4F87029D4F85D
:10836000703915F8011F22440133C3F30A03B542E3
:1083700082F87819C4F87039E6D1002070BD00BFCA
:10838000501A002010B5094CD4F880300846114628
:108390005BB1D4F88030052B07D1002AD4F88430A3
:1083A00003DDFFF7C3FFD4F8843010BD482B002055
:1083B00010B590F85010002380F8503081B10B4C6C
:1083C000D4F8802072B1D4F88020052A0CD13C303A
:1083D000D4F88430FFF7AAFFD4F88430012010BD10
:1083E0000120FCE71046FAE71846F8E7482B002082
:1083F000002280F85120DBE790F85020531C024403
:10840000DBB280F8503082F83C1090F851200AB16D
:10841000132B00D9CCE77047212838B50C4605D07E
:1084200022282FD0202813D0002038BD0029FBD0CF
:10843000072AF9D11A4BD3F8880093F88C1093F8D7
:108440008D2093F88E30206021716271A371EBE76B
:108450000029E9D0072AE7D1124AD2F860391BB1C6
:10846000D2F85C09096898470D4B25682079617935
:10847000A279C3F8885083F88C0083F88D1083F8B4
:108480008E20D1E70029CFD0022ACDD1054AD2F8DB
:108490006839002BC8D00988D2F864099847C3E727
:1084A000482B0020501A0020024B0020C3F8800007
:1084B000704700BF482B0020054B064A00200521CD
:1084C000C2F88010C3F86809C3F86009704700BF9C
:1084D000501A0020482B0020704700BF704700BF93
:1084E000704700BF704700BF704700BF704700BFB4
:1084F000704700BF042301480B807047980100209B
:1085000010B4074A074B92F89000122403F11402AA
:108510000C8001280CBF184610465DF8044B7047CC
:10852000482B00209C01002000487047781A00204A
:1085300000487047781A0020034B93F82400032862
:1085400094BF002001207047501A0020034B93F87D
:108550002400032894BF002001207047501A0020F7
:10856000034B93F82400003818BF0120704700BF68
:10857000501A0020034B93F82400003818BF012044
:10858000704700BF501A0020A0B182680D4B12B195
:1085900007229A7070471978DA6003294FF00400B7
:1085A0000CBF80214FF48071C3E901111A611A7563
:1085B00098707047034B41F2E47101225A545A708B
:1085C000704700BFFCBD00200378022B10D000696B
:1085D00008B9012070470C4B1B78032B0EBF0B4BC7
:1085E00080B24FF6F773984294BF00200120704785
:1085F0000549436841F650028A58B3EB422F2CBF1D
:1086000001200020704700BFFCBD0020F7FFFF0FD6
:108610000378022B14D030B4104A4368006941F645
:10862000480402F5C2511559096841F63C042B4033
:1086300012595B0A023801FB0030104430BC70470D
:10864000064B426841F6340141F63000595818583B
:1086500000EB410000EB5220704700BFFCBD002042
:1086600070B592B00B0E0D0C40F0400695220446FA
:108670008DF80810080A01A98DF805308DF806500C
:10868000002306258DF807008DF809200DF1030061
:108690000122039114498DF80460CDE90733CDE937
:1086A0000D33CDE9090204938DF818308DF82C3084
:1086B0000F93119305958DF840200C91FFF762FD03
:1086C00000B974B9094B082203F1580003A983F8D3
:1086D000F02049F01BFBFFF7BDFC9DF8030012B032
:1086E00070BDFF2012B070BDF1860008501A002046
:1086F000836D1B6A5B681B78FF2B0AD190F8F03002
:10870000002B03F1FF3380F8F03014BF012002206A
:1087100070470020704700BF30B51049104B8DB036
:108720000546012201F15800069381F8F05000231C
:1087300002A90DF10704CDE90733CDE90342029305
:108740008DF8143009930B938DF8282049F0DEFA48
:10875000FFF780FC9DF807000DB030BD501A0020D7
:10876000F186000870B51C4E90B00024FD22012552
:108770000DF1030306F1580001A98DF803200693BB
:10878000CDE90144CDE90A44CDE90C4434628DF8C9
:108790001040059407948DF824400F940395089594
:1087A0008DF8385049F0B2FAFFF754FC2846FFF72D
:1087B000B3FFFF2809D0094BD3F8843073612046FA
:1087C000092386F8243010B070BD0423022086F8F7
:1087D000243010B070BD00BF501A0020482B00207C
:1087E00070B5064690B008200D46FFF795FFFF28AC
:1087F00022D0FE2802D0022010B070BD0024022238
:1088000001230F48089201A98DF83830CDE90544BD
:10881000CDE90A44CDE90C440296039501948DF804
:10882000104007948DF824400F9449F06FFAFFF739
:1088300011FC204610B070BD012010B070BD00BF0B
:10884000A81A002008B5FFF705FC0A2047F0C0FD74
:10885000024B186EBDE8084048F0BEBE501A00201A
:10886000F0B50379274C002B14BF012200228BB0F6
:1088700084F8502003D184F824300BB0F0BD0546B5
:1088800090F9001004F1580049F0B6FBAD7865BBD3
:1088900001271D482566C4F8EC4084F8647049F04F
:1088A000E1FB1A4E03464FF47A70A4F85C3047F0AF
:1088B000ADFE206E48F090FE0FCE6D460FC50FCE78
:1088C0000FC596E8030085E803001148694649F0A2
:1088D0001DFAFFF7BFFB0F4B84F82470D3F88430E8
:1088E0006361002323760BB0F0BD284648F08AFB75
:1088F000054608B11E23C3800921284647F038F9F0
:10890000C6E700BF501A0020801A0600ACDB06083C
:10891000A81A0020482B00202DE9F84F494B984217
:108920000ED003F56853083398424ED0464B0020D2
:10893000C3E94000A3F8FC00A3F80801BDE8F88FE4
:10894000414C424FDFF810810223C4F8943004F107
:1089500098060025FB6AAB42294605F1010503D0C4
:10896000D4F8180153F0BEFD94F81C31D4F8182146
:1089700086F8243032623046414653F0C7FFD4F8BF
:1089800094309D4206F13006E4DB002384F80A317E
:10899000D4E92803D4F89410B4F89C20B4F8A85073
:1089A000C4F8283112FB01F203FB01F3A4F8FC2008
:1089B000B4F89E10264AA4F80851C4E94003A4F86C
:1089C000FE10C4F8F8200120B8E71F4C1F4F022307
:1089D000C4F8943004F198054FF0000B4FF4806A0E
:1089E0004FF040094FF40068FA6A01265A4559468B
:1089F000B34403D0D4F8180153F074FDD4F818111F
:108A000094F81C21296285F824204FF400314FF09E
:108A10000062C5E90212A5F804A0A5F81090A5F817
:108A20000680AE74FFF784FB28466E7653F0BAFEDC
:108A3000D4F89420074B45F8303B9345D4DB84F8B9
:108A40000A61A5E71971EF00482B0020980100206A
:108A500000DC0608D4DB06081940EF002DE9F843D6
:108A6000194C94F82460042E0546894690461F460A
:108A700008D0082E02D00020BDE8F883FFF772FE70
:108A80000228F8D1206E48F0A1FDA37E9BB96902AF
:108A90001120FFF7E5FDA0B90C4BC4F80090D3F806
:108AA000842065600523C4E90387626184F824306B
:108AB0000120BDE8F88329461120FFF7D1FD0028E9
:108AC000EAD0FFF7BFFED6E7501A0020482B00205F
:108AD0002DE9F04FCF4ED04D86468C4617460FCE2F
:108AE00005F596742DED068B0FC40FCE0FC496E8D6
:108AF000070089B095F86231039784E80700CDE953
:108B000004EC042B00F24881DFE813F0B4014601C5
:108B100041010500C4019FEDC18ADFEDC18AC14951
:108B2000C5F84811C049C14BC14AC5F84411039961
:108B3000002918BF134638EE887AF5EE006AC6EEB3
:108B4000879ABC4EC5F85031A6F1120B06F1C00849
:108B50000027DFEDB97A9FEDB99A28EE278AB0EEAB
:108B600067AA059BBB4200F00C811BF8013BEA1889
:108B700092F86741002C00F01481002202E0152ACF
:108B800000F00F8102EB42014FEA420918F80100A0
:108B9000A04202F10102F2D1294491F845120029C4
:108BA00000F066812046029344F078FF029B8246E3
:108BB0005046029344F092FF0178002940F0F18082
:108BC000029BA9440133DBB2032289F8853289F87C
:108BD0008422BAF1000F00F0E4804FEA141909F181
:108BE000FF39B9F1040F04F00F0000F20881944C32
:108BF00004EB4901B1F8ACC04CFA00F111F00101ED
:108C000000F0FD80012101FA00F0013800EA0C00BB
:108C1000A144029362F080FC99F8B8C0DFF838E212
:108C2000029B60440EEBC00C03228CF807308CF8DA
:108C300006205EF83000C6F814C000F13F4303F58B
:108C40007E0304EB9324012194F8C0309AF80820A5
:108C500003F01F045B09032B01FA04F100F0038108
:108C6000042B00F0FB80022B00F0CF80BCF8043016
:108C70000693B3FA83F3C3F11F03C3F3CC0100EBF4
:108C8000810103F007030C6A9B004FF00F0C0CFAF4
:108C900003FC24EA0C040C620C6A02FA03F323437B
:108CA0000B62022306A907930BF0E2FF039B002B44
:108CB00000F08380B5F86031D5F8301507EE903AB2
:108CC000F8EEE77AFCEEE77A17EE900AB1FBF0F2E5
:108CD00002F57F42FF32120CB1FBF2F295F86211FD
:108CE000B2FBF0F0042983B27ED007EE902AF8EEB2
:108CF000676A66EE887A29EE677A95F863010499C7
:108D00000091A8EEA67A019051463046C6ED027A4F
:108D100086ED037A37F036F8002F72DD7368D5F8E8
:108D2000882193426FD0012F6BD0D5F8A0219342B8
:108D300069D0022F65D0D5F8B821934263D0032FB4
:108D40005FD0D5F8D02193425DD0042F59D0D5F80B
:108D5000E821934257D0052F53D0D5F800229342F3
:108D600051D0062F4DD0D5F81822D31A18BF0123A1
:108D700001370122082F3374727406F118067FF44C
:108D8000F0AE304809B0BDEC068BBDE8F08F9FED2A
:108D90002E8AF0EE488AC2E69FED2C8AF0EE488AD1
:108DA000BDE62B4A224BC5F848210020C5F85031BA
:108DB00009B0BDEC068BBDE8F08FB0EE690A63F038
:108DC00011FBFCEEC07A4FF6FF7317EE902AD5F830
:108DD0003015B1FBF2F21A44120CB1FBF2F295F825
:108DE00062110429184680D107EE900A07EE102A76
:108DF000F8EE677AF8EE476A67EE8A7A7BE7716188
:108E000054E70123B4E70023B2E7124B5C6C214323
:108E100059642BE72CDC0608482B0020ACC5A7378B
:108E2000ACC5A73629EA0308F1E004081DE10308F0
:108E3000E5E00408CC2C00206F12833A00007A444D
:108E4000ACDB0608742C0020282930386F12033957
:108E50006DE2030800380240F82D00200F4B1C6B18
:108E60002143196302E70D4B1C6C21431964FDE695
:108E70008A469DE69FED0A8A0A4A0B4BC5F84821AF
:108E8000C5F8443100220123CDE90332F0EE488ACF
:108E9000064B50E69FED068AEEE700BF0038024021
:108EA0006F12833A29EA0308F1E00408E5E00408B8
:108EB00000000000F8B5104ED6F8304505460068B1
:108EC0000F4664080BF0D8FDB4FBF7F1B1F5803F15
:108ED00003D3012CFAD96408F6E72246284689B262
:108EE00044F07AFC054BC6F8983D28460449BDE895
:108EF000F840002244F07EBB482B002009280208DD
:108F0000E038002010B5044C04480A4621460AF017
:108F100037FC204610BD00BFE8380020505E07082F
:108F200010B5044C04480A4621460AF029FC2046A4
:108F300010BD00BFE8380020605E070810B5044C83
:108F400004480A4621460AF01BFC204610BD00BF1B
:108F5000E83800206C5E070810B5044C04480A4647
:108F600021460AF00DFC204610BD00BFE838002065
:108F7000785E070810B5044C04480A4621460AF0FA
:108F8000FFFB204610BD00BFE8380020845E0708C4
:108F900010B50C4C94F8F2200023236212B10A4A57
:108FA000C2F8A03E5CF0FEF820B10423022084F851
:108FB000243010BD044BD3F884306361092384F856
:108FC000243010BD501A0020482B002070B50D4DE4
:108FD00095F82430042B04460E460AD0082B06D1FF
:108FE000EB6983420CD0FFF7D3FF022801D00120A8
:108FF00070BD0823C5E9074685F82430022070BDFE
:10900000022070BD501A002010B50AF08DFB0F4CE5
:1090100048B194F82430032B11D8237E0133DBB2FE
:10902000072B237603D9002384F8243010BD084A87
:109030000123D2F88420626184F8243010BD0548F1
:1090400049F010F8A4F85C00E7E700BF501A0020D0
:10905000482B0020801A060070B51D4C94F824306F
:10906000042B06460D4608D0082B20D1E369834225
:109070002BD0FFF777FB022819D1206E48F0A6FA13
:1090800000213720FFF7ECFA29461720FFF7E8FA0E
:10909000A8B9A37E6BB971021920FFF7E1FA70B984
:1090A0000823C4E9076584F82430022070BD01203C
:1090B00070BD31461920FFF7D3FA0028F0D0FFF732
:1090C000C1FBFFF7A1FF032070BD022070BD00BFF0
:1090D000501A00202DE9F0412B4C054688461746D2
:1090E0001E4694F82400042834D0082806D1E369E9
:1090F000AB4206D0FFF736FB0228F2D00120BDE8D4
:10910000F0814FF0FC0CA26D2048117B204B80F8C1
:10911000A4CEC3F8588051B1526942B194F8E0200E
:10912000002A0CBF4FF480724FF4007201E04FF43C
:1091300080721A661749184848F0E8FD0122062394
:10914000C4E90085C4E90376227284F82430002043
:10915000BDE8F081206E48F039FAA37E5BB9690260
:109160001820FFF77DFA40B994F82430082BC8D0B6
:109170004FF0FE0CC7E72946F2E7FFF763FBFFF766
:1091800043FF0320BBE700BF501A0020482B0020FC
:1091900098010020C8010020A81A002070B50379AA
:1091A000204C002B14BF0123002384F8503003D13E
:1091B000002384F8243070BD1B4D002195F9AB2E9F
:1091C000032047F0DDFD0028F2D04668304647F026
:1091D000C5FD84F8F1000028EAD095F8A93E003BCF
:1091E00018BF0123304684F8F2305CF035FF0AF0F6
:1091F0009BFA28B9237E84F824000133237670BDBE
:109200005CF0BAF830B1237E00220133237684F873
:10921000242070BDD5F8843063610123207684F862
:10922000243070BD501A0020482B002010B55CF08F
:10923000A3F848B10B4C237E0133DBB2072B237616
:1092400003D9002384F8243010BD0AF06DFA0028F9
:10925000F7D0054A0123D2F88420626184F82430D3
:1092600010BD00BF501A0020482B00202DE9F0410E
:10927000844C94F85050002D00F0F28094F8242093
:10928000814E0227531E082B3FD8DFE803F0353705
:109290009C3E694F153E05005BF084FF002840F0BE
:1092A000E6806369D6F88420FA3393422AD2FFF726
:1092B000BDFF94F82420E5E75BF074FF0028F0D0B0
:1092C000236A0022012B227640F2D580E16994F8CE
:1092D000F200013B0131C4E9071310B16A4BC3F836
:1092E000A02E082284F82420A2F10805B5FA85F5FD
:1092F0006D092846BDE8F08184F824705BF052FFC8
:10930000002844D194F82420531EDBB2022B0AD843
:109310005D4B6169D3F884305B1AC82BE4D9FFF741
:1093200085FF94F82420042ADED1E2E7D4F8243122
:10933000002BD9D1544BE668D3F8843063610722FF
:1093400084F82420002ECFD0D4E900212369012005
:10935000B047D7E76369D6F8841064338B42C3D231
:10936000D4F82081B8F1000FF4D15BF01BFF002886
:109370009FD0E66884F81880042384F82430002EF7
:1093800073D0D4E9002123694046B047BAE75BF0C7
:10939000AFFB0028B6D196F8AD3E002BA3F1020337
:1093A000B3FA83F314BF022201225B096276A3762B
:1093B0005BF09EFB00287FF47AAF344A0323926C63
:1093C000A26284F824305BF093FB00289AD12E4BE4
:1093D000206293F8DC6EB3F8DE0ED3F8E0EED3F83B
:1093E000E0CED3F8E07ED3F8E02E84F82E6093F838
:1093F000E41EA08593F8E56E84F8322093F8E50E1C
:10940000D3F8E82E6263B3F8EE8EB3F8EE2E84F84C
:109410003310B3F8EE1EC2F30B1343EA182303F024
:109420000F0301F00F024FEA1E6E4FEA1C4C3F0A79
:10943000360900F00F0003F5FA63042184F83900BF
:1094400084F82FE084F830C084F8317084F83860F4
:10945000638784F83C2084F824102846BDE8F08116
:1094600084F824502846BDE8F081054641E70423EE
:1094700084F824303DE7FAD1FFF78AFD94F82420E0
:10948000531E42E7501A0020482B0020F8390020D4
:109490002DE9F04FC64C94F8506095B0002E00F0C6
:1094A000818194F82420C34F04F1580804F1400945
:1094B000531E082B00F29680DFE813F034005A00A8
:1094C000200194008300A500190094000900FEF714
:1094D00059FE002840F01B826369D7F88420FA33D4
:1094E00093427CD2FFF790FD94F82420E0E7FEF74A
:1094F00049FE0028F0D0236A0022012B227640F298
:109500001C82E269013B511CC4E90713082284F85C
:109510002420A2F10806B6FA86F67609304615B080
:10952000BDE8F08F206E48F051F800210846FFF7A3
:1095300097F80546FFF786F9012D50D1206E4FF0C0
:10954000000A84F819A048F041F840F2AB11082055
:10955000FFF786F8052800F07A81012800F04281A3
:10956000FFF770F9627E002AD1D0022384F82430FC
:10957000206E48F02BF8637E022B0CBF4FF0804525
:10958000002500213720FFF76BF829462920FFF737
:1095900067F80546FFF756F90DBB637E022B00F016
:1095A0006981A576206E48F011F800210920FFF7A7
:1095B00057F8002873D0FFF745F994F82420531E7C
:1095C00010E020684FF40071FFF70AF9012800F05D
:1095D0002681022800F02A81002800F03A8194F8C0
:1095E0002420531EDBB2022B0AD8724B6169D3F8D8
:1095F00084305B1AC82B8CD9FFF706FD94F8242021
:10960000042A86D18AE7A26D117B136A002900F033
:10961000D5805269002A00F0D18094F8E020002A19
:1096200000F0CC80B3FA83F35B09002BD7D004A9F8
:1096300000250DF10F0302224FF0010A059140466B
:1096400005A9CDE90B3A0792CDE90955CDE90E55AB
:10965000CDE91055ADF8105006958DF820508DF8D5
:10966000345013958DF848A048F050FBFEF7F2FCFB
:109670009DF80F3003F01F03052B00F05181FFF719
:10968000C3FCD4F80CB0BBF1000F00F0DD802A461B
:10969000236961685046D84794F8242008E71021D0
:1096A0004846FFF79DF88246002884D101217F209B
:1096B000FEF7AAFD012805467FF47DAF5046022142
:1096C000FEF7A2FD002800F0048101287FF473AFAB
:1096D00016213A20FEF798FD01308002A062FFF7C4
:1096E000B1F8206E47F072FF00210A20FEF7B8FFA4
:1096F000002840F0E780032384F82430102105A8D7
:10970000FFF76EF800287FF46AAF9DF821309DF8CE
:1097100022109DF81C209DF815009DF816501B0185
:10972000DBB243EA111303F5FA636387DDF81D30FA
:1097300001F00F0184F83C101BBA110902F00F026E
:1097400045EA002084F8381084F839209DF8141078
:109750009DF817206363069B2363A08584F82E1071
:1097600084F82F20FFF76EF8A37E6BB9206E47F0C8
:109770002DFF4FF400711020FEF772FF0546FFF732
:1097800061F8002D7FF4AEAE0B4848F06BFC002270
:109790000423A4F85C003046226284F8243015B01B
:1097A000BDE8F08F304684F8246015B0BDE8F08F36
:1097B000501A0020482B002040787D012268217A31
:1097C0004FF4807302EB01214046002248F06AFE0C
:1097D000237A0133DBB22372A3F10203B3FA83F3DA
:1097E0005B0922E7042304AA8DF8340005A940464A
:1097F00007930692CDE909AACDE90BAACDF814A0EA
:109800008DF820A0CDF838A048F080FAFEF722FCB1
:109810009DF81330AB2B04BF02236376A0E6636987
:10982000D7F8842064339342BFF4D9AEFFF70AF827
:10983000FFF7EAFBE5683DB1002210462369616845
:10984000A84794F8242033E694F8242030E665767F
:1098500086E60190FEF7F6FFE5680198207604237E
:1098600084F82430002D3FF459AED4E90021236957
:10987000A847B4E6206E47F0A9FE29463A20FEF735
:10988000EFFE04A98246042201230691404605A961
:1098900007928DF83430CDE90955CDE90B55059582
:1098A0008DF820500E9548F031FAFEF7D3FBBAF14F
:1098B000000F07D1FEF7C6FF049B1BBAC3F38073EA
:1098C000A3766FE6FEF7BEFFFFF79EFB94F8242019
:1098D000EEE504212C20FEF797FC032182464E2062
:1098E000FEF792FC0C2183463620FEF78DFC0BF12F
:1098F000020B421C02FA0BF205FA0AF5A2FB050163
:10990000420A42EAC152A262FEF79CFFE9E60190D8
:10991000FEF798FF01980423064684F82430FDE5FD
:109920000E4BE568D3F884306361072284F8242065
:10993000002D3FF4EEAD504697E708D0042384F89D
:109940002430FEF77FFF94F82420531E4AE6FEF7EA
:1099500009FF02287FF443AE2DE600BF482B00200C
:109960002DE9F84FBA4C94F8081F0546C1F34001A1
:10997000D4F8100F47F036FE94F8081FD4F80C0FF7
:10998000C94301F0010147F02DFE002D00F0CD800C
:109990006E1EB04FB04D5FFA86FB4FF01008D4F842
:1099A000100F47F003FED4F80C0F47F0FFFDB4F89A
:1099B000183F002B40F0438194F81A1FD4F81C0F75
:1099C00047F010FE4FF0FA094FF47A704FF0010C97
:1099D0007B68C3F30803002B40F00881EFF3118389
:1099E000002B40F00381D4F88420A968D4F8843097
:1099F0009A42F8D1D4F8403F9942F4D8D4F83C6F59
:109A000000FB06F35B1AB3FBF6F300FB02327B6844
:109A1000C3F30803002B40F0A880EFF31183002B61
:109A200040F0A380D4F88430D5F808A0D4F884108E
:109A30008B42F7D1D4F8401F8A45F3D8D4F83C6F55
:109A400000FB06F1A1EB0A01B1FBF6F100FB0313E9
:109A50009B1AB3F57A7FDAD3B9F10109B8D1D4F8FA
:109A6000100F47F0A3FDD4F80C0F47F09FFDB4F89A
:109A7000183F002B40F0D78094F81A1FD4F81C0F21
:109A800081F0010147F0AEFD4FF0FA0C4FF47A700F
:109A90004FF0010E7B68C3F30803002B40F0868073
:109AA000EFF31183002B40F08180D4F88420A96863
:109AB000D4F884309A42F8D1D4F8403F9942F4D88F
:109AC000D4F83C9F00FB09F35B1AB3FBF9F300FBEE
:109AD00002327B68C3F308034BBBEFF3118333BB44
:109AE000D4F88430D5F808A0D4F884108B42F7D18C
:109AF000D4F8401F8A45F3D8D4F83C9F00FB09F105
:109B0000A1EB0A01B1FBF9F100FB03139B1AB3F5BA
:109B10007A7FDED3BCF1010CBCD10BF1FF365FFACA
:109B200086FBBBF1FF0F7FF43AAFBDE8F88FEFF390
:109B3000118988F31288AE682B68DB0344BFC4F830
:109B400038EFAE68D4F88430D4F8381F5FFA89F95A
:109B500089F31188D4F83C9F0B4400FB09F1891B61
:109B6000B1FBF9F100FB0313D0E7EFF3118E88F39B
:109B70001288D5F808A02B68D90344BFC4F838CFA1
:109B8000D5F808A0D4F88430D4F8381F5FFA8EFED8
:109B90008EF31188D4F83C6F0B4400FB06F1A1EB67
:109BA0000A01B1FBF6F100FB031351E7EFF311815A
:109BB00088F31288D5F808902B68DA0344BFC4F8FC
:109BC00038EFD5F80890D4F88430D4F8382FC9B2DB
:109BD00081F31188D4F83C1F1A4400FB01F3A3EB76
:109BE0000903B3FBF1F300FB023272E7EFF31181DB
:109BF00088F31288AE682B68DB0344BFC4F838CF03
:109C0000AE68D4F88430D4F8382FC9B281F3118803
:109C1000D4F83C1F1A4400FB01F39B1BB3FBF1F388
:109C200000FB0232F3E6D4F8343F002B3FF42CAFB4
:109C3000D4F8203FC3F8009084F8319F24E7D4F88B
:109C4000343F002B3FF4BEAE46F0A0FDBAE600BFA5
:109C5000482B002000ED00E010E000E02DE9F84F77
:109C6000B74CB84F94F8081FD4F8100FB64DC1F395
:109C7000400147F0B7FC94F8081FD4F80C0FC94313
:109C800001F0010147F0AEFC4FF0050B4FF010085A
:109C9000D4F8100F47F08AFCD4F80C0F47F086FC7C
:109CA000B4F8183F002B40F0438194F81A1FD4F801
:109CB0001C0F47F097FC32264FF47A704FF0010CDE
:109CC0007B68C3F30803002B40F00781EFF3118397
:109CD000002B40F00281D4F88420A968D4F88430A5
:109CE0009A42F8D1D4F8403F9942F4D8D4F83CEFE6
:109CF00000FB0EF35B1AB3FBFEF300FB02327B6842
:109D0000C3F30803002B40F0A780EFF31183002B6F
:109D100040F0A280D4F88430D5F808A0D4F884109C
:109D20008B42F7D1D4F8401F8A45F3D8D4F83CEFE2
:109D300000FB0EF1A1EB0A01B1FBFEF100FB0313E6
:109D40009B1AB3F57A7FDAD3013EB9D1D4F8100F5C
:109D500047F02CFCD4F80C0F47F028FCB4F8183F5F
:109D6000002B40F0DA8094F81A1FD4F81C0F81F011
:109D7000010147F037FC4FF0320C4FF47A700126A6
:109D80007B68C3F30803002B40F08780EFF3118357
:109D9000002B40F08280D4F88420A968D4F8843065
:109DA0009A42F8D1D4F8403F9942F4D8D4F83C9F75
:109DB00000FB09F35B1AB3FBF9F300FB02327B688B
:109DC000C3F308033BBBEFF3118323BBD4F8843008
:109DD000D5F808A0D4F884108B42F7D1D4F8401FEE
:109DE0008A45F3D8D4F83C9F00FB09F1A1EB0A01A6
:109DF000B1FBF9F100FB03139B1AB3F57A7FDED3B5
:109E0000BCF1010CBCD10BF1FF3616F0FF0B7FF457
:109E10003FAFBDE8F88FEFF3118988F31288D5F8CA
:109E200008A02B68DB0344BFC4F8386FD5F808A03E
:109E3000D4F88430D4F8381F5FFA89F989F311888F
:109E4000D4F83C9F0B4400FB09F1A1EB0A01B1FBE4
:109E5000F9F100FB0313CFE7EFF3118E88F31288BB
:109E6000D5F808A02B68D90344BFC4F838CFD5F87B
:109E700008A0D4F88430D4F8381F5FFA8EFE8EF331
:109E80001188D4F83CEF0B4400FB0EF1A1EB0A0162
:109E9000B1FBFEF100FB031352E7EFF3118188F3EE
:109EA0001288D5F808902B68DA0344BFC4F8386FDD
:109EB000D5F80890D4F88430D4F8382FC9B281F39B
:109EC0001188D4F83C1F1A4400FB01F3A3EB0903EB
:109ED000B3FBF1F300FB023271E7EFF3118188F37A
:109EE0001288D5F808E02B68DB0344BFC4F838CFEC
:109EF000D5F808E0D4F88430D4F8382FC9B281F30B
:109F00001188D4F83C1F1A4400FB01F3A3EB0E03A5
:109F1000B3FBF1F300FB0232F1E6D4F8343F002B3F
:109F20003FF429AFD4F8203F1E6084F8316F22E758
:109F3000D4F8343F002B3FF4BEAE46F027FCBAE61F
:109F4000482B002000ED00E010E000E00E4B30B4A4
:109F5000DB68427801780D4CDB43C3F30223C3F185
:109F60000403DBB202FA03F360181B0101F01F05C2
:109F70000122490903F0F003AA4080F8003344F8B5
:109F8000212030BC704700BF00ED00E000E100E0A0
:109F900000F01F0240090123032803FA02F304D052
:109FA00004280CD0022805D07047074A116C0B43D7
:109FB00013647047044A516C0B4353647047024A60
:109FC000116B0B43136370470038024000285FD0C9
:109FD0000368374A2DE9F04103F13F4404F57E045C
:109FE00002EB9422012492F8C02002F01F055209CE
:109FF000032A04FA05F456D0042A4FD0022A48D086
:10A000008588B5FA85F0C0F11F00C0F3CC0603EBDC
:10A01000860600F0070082000F24306A944020EA90
:10A0200004003062306A01FA02F202430021326217
:10A030004FF0010E0A464FF0030C02270EFA02F809
:10A0400038EA050002F101021CD118680CFA01F48B
:10A0500020EA04001860186807FA01F606431E603B
:10A060009E6826EA04069E6098689860586820EA10
:10A070000800586058685860D86820EA0400D86022
:10A08000D868D860102A01F10201D7D1BDE8F0816B
:10A090007047084A556C2C435464B1E7054A156B68
:10A0A0002C431463ACE7034A156C2C431464A7E7F4
:10A0B000ACDB0608003802402DE9F04385B00D46C0
:10A0C0001746044647F0ECFA002859DB3B4EDFF810
:10A0D000F88008EB000206EB800006F6847392F825
:10A0E000C890C0F8443F002C60D0A2884FF00043D5
:10A0F000B2FA82F2D34005D0314A116821EA030155
:10A10000116053612946204645F032FD256805F16E
:10A110003F4505F57E05AD0A204647F0C1FA00F03F
:10A12000FC0303F1804303F59C3300F003009A68BD
:10A1300080000F21814022EA01029A609A68EDB204
:10A1400005FA00F0104398602CB1A0884FF000444D
:10A15000B0FA80F0C44008EB87074E44D7F8D830F7
:10A160008DF80D300021012302A88DF80E300294E5
:10A170008DF80C10FDF744FF96F8883FF02B02D8BD
:10A1800005B0BDE8F0830F4B13F809308DF80430AB
:10A19000F02103224FF4807301A886F8881F8DF800
:10A1A0000520ADF80630FFF7D1FEE9E72946204645
:10A1B00045F0DEFC4FF0FF35AEE700BF482B002036
:10A1C000003C0140EC5E0708ACDB0608002869D0C3
:10A1D000F0B58388B3FA83F3202B85B00446C3F12E
:10A1E0001F024AD0304E314D16444FF0004005EB6F
:10A1F000820230FA03F396F8C860C2F8441F05D013
:10A200002B4A116821EA03011160536120460021A5
:10A2100045F0AEFCA3882268B3FA83F4C4F11F03AF
:10A2200003F0FC0101F1804101F59C3103F00303CF
:10A2300098000F2702F13F438A68874022EA07020D
:10A2400003F57E038A60C3F38723834088684FF059
:10A2500000420343354422FA04F48B604FF4006259
:10A26000012302A88DF80E300294ADF80C20FDF702
:10A27000C7FE95F8883FF02B01D805B0F0BD0D4B17
:10A280009B5D8DF80430F02103224FF4807301A808
:10A2900085F8881F8DF80520ADF80630FFF756FECB
:10A2A00005B0F0BD704700BFACDB0608482B0020AE
:10A2B000003C0140EC5E070810B4B8B10D4CD4F876
:10A2C000903F102B05D15DF8044B0521002045F08F
:10A2D00037BF03EB4302224482F8951F01210B4450
:10A2E00082F8940F82F8961FC4F8903F5DF8044BF3
:10A2F000704700BF482B002080782021DCE700BF9A
:10A300002DE9F04FDFF8ACA32DED028B9AF8D81FA2
:10A31000002297B0CAF8C82FCAF8CC2FCAF8D02F9D
:10A32000CAF8D42FCAF8C42F19B19AF8D92F8AF8CD
:10A33000C42F9AF8DA2F1AB19AF8DB2F8AF8D32FA4
:10A340009AF8DE2F1AB19AF8DF2F8AF8CE2F9AF8F2
:10A35000DC2F1AB19AF8DD2F8AF8C92F9AF8E03F5E
:10A3600005935A1ED3B257B203937B1C00F0AA8008
:10A37000C54AC64E52F83790029602EBC702002338
:10A380001279019308EE102A1D4634469846267825
:10A390003946304648F024FD83463046BBF1000F75
:10A3A0001ED046F02FFEEA1D1321D2B220B14FF08D
:10A3B000000E827180F807E045F0DAFB207848F063
:10A3C00039FD4FF0070308F1010223714FF001033B
:10A3D00084F802806070CDF804B05FFA82F8E37010
:10A3E0000135042D04F10504D1D118EE100A029EA6
:10A3F000CDF81080FFF7CCFDA549A64A4868024079
:10A4000042F440324A600FB9019B5BB9A24C48202C
:10A41000FFF7BEFD2046022160F0D4FDA26842F0A5
:10A420000102A2609A489C4A4168BAF8E24F41F49E
:10A4300000014160516821F480515160916B21F419
:10A44000401141F480119163D16841F46001D16001
:10A45000956B85F44011C1F3015101EB81011F207F
:10A4600000FA01FC25EA0C0C112505FA01F141EA7C
:10A470000C019163D16841F0E061D160956BC5F347
:10A480000151C1F10401C9B201EB810188404FF0D3
:10A49000120C25EA00000CFA01F108439063E4B1C4
:10A4A000BAF8E41FCAF8EC4FA1B1BAF8E62FCAF81F
:10A4B000F01F62B1019B7948521A90FBF2F2CAF880
:10A4C000F42F6BB917B0BDEC028BBDE8F08F744A66
:10A4D0001288EFE7734A1188E7E7734A1488DFE7C9
:10A4E0004846049960F06EFD684B012003F11408A2
:10A4F0000723F278441CE4B252B375783279A5F19F
:10A500000A0101EB410105EB450C092D03FA01FE9F
:10A5100003FA0CFB02FA01F140F2A080D9F80C20FA
:10A5200022EA0E0E41EA0E01C9F80C10421E02EB9F
:10A5300082021F21062801FA02FC05FA02F273D8F2
:10A54000D9F8341021EA0C010A432046C9F8342016
:10A550000536B045CDD1D9F80820039942F40072F0
:10A56000C9F80820D9F8082042F48072C9F80820F8
:10A57000D9F80820574442F00102C9F8082097F999
:10A58000E82F022046F0FCFB044600289AD04668DB
:10A59000304646F0E3FB454A431E242101FB0323DA
:10A5A00093F89C50002D8DD1059983F89D100622BB
:10A5B00083F89C20002885D0304646F0CFFB5BF026
:10A5C00077FC60680AF0B2F907A80AF071F9049EF6
:10A5D000A26837480792012E8CBF4FF48063002396
:10A5E0000D9309F14C034FF48072CDE90A5608939C
:10A5F00009904FF4003360680C9507A94FF4006789
:10A600004FF40056CDE91023CDE90E760AF062F939
:10A610006268136843F001031360D9F8083043F00F
:10A620008043C9F808304DE7C11FA0F10D0201EBCE
:10A6300081014FF01F0E02EB82020C280EFA01FC82
:10A640000EFA02F005FA01F113D8D9F8302022EA07
:10A650000C0211432046C9F8301079E7D9F81010E0
:10A6600002FA0CF221EA0B0B42EA0B02C9F81020A5
:10A670005CE7D9F82C1005FA02F221EA00010A433E
:10A680002046C9F82C2063E790DC06080C3B00202C
:10A6900000230140E030FCFF002001408038010031
:10A6A0002E7AFF1F2C7AFF1F2A7AFF1F98010020A5
:10A6B000403B0020482B00202DE9F84F2E4F00EBA7
:10A6C000800407EBC40454F8F46C2EB1054614F86A
:10A6D000DF0C00F0FF0820B14FF000084046BDE855
:10A6E000F88F89469A46934645F064FF4FEA490140
:10A6F0000123C9B204F8DE1C04F8DDBC04F8DB3C1D
:10A7000004F8DA8C04F8DC3C04F8DF3C04F8E08C54
:10A71000B28844F8D8AC9105814644F8D4AC1DD435
:10A720003388DA0510D442F20F7405E045F042FF99
:10A73000A0EB0903A34215DC33889B05F6D43388CC
:10A740009BB243F480733380B3889BB243F440736D
:10A750004FF00108B3804046BDE8F88F9846404668
:10A76000BDE8F88F37F8803C01339BB2284627F8C4
:10A77000803C60F065F8B1E7403C002070B5464E83
:10A7800016F87E4C04EB440306EBC303650013F894
:10A790007C3C032B6ED8DFE803F059291E022544C8
:10A7A00006EBC50555F8780C002870D116F81C3C4E
:10A7B0009C425FD0013404F00302934206F87E2CE1
:10A7C00058D002EB420406EBC404022344F8780C90
:10A7D00004F87C3C70BD2B1906EBC30353F8782CAE
:10A7E00072B1013A43F8782C002070BD2B1906EBAA
:10A7F000C30353F8782C002AF3D1022203F87C2CEF
:10A80000254406EBC50515F8703C013BDBB205F8A5
:10A81000703C8BBB214B16F81C6CD3F8C01255F85A
:10A82000740C621C02F003024B1E0324B242034468
:10A8300005F87C4CB3FBF1F045F8780C1AD099423E
:10A8400018D8013845F8780C012070BD47F0F0FFAA
:10A8500080B1124B2C44D3F8C02206EBC404012172
:10A8600002F51C5304F87C1C0F33B3FBF2F344F8DD
:10A87000783C70BD012070BD084BD3F8C022012088
:10A8800002F2E733B3FBF2F345F8783C70BD0138D0
:10A8900045F8780C002070BD403C00209801002055
:10A8A0002DE9F84F3249DFF8D4B091F8AD1E0124FC
:10A8B0000229074619461046CBF820414FF0000206
:10A8C0002C4C1D4618BF7F02FDF7CCFB2A4B636260
:10A8D0006B02A362E36A40F2FF5943F093034FF423
:10A8E00000704FF48A62E3620121C4F83890A060DE
:10A8F0001020E2605AF048FA012D40F251434E46D2
:10A90000C4F83890CA4640F252488EBF4FF0120940
:10A9100098464FF011090A25C4F838A00121A76014
:10A920004846C4F80C805AF02FFA03464FF0000C4A
:10A9300040F2774201213720A6632BB90023184645
:10A94000CBF81C31BDE8F88FA663C4F808C0E260FC
:10A950005AF01AFA013DA6630028EFD015F0FF0562
:10A96000DAD10346CBF82051CBF81C31BDE8F88F83
:10A97000482B0020002C014000E1F505501A002072
:10A980002DE9F843DFF8748098F82450042D04462C
:10A99000894617461E4608D0082D02D00020BDE883
:10A9A000F883FEF7F5FA0228F8D101234A4620463B
:10A9B0000021FFF775FF68B1FEF738FCD8F80C40AE
:10A9C000002CEBD00022D8F81030D8F80410104634
:10A9D000A047E3E7084BC8F80090D3F88420C8F8F4
:10A9E00004400523C8E90376C8F8142088F8243009
:10A9F0000120BDE8F88300BF482B0020501A00203A
:10AA00002DE9F84F3149DFF8CC9091F8AD1E1E4684
:10AA100002292F4B07464FF0010418BF4702012EB1
:10AA200040F25948C3F8244198BF4FF48B683B4625
:10AA30009346474640F2FF55B0468CBF4FF0190A87
:10AA40004FF0180A0A241E4640F2FF53C9F8383066
:10AA50000121C9F808605046C9F80C705AF094F901
:10AA600003464FF0000C40F2774201213720C9F82D
:10AA70003850ABB9584641460122FDF7F3FA464635
:10AA8000144A154B536276029662D36A43F09103DF
:10AA9000D3620F4B00210846C3F81C11BDE8F88FA4
:10AAA000C9F83850C9F808C0C9F80C205AF06CF938
:10AAB000013CC9F838500028DCD014F0FF04C3D1A1
:10AAC000034BC3F82441BDE8F88F00BF482B00209A
:10AAD000501A0020002C014000E1F5052DE9F04757
:10AAE000364C82B005460E461746984694F8240028
:10AAF00004280CD0082806D1E369AB4207D0FEF742
:10AB000047FA0228F2D0012002B0BDE8F087DFF852
:10AB1000B4A02660DAF8A09E6560C9F34F210F2922
:10AB20004FEA592222D8236A0193FBB194F8F2002C
:10AB3000E0B1B9F5005F13D0214831464FF40072FF
:10AB4000484462F081FF09F50072C2F34F211029D9
:10AB5000CAF8A02E4FEA522202D0019B012B20D12D
:10AB600092B2013A164EAD1A0B4600E0012332466E
:10AB70002846062601250021E760C4F810802572CA
:10AB800084F82460FFF73CFF0028BDD0FEF74EFBA1
:10AB9000E66886B12846236961680022B047032031
:10ABA000B2E7E269013B01320421C4E9072384F8DA
:10ABB00024100220A8E70320A6E700BF501A0020B7
:10ABC0004C770020482B002003681A78012A01D016
:10ABD0000020704793F90430044A03EB830302EB2F
:10ABE000C30313F8DF0CC0B2704700BF403C002025
:10ABF00010B50C4C54F8183C1B78022B10D154F8AB
:10AC0000100C46F0E9FC54F8100C08B12123C38065
:10AC1000012144F0ADFF044847F024FA24F8140C55
:10AC200010BD00BF403C00208096980030B583B036
:10AC30000D46012301460DF107020446074847F07F
:10AC400001FD9DF8072035EA020304D003482A439A
:10AC5000214647F08DFD03B030BD00BF283C0020E9
:10AC600038B505460A460C460648294647F07AFBA1
:10AC700045F08001034847F01FFA231A5842584113
:10AC800038BD00BF283C0020F0B53B4C54F8185CA0
:10AC90002B78022B95B018D0012B02D0002015B0D4
:10ACA000F0BD95F904506B1CF8D0022DF6DC009134
:10ACB000134614F8141C024628465FF063FF002870
:10ACC000ECD0284660F00EF8E9E72B6A002BE5D1BE
:10ACD0000DF10F0C8DF80F00002601200027CDE9A3
:10ACE0000833CDE90A12CDE90E6705938DF81C30C3
:10ACF0000D9310931293CDF810C006908DF830008C
:10AD00008DF84400EFF31180102383F3128854F878
:10AD1000183C1B6A13B3069B04AE32461BB1D369C1
:10AD20001432002BFBD12B6A13B3996839B99342C3
:10AD30000AD0196829B15B6899680029F7D01433E3
:10AD4000F3E70E4AC3E90026C0B280F3118854F835
:10AD5000182C136A002BFCD10120A0E704ABC0B271
:10AD60002B6280F31188A4F118005CF07FFCEEE701
:10AD7000024A1A60FFDE00BF403C0020283C002051
:10AD800070B503681D78022D13D0012D01D000206D
:10AD900070BD044693F904000A4B421C83F8B4507A
:10ADA000F5D00228F3DC0A46B4332179BDE87040BF
:10ADB00082E41B6A002BEAD1012247F0D3FA01207A
:10ADC00070BD00BF403C002013B53A4C0023D4F8BE
:10ADD000C4208DF80730137803F0FD01012905D157
:10ADE00094F8C81011B90C2184F8C810022B1ED099
:10ADF000032B2ED001220B212F4858F063F9042099
:10AE000045F004FC2C4801230DF10702002158F005
:10AE10007BF9002839D09DF80730482B35D1274BD6
:10AE2000C4F8B830264BC4F8BC3002B010BDD4F81A
:10AE3000CC0046F0D1FBD4F8CC0008B13523C38058
:10AE4000012144F095FE1F4847F00CF9A4F8C80012
:10AE5000D0E7D4F87435506846F2A8111961002380
:10AE600080F888301222372158F000F9D4F8C43025
:10AE70000D225868242158F0F9F8D4F8C430302253
:10AE800058686A2158F0F2F8B4E7D4F8C4301A7858
:10AE9000022A03D0032A07D00020C6E7D4F8CC004A
:10AEA00046F014FF0020C0E758681022372158F000
:10AEB000DDF8F1E7403C0020043D00206731060842
:10AEC000E9310608809698002DE9F04FB54CB64E52
:10AED00095B0002305464FF4F0728B4604F6F80057
:10AEE000202184F8F43884F8F538019562F00DFEDD
:10AEF000202104F6D8204FF4F07262F006FEDFF84D
:10AF0000C0C2AA4932274FF0100E4FF47A704FF0AA
:10AF10000108DCF80430C3F30803002B40F0BC80C8
:10AF2000EFF31183002B40F0B780D6F884208D68B2
:10AF3000D6F884309A42F8D1D6F8403F9D42F4D8F2
:10AF4000D6F83C9F00FB09F35B1BB3FBF9F300FB56
:10AF50000232DCF80430C3F30803002B7BD1EFF39B
:10AF60001183002B77D1D6F88430D1F808A0D6F819
:10AF70008450AB42F7D1D6F8405FAA45F3D8D6F853
:10AF80003C9F00FB09F5A5EB0A05B5FBF9F500FBB5
:10AF900003539B1AB3F57A7FDBD3013FB9D194F801
:10AFA000B92C002A52D094F8BA3C013B022B4DD860
:10AFB00003EB830004EBC0017D4D91F8547D05EB5C
:10AFC000C0004FF0010C022FC4F8BC0C84F844CD33
:10AFD00000F0C182DBB204EB0313D3F8CC3DC1F81F
:10AFE000583D9BB302234FF4807081F8543DA5F186
:10AFF00088034C3DA1F8600DC1F86C3DC1F8705D4F
:10B000001509013D042D02F00F0200F28782694FFD
:10B0100007EB4503B3F8AC0040FA02F3DB0740F15D
:10B020007D82012303FA02F2013A10403D4460F0B0
:10B0300073FA95F8B820604B104403EBC000C4F8D5
:10B04000C40C8379002B47D0412B45D06FF0010011
:10B0500015B0BDE8F08FEFF311898EF31288D1F8A7
:10B0600008A00B68DD0344BFC6F8388FD1F808A0EC
:10B07000D6F88430D6F8385F5FFA89F989F31188F9
:10B08000D6F83C9F2B4400FB09F5A5EB0A05B5FB60
:10B09000F9F500FB03537CE7EFF311858EF312887B
:10B0A000D1F808900B68DB0344BFC6F8388FD1F89D
:10B0B0000890D6F88430D6F8382FEDB285F3118891
:10B0C000D6F83C5F1A4400FB05F3A3EB0903B3FB7E
:10B0D000F5F300FB02323CE72323C380092144F04F
:10B0E00047FDD4F8C43C13B11A689B881383D6F883
:10B0F0003025324BB3EB920F80F03382B3EBD20F9B
:10B1000080F03182B3EB121F80F03182B3EB521F1B
:10B1100080F03182B3EB921F80F03182B3EBD21F0B
:10B1200080F03182B3EB122F80F02F824FF48070C9
:10B1300000230122FF210DF10F088DF80F10CDE93A
:10B140000483CDE90833CDE90A33D4F8BC1CA4F854
:10B15000C00C0D9306928DF81C208DF83020EFF373
:10B160001180102383F31288D4F8BC3C1B6A002B97
:10B1700000F0D881069B04AD2A461BB1D369143276
:10B18000002BFBD10B6A002B00F01582996839B9AE
:10B190009A421AD01968A9B15B6899680029F7D05A
:10B1A0001433F3E7403C0020482B002010E000E07F
:10B1B00094490020ACDB0608F82D0020404B4C00E1
:10B1C00000ED00E0B74AC3E90025C0B280F3118862
:10B1D000D4F8BC1C0B6A002BFCD18C220120CDE9D9
:10B1E00008330DF10E0A05938DF81C300D93109362
:10B1F00012938DF80E2000230022CDE90E23CDF806
:10B200002880CDF810A006900B908DF830008DF8B6
:10B210004400EFF31180102383F31288D4F8BC3C70
:10B220001B6A002B00F08781069B2A461BB1D3695D
:10B230001432002BFBD10B6A002B00F0BC81996803
:10B2400039B993420AD0196829B15B689968002915
:10B25000F7D01433F3E7934AC3E90025C0B280F373
:10B260001188D4F8BC2C136A002BFCD19DF80F3048
:10B270001B2B40F09081D4F8C43C012284F8F428C0
:10B280000BB12322DA80DFF81C92402248460A21C3
:10B2900047F068F88A21002301228DF80E10002063
:10B2A0000021CDE90E01CDE90833D4F8BC1CCDF85E
:10B2B00010A0CDF8288005938DF81C300D931093C5
:10B2C000129306920B928DF830208DF84420EFF304
:10B2D0001180102383F31288D4F8BC3C1B6A002B26
:10B2E00000F03181069B2A461BB1D3691432002B32
:10B2F000FBD10B6A002B00F05B81996839B993424E
:10B3000009D0196829B15B6899680029F7D014330E
:10B31000F3E7C3E90095C0B280F31188D4F8BC2CE0
:10B32000136A002BFCD19DF80F2094F8B81CC2F3CF
:10B33000801284F8FC2D002900F0D480022900F04E
:10B34000B980D6F830355849B1EB930F80F01F81A2
:10B35000B1EBD30F80F00981B1EB131F80F00981AD
:10B36000B1EB531F80F00981B1EB931F80F009818D
:10B37000B1EBD31F80F00D81B1EB132F34BF4FF42D
:10B380008076802694F8001EA4F8FE6D182914D14A
:10B39000464F474800215B08B3FBF6F3A7FB037356
:10B3A0000F465B0B66F30F076BF30F0163F31F4749
:10B3B00062F31F41C4F8081E47603A48A4F8C06C05
:10B3C0000222002146F0CEFFC82045F001F8D4F853
:10B3D000BC0C4FF0800B0026002700230122CDE992
:10B3E0000E67CDE908338DF80EB0CDF810A0CDF87A
:10B3F000288005938DF81C300D93109312930692BC
:10B400000B928DF830208DF84420EFF31182102339
:10B4100083F31288D4F8BC3C1B6A002B38D0069BFF
:10B42000002B3DD02B46D96914330029FBD1006A8B
:10B43000002800F0BA80816839B9834209D00168D8
:10B4400029B1406881680029F7D01430F3E7C0E9DA
:10B450000095D2B282F31188D4F8BC0C036A002B99
:10B46000FCD19DF80F3013F00203B6D1019841785A
:10B470008278007884F8100EC1F12001C2F1100228
:10B48000184684F8111E84F8122E15B0BDE8F08F0E
:10B490000562D2B282F3118802485CF0E7F8DBE77C
:10B4A0002B46C4E7FC480020809698005917B7D176
:10B4B000484A0020D6F830354048B0EB930F72D29E
:10B4C000B0EBD30F51D2B0EB131F52D2B0EB531FDE
:10B4D00053D2B0EB931F54D2B0EBD31F34BF8026AE
:10B4E00040264FE7D6F830353549B1EB930F4ED2B1
:10B4F000B1EBD30F39D2B1EB131F3AD2B1EB531FDB
:10B500003BD2B1EB931F3CD2B1EBD31F41D2B1EB95
:10B51000132F34BF4FF48076802633E70020C4F821
:10B52000C40CDBE504ADC0B20D6280F31188254880
:10B530005CF09CF84CE60D62C0B280F311882148A3
:10B540005CF094F88DE60D62C0B280F31188484635
:10B550005CF08CF8E2E691F8613D634481F8613D6E
:10B560004EE50220E4E50420E2E504260AE708208F
:10B57000DEE5082606E71020DAE5102602E720209F
:10B58000D6E52026FEE64020D2E58020D0E5022642
:10B59000F8E64026F6E6D4F8C40C202144F0E8FA98
:10B5A0004FF0FF3054E50E46ECE6C0F80090FFDEA9
:10B5B000C3F80090FFDE034A1A60FFDE002D310160
:10B5C000404B4C00FC4800200146014846F074BD49
:10B5D000544A0020014488420ED010B40346074C60
:10B5E000074813F8012B04FB00F0994280EA02009F
:10B5F000F7D15DF8044B7047014870479301000193
:10B60000C59D1C81094B93F86231042B08D9053B79
:10B61000032B08D801231A4600B103701046704767
:10B6200000230122F8E700231A46F5E7482B002003
:10B63000F0B40D6800240CE0BCF1050F18D8A0F19F
:10B6400037030A2B14D104EB840415F8010B03EB28
:10B650004404A0F13003DEB2092EA0F16107A0F18D
:10B66000410CF0D9052FE7D8A0F157030A2BEAD0F7
:10B670000D601460F0BC70479FED727A07EE901A6F
:10B6800020EE070AF8EE677A27EE800AFDEEC07A10
:10B6900017EE903A2033402B00F2C480DFED6A7A37
:10B6A000B4EEE70AF1EE10FAF0EE407A0CDD9FED11
:10B6B000676ADFED676AB0EE677AB4EEE67AF1EEBC
:10B6C00010FA77EEC67AF6DC9FED627AF4EEC77A6E
:10B6D000F1EE10FA0CD59FED5D6ADFED5F6AB0EE1A
:10B6E000677AB4EEE67AF1EE10FA77EE867AF6D45F
